:020000040800F2
:1020000000100020951B0108931B0108911B01087B
:10201000911B0108911B0108911B010800000000A1
:10202000000000000000000000000000931B0108F9
:10203000931B010800000000931B0108EF0D01082D
:10204000911B0108911B0108911B0108911B0108BC
:10205000911B0108911B0108911B0108911B0108AC
:10206000911B0108911B0108911B0108911B01089C
:10207000911B0108911B010841FF000899FF00080E
:10208000911B0108911B0108911B0108911B01087C
:102090008D080108911B0108911B0108911B010883
:1020A000911B0108911B0108911B0108911B01085C
:1020B000911B0108D5110108911B0108911B010812
:1020C000911B0108911B0108911B0108911B01083C
:1020D000911B010815FF0008911B0108911B0108C5
:1020E000911B0108911B0108911B0108911B01081C
:1020F000911B0108911B0108911B0108911B01080C
:10210000911B0108911B0108911B0108911B0108FB
:10211000911B0108911B0108911B0108911B0108EB
:10212000911B0108911B0108911B0108911B0108DB
:10213000911B0108911B0108911B0108911B0108CB
:10214000911B0108911B0108911B0108911B0108BB
:10215000012910B51346074C05DD002258681146C9
:1021600010F0C4FF20602168034801F072FD0120D7
:1021700010BD00BF001000207442010808B5064BD6
:10218000196821B1054801F064FD012008BD04482B
:1021900001F02EFDF9E700BF98150020B6440108B4
:1021A000A34201080129134610B512DD0022586828
:1021B000114610F09BFF044605F0A8F901200DF030
:1021C000E5FA20460EF006FE00200DF0DFFA0120B1
:1021D00010BD0024F0E708B5054B00215B68012025
:1021E0009847002211461046FFF7DCFF012008BD8A
:1021F000301F002010B5094801F0FAFC084801F032
:10220000F7FC0021074805F04BF9044620B90648C1
:1022100001F0EEFC204610BD0120FCE7AF420108B2
:10222000C34201082D220008D34201082DE9FF41D5
:1022300091F865300F6F002B06460D468C6F3846BF
:1022400014490CBF4FF020084FF02A0811F0F8FA9B
:1022500098B91149B5F8F430002C08BF0C46B5F810
:10226000F6203146CDE90124009342463B460B4817
:1022700001F0EFFC04B0BDE8F081074B4246002CB2
:1022800008BF1C4631463B460548009401F0E1FC7E
:10229000F0E700BFED42010885470108FA42010856
:1022A0002E4301080229134613B518D1002258689D
:1022B000019201A90A2210F019FF019C2CB91048C3
:1022C00001F0C7FC204602B010BD23784D2B10D082
:1022D0006B2B02D14FF47A7358430EF0BBFD0EF016
:1022E000D3FD431C014606D1064801F0B2FC012093
:1022F000E9E7054BF0E7054801F0ABFCF7E700BF65
:102300003E4301088243010840420F00A3430108F5
:1023100010B5B0B00DF0FEFA01462E4801F099FC60
:102320002D4B1B78002B30D14FF0FF32002304924D
:102330002A4A06A8116802932E9102A911600193FE
:1023400011F070FA28B904F0A3F9044608B3012388
:102350000193224B2E9A1A60029B33B1012B26D097
:10236000022B02D11E4801F074FC019B83F0010492
:1023700013BB00200DF01CFB00200DF007FA1948DC
:1023800001F036FC002030B010BD01200DF0FEF948
:10239000CAE7154801F02CFC204603F067FE04460E
:1023A0000028D4D1114801F023FC0194D1E703990E
:1023B0000F4801F04EFCD8E7224621462046FFF7A1
:1023C00019FF20460DF0F4FA2046214601F06AFD7F
:1023D0000120D8E7C7430108781100207C110020B4
:1023E000204401085D440108DB430108044401085E
:1023F0004E4401081346002210B50129B2B00392E1
:1024000004DD1146586810F071FE03900DF082FA59
:102410000146274801F01DFC264B1B78002B30D1CC
:102420004FF0FF3200230692234A08A81168049354
:10243000309104A91160019311F0F4F918B90398CF
:1024400003F014FE01901C4B309A1A60049B33B1C8
:10245000012B1AD0022B02D1184801F0FAFB019B84
:1024600083F0010414F0FF0414D000200DF0A0FA52
:1024700000200DF08BF9124801F0BAFB002032B0B9
:1024800010BD01200DF082F9CAE705990D4801F051
:10249000E0FBE4E7224621462046FFF7ABFE20465C
:1024A0000DF086FA2046214601F0FCFC0120E6E70B
:1024B000C7430108781100207C1100202044010846
:1024C000704401084E44010810B5B0B00DF022FA76
:1024D0000146274801F0BDFB264B1B78002B2FD16E
:1024E0004FF0FF3200230492234A06A8116802939A
:1024F0002E9102A91160019311F094F910B904F022
:10250000C7F801901C4B2E9A1A60029B33B1012B25
:102510001AD0022B02D1194801F09BFB019B83F0DA
:10252000010414F0FF0414D000200DF041FA002043
:102530000DF02CF9124801F05BFB002030B010BD0B
:1025400001200DF023F9CBE703990E4801F081FB40
:10255000E4E7224621462046FFF74CFE20460DF0D8
:1025600027FA2046214601F09DFC0120E6E700BF46
:10257000C7430108781100207C1100202044010885
:10258000824401084E44010870B5044638B103681E
:102590001B6823B9204605F0E7FA012070BD084802
:1025A00001F026FB074D084E296811B9002CF1D126
:1025B000F3E7AA68304601F04CFB0C35F4E700BFA6
:1025C0009C440108A4670108AF44010808B5084805
:1025D00001F00EFB0DF0D4F80146064801F039FB7E
:1025E000054801F005FB054801F002FB012008BD8C
:1025F000BA440108F64401080D45010840450108A8
:102600002DE9F3411446054630B91A4801F0F0FAB5
:10261000012002B0BDE8F081052926D11022002159
:10262000606810F063FD102206460021A06810F0DB
:102630005DFD102207460021E06810F057FD1022D2
:1026400080460021206910F051FD044643463A4679
:1026500031460090084801F0FCFA43463A463146BC
:102660002846009405F08DF9D2E70449044801F0AA
:10267000F0FACDE7904501089E450108E7450108BD
:10268000B64401082DE9F043012980460F4616465D
:1026900087B01BDD5568284611F0EAF8022F044682
:1026A0007BD102468E49284610F0B2FF88B901223C
:1026B00000218C4B8C481A708C4B4FF4C0721970EF
:1026C00010F062FF012007B0BDE8F083EFD088482A
:1026D0008AE122462846874910F09AFF20B9814BAB
:1026E0001870824B1870EDE722462846824910F098
:1026F0008FFF002851D17B4B804A19787B4B804C4F
:102700001878804B002818BF1A467F4B7F48002955
:102710000CBF2146194601F09CFA7D490B78002B2D
:1027200037D1204601F064FA404605F0C3F8744AF8
:102730007549002808BF1146764801F08AFA7648A4
:1027400001F056FA754B1B7813B1754801F050FA39
:102750000024744D744E15F8013B1BB121463046E0
:1027600001F077FA0134102CF5D1704B1B7833B19E
:102770006F4B70481A68704B196801F06AFA6F4B1A
:102780006F4A70491B68126809686F4801F061FA66
:1027900098E76E4801F05DFAC6E7224628466C4984
:1027A00010F036FF8046F0B9014610225D4810F067
:1027B000EBFE022F594B02D101221A7082E783F8F7
:1027C000008002244FF00108564D002256F82400E4
:1027D000114610F08BFC01340F2898BF05F80080DB
:1027E000BC42F2D36EE7022F51D122462846594906
:1027F00010F00EFF08B9464B74E7224628465649AA
:1028000010F006FF38B94D4B4D4A4E491B6812680F
:1028100009685248BAE722462846514910F0F8FEA6
:102820000646002851D14F4B4F48196801F011FA64
:102830004E4801F0DDF934462B4D3A4FDFF8308138
:102840004C4EDFF83491D8F8003032681A44A24276
:102850007FF638AF696917F8012B04912969002ABE
:102860000391E96808BF6E220291A96818BF792216
:10287000019169684148009141491835A34294BFCC
:102880004B460B46214601F0E4F90134DBE7032F08
:102890007AD1224628462F4910F0BAFE0446002875
:1028A0007FF415AF1A4B0F221846B16810F0C2FE24
:1028B000102203462021C47313F8010B5F2808BFC0
:1028C00003F8011C013AF7D1FCE6224628462D49BF
:1028D00010F09EFE00287FF4FAAE144B02E700BF12
:1028E0003C460108B0150020DC150020BC15002076
:1028F0007C470108444601084D4601083546010859
:102900002D46010831460108EC5F010854460108D4
:10291000A0150020734601087D46010860100020C4
:10292000894601085C1700208F460108C815002061
:10293000D015002094460108CC1500206810002016
:10294000641000205C100020A94601086E460108B2
:10295000DB460108E3460108E9460108EE460108A6
:10296000FB460108C415002002470108134701086F
:10297000D4150020D8150020384601084447010826
:10298000B45201086E470108042F30D12246284670
:10299000284910F03DFE044600287FF498AE4FF021
:1029A0001008254DCDF800800146FF232A46B06867
:1029B00001F0C1F900283FF485AE204FCDF800802A
:1029C000FF233A462146F06801F0B5F900283FF4AC
:1029D00079AE3A682B689A428CBF01220022184BCC
:1029E0001A703FF66FAE174801F002F96AE6052F3C
:1029F0007FF46DAE22462846134910F009FE0446C6
:102A000000287FF464AE02460146B06810F06EFB09
:102A10000E4B224618602146F06810F067FB0C4B05
:102A2000224618602146306910F060FB094B18609F
:102A300048E600BF6E470108CC150020D0150020E5
:102A4000C815002072470108E94601085C10002003
:102A500064100020681000202DE9F0470E4682B077
:102A6000054600AF084610F003FF3246012330440C
:102A700082421CD100249B00073323F00703ADEBF7
:102A8000030D304621493A1D7C60E84610F00DFEEA
:102A90001E4EA0B91E4ED6F80090B9F1000F17D106
:102AA0008DB342462146284605F01EF819E012F87B
:102AB000011B202901D00929DAD10133D8E748F8D0
:102AC0002400314600203A1D10F0EFFD0134E0E70C
:102AD0005CB94246214628467368984780F0010059
:102AE000C0B20837BD46BDE8F087D8F800A0504610
:102AF00010F0BEFE49460246504610F089FD0028FF
:102B0000E7D00C36C7E74FF0FF30EAE7834701080C
:102B1000A467010870B506460D4610F0A9FE0446EC
:102B200088B102460A49304610F072FD18B90123F7
:102B30002B70012070BD22463046064910F068FD1A
:102B400008B92870F5E7044801F052F80020F1E7D1
:102B5000864701088D470108954701082DE9F7438D
:102B6000002401290E4615468DF8074051DD5068B6
:102B70000DF10701FFF7CEFF20B9274801F038F823
:102B800000273FE09DF80770002F42D0022E06F18B
:102B9000FF381ED0AE68304610F06AFE1F4902466C
:102BA000304610F035FDA0B9B8F1020F2ED0044622
:102BB00002264FF0010900220136114655F8260081
:102BC00010F094FA1F289CBF09FA00F00443464510
:102BD000F1D320460EF070FA114801F03AF81F25A3
:102BE000104E24FA05F1304601F0010101F031F8F0
:102BF000013DF6D20C4801F02CF803220B490C4899
:102C000001F027F8384603B0BDE8F0834FF0FF34F9
:102C1000DFE70848B2E700BFC647010806480108D9
:102C20000D4801081C4801088E450108F4210020C8
:102C3000204801084C480108012908B50CD0022998
:102C400006D10B495068FFF765FF28B9012008BD80
:102C5000084800F0CDFFF9E7054B074A1978074B04
:102C6000074800290CBF1146194600F0F2FFEDE7B6
:102C7000781100205D480108444601083C460108DF
:102C80007A4801082DE9F04FDFF8E0B01C46DBF888
:102C90000830ADF20C4D43F00103CBF80830074685
:102CA0008A4690460EF0D0F80026814624F00305AF
:102CB000AE4220D32D4B641B1E6818D023463846E5
:102CC00005EB080202A904F0C6FD80BB284D02AB4B
:102CD00013F8012B86EA02660822002E4FEA460608
:102CE000B8BF6E40013AF8D101308442F0D10120E2
:102CF000CAF800601CE00EF0A7F809F57A7282426B
:102D000006D20190012100200DF0ACFF019B9946F5
:102D1000AB1BB3F5806F28BF4FF48063384606EBDA
:102D2000080202A9019304F096FD019B20B1002046
:102D30000DF20C4DBDE8F08F02AA517892F800C058
:102D4000090441EA0C6192F803C0043041EA0C0125
:102D500092F802C0834241EA0C21CBF8001002F144
:102D60000402EAD806F58066A2E700BF0030024000
:102D7000B71DC10486E700BF0A4A38B513680BB90E
:102D800010F064F89D68D3F8B040284207D0C3E93A
:102D90000001014603F11000146010F049FD2346C4
:102DA000EDE700BF7C1100200846114600F03EBF51
:102DB00038B50B4C0D4623688B420AD109210948CE
:102DC00000F0D2FE084800F013FF00232360012327
:102DD0002371A368AB4204BF0023A36038BD00BFCA
:102DE000801100200E4C0108184C010803210148F5
:102DF00000F07ABE484C010810B5027803463F2A1D
:102E000005D10D210D48BDE8104000F06DBE0C4C01
:102E1000206810B903210B48F5E75B78632B03D0DA
:102E2000732B09D0432B06D1002104F0A2FD01230E
:102E3000054A2373137010BD0121F6E74C4C0108BD
:102E4000801100205A4C01080822002008B50120FA
:102E500000F04EFDBDE808400221014800F044BEEC
:102E60005E4C010810B5064C206840B104F074FDBA
:102E7000206804F0C1FC2368A3600023236010BD18
:102E80008011002008B5FFF7EDFFBDE808400221E2
:102E9000014800F029BE00BF5E4C010813B51024A4
:102EA000009400F048FF02B010BD1FB500242C2391
:102EB0006A4602A90294FFF7F1FF68B1FF23214699
:102EC000029801AAFFF7EAFF30B10B4B186828B946
:102ED00003210A4800F008FE04B010BD03A9DDE993
:102EE0000023FFF747FF10B903210548F2E70399D4
:102EF000044800F065FEEFE7801100205A4C0108FD
:102F0000614C0108654C010808B5002000F0F0FC98
:102F1000BDE808404FF48061014800F051BE00BF99
:102F20006A4C0108F0B585B00F46064610F0A0FCCB
:102F3000002504462C23384601AA03A9CDE90155F2
:102F40000395FFF7ABFF30B1FF232946039802AA90
:102F5000FFF7A4FF28B903210B4800F0C5FD05B019
:102F6000F0BD019AA242F6D802D101210748F4E748
:102F70000299A31A8B4228BF0B460548012132440F
:102F800000F064FDEBE700BF5A4C0108E452010871
:102F9000704701082DE9F0414C0804F1080323F0C3
:102FA000070300AFADEB030D6B4600256E460146EF
:102FB000224618464FEAD30800F089FE0D4B3146F1
:102FC000186804F83850FFF747FDA84206DA29468A
:102FD000094800F089FDBD46BDE8F08102D102211B
:102FE0000648F6E784B006490722684600F045FE29
:102FF0000E21EEE780110020854701085E4C010894
:10300000B44C01082DE9F0410746884615462C6866
:10301000204674B110F02CFC214606460246384684
:1030200010F0F6FA38B9B8196B68A8EB06019847A2
:103030000120BDE8F0810835E9E7002373B50D46AE
:1030400001936A463A2301A90446FFF727FF90B18E
:103050000A4E019A306858B1131B0099EB1A04F01C
:103060008DFE28B10221064800F03EFD02B070BD81
:10307000306804F025FF03210248F5E780110020A5
:103080005E4C0108BC4C01081FB500242C2301AA8A
:1030900003A90394FFF702FF48B1FF2321460398D9
:1030A00002AAFFF7FBFE10B10A4C206810B90321F9
:1030B000094806E0DDE9011204F003FE28B102210F
:1030C000064800F011FD04B010BD206804F0F8FEC1
:1030D000EDE700BF80110020BC4C01085E4C0108E8
:1030E00011B103783A2B02D0064B1B681BB90321A0
:1030F000054800F0F9BCDB6D0121DB074CBF03483C
:103100000348F6E7801100205A4C01085C4C010886
:10311000164C010810F80B3C662B06D1044B1B68BB
:103120001BB10221034800F0DFBC01210248FAE78D
:1031300080110020C04C0108E452010810B5084C71
:10314000237933B10321074800F0CEFC002323711B
:1031500010BD0221BDE81040034800F0C5BC00BF0F
:1031600080110020144C01085E4C010838B50D4B4D
:103170000546186838B9986828B90321BDE8384071
:10318000094800F0B1BC04F05FFC041E2946074862
:1031900018BF2046FFF7C6FE2046BDE838400FF0B6
:1031A00081BE00BF801100205A4C010885470108EC
:1031B00010B50E4B04461868ADF5806D48B9986897
:1031C00038B903210A480DF5806DBDE8104000F0C4
:1031D0008BBC4FF48062694604F0ABFA2146684626
:1031E000FFF7A0FE0DF5806D10BD00BF801100201F
:1031F0005A4C010808B5074B186804F061FE28B165
:1032000002210548BDE8084000F06EBC03210348D8
:10321000F8E700BF801100205E4C0108BC4C01089B
:1032200007B5FF23002101AAFFF738FE0146A0B130
:103230000B49019804F041FA0A4B186050B1002183
:10324000084600F02FFE0C21074800F04DFC03B0AB
:103250005DF804FB03210548F7E70548F5E700BFE3
:103260000410002080110020C34C01085A4C0108B2
:1032700085470108F0B505460024037897B03B2B3D
:1032800008BF01352B78EBB900224FF0FF3104F174
:1032900058036B44364D03F8542C364B2E68196096
:1032A000354B1A70002E4CD03046224601A904F04E
:1032B00064FB286804F050FB0321304800F014FC44
:1032C00017B0F0BD502C04F1010638D004F15802BB
:1032D0003B2B0DEB020705D12023013507F8543CA9
:1032E0003446CFE7A3F13002092A04D923F02003A2
:1032F000413B052BC8D86B78A3F13002092A04D9C9
:1033000023F02003413B052BBED801AB1819022244
:10331000294600F0DCFC17F8543C202B01D05C2B34
:103320000AD14F2CB0D006F158026A4402F8543C3E
:103330005C23344607F8543C661C0235D0E7502421
:10334000A2E7A86880B10E4904F09CF9286058B142
:1033500001A9224604F011FB286804F0FDFA314669
:10336000304600F09FFDA7E703210648A6E700BF0F
:10337000801100208C100020BC150020D04C0108CA
:10338000041000205A4C01082DE9F04188B0904605
:1033900000220D7802AF7A2D1E460C4697F8303089
:1033A0003A6000F2DE813E2D06D8042D00F06B81DC
:1033B000212D00F0BD80D4E13F3D3B2D00F2D181B5
:1033C000DFE815F00301CF01CF01CF013C0061011F
:1033D000CF015B01A000EC00CF01CF01CF01CF01F5
:1033E000B900CF01CF012E01C7017B01CF01CF0171
:1033F000CF01CF01CF01A601CF01D401CF01CF0171
:10340000CF01CF01CF01CF01CF01CF013C00CF01D0
:10341000CF01CF014500CF01CF01CF017801CF010E
:103420006C00CF01CF010C01C7017B01FC00CF0173
:10343000CF01D201CF01CF01CF01D4010021AA4B8E
:103440001868002840F0BC800321A84806E0DFF897
:103450009882D8F8000040B90321A54800F044FB49
:1034600000201837BD46BDE8F08104F0EBFA0546B0
:1034700088B1C31D23F00703ADEB030D02AE314647
:10348000D8F8000004F036FA2A463146204600F00B
:10349000F4FB6900E2E702219648DFE7924E3368C9
:1034A000002BD9D02C23394607F10C02601CFFF702
:1034B000F5FC0028D0D0FF230021386807F1100266
:1034C000FFF7ECFC0028C7D03B69B3EB580F02D9DB
:1034D00003218948C2E7DA1D22F00702ADEB020D95
:1034E00002AD2946FA68306804F0B5F910B103213D
:1034F0008248B3E7294620463A6900F0BEFB3969A5
:103500004900ABE7784D28680028A5D004F09AFA66
:10351000024668B1C31D23F00703ADEB030D02AEF5
:10352000611C304600F0D3FB3146286804F0FBF9FB
:103530000221734892E700236B4DC7E903332B68E0
:10354000002B89D02C23394607F10C02601CFFF7B1
:10355000A5FC002880D03A233946386807F11002CC
:10356000FFF79CFC00283FF477AF39683A690C1BE1
:10357000341BB2EB540FABD8D31D23F00703ADEBD4
:10358000030D02AC204600F0A2FB22463B69F9681D
:10359000286804F085F90028CAD0A8E70021022E87
:1035A0003961A4D9FF2307F11002A01CFFF776FCB4
:1035B00000289CD03B69012B99D8B9E701213EE74F
:1035C00004F0D7F901224F4B1A70474B1A6812B911
:1035D00003214D4842E701221A7341E7424D2B680F
:1035E000002B3FF439AF9B6A002B3FF454AFFF230D
:1035F000002107F10C02601CFFF750FC00283FF48B
:103600002BAF28680823F96807F1100204F060F96D
:10361000054600283FF420AF024607F1100135E7C8
:10362000314D2B68002B3FF417AFDB6A002B3FF4C2
:103630007FAF3D23394607F10C02601CFFF72EFCDB
:1036400000283FF409AF3C68204610F011F9092822
:103650003FF602AF00234208214607F110003B610C
:1036600000F035FB0423F968286807F1100204F024
:1036700038F900283FF4F0AE5AE7002B71D0013141
:1036800003F0C2F9EDE6184D286840B101221D4B48
:103690001A7004F0B1F82B68AB6000232B6023781C
:1036A000442B03D10221164800F01EFA002000F03E
:1036B0001FF9D5E6FFF7D6FBD2E60B4C25681DB106
:1036C000284604F049F9CBE6A06800283FF4C8AECC
:1036D0000E4903F0D7FF206018B12946284600F0B4
:1036E000E1FB2068EDE700BF80110020D84C010805
:1036F000BC4C0108154C0108D44C01085A4C010877
:103700005E4C010808220020144C0108041000201F
:10371000344D2B68002B3FF49FAE2C23394607F124
:103720000C02601CFFF7BAFB00283FF495AE3A2369
:103730003946386807F11002FFF7B0FB00283FF464
:103740008BAE3A683B69141B341B9C42BFF41FAF1D
:10375000BEE6254A31462046FFF754FC00287FF498
:103760007FAE0021214879E6214AF3E71D4D2B6801
:10377000002B3FF471AE00264FF00A083E612C2367
:10378000CDF800803A1D07F11001601C00F0D3FA5B
:1037900000283FF4ACAE2C23386907F10C0207F186
:1037A0001001FFF77BFB00283FF4A1AECDF80080AD
:1037B000FF233146386907F1080200F0BCFA0028FF
:1037C0003FF495AED7E90232247828685A2C39792B
:1037D00005D104F0DFF80028BFF6EBAD87E604F072
:1037E00009F9F8E780110020706801088547010891
:1037F000C868010807B51346002200920A46014630
:103800000248FFF7C1FD03B05DF804FB041000207F
:10381000044B186808B104F0A3B80321024800F073
:1038200063B900BF80110020144C010813B5194C76
:10383000206830B90321184802B0BDE8104000F0FC
:1038400053B901A904F090F898B10023134A013844
:103850002373137005281BD8DFE800F0030D1A1A34
:1038600012181D210E4800F0ABF901210D4800F09F
:1038700019FB02B010BD02210B4800F0A1F9F8E7D6
:103880000521019A094800F09BF9F2E70B21F3E7C3
:103890000521F1E780110020144C010808220020C6
:1038A000DC4C0108E24C0108EF4C0108F54C010822
:1038B00038B5A0F12303012B04460D4603D97D281A
:1038C00001D02A280FD100217D2084F020040DF0A2
:1038D000C9F9002120460DF0C5F92B787D331C4431
:1038E000E4B22C7038BD00210DF0BCF92B78F6E75E
:1038F00038B50446044D28B92B781BB101212B2083
:103900000DF0B0F92C7038BD8D11002070B5054652
:103910000E4600240DF0E0F9232803460DD008D808
:10392000042811D02128F4D0B4420CD228550134F7
:10393000F0E72428F8D1012008E00023214628469A
:103940002B5500F062FC002300202B7070BD2DE988
:10395000F0474FF0000A06460F465546D1465446FA
:10396000DFF8E4800DF0B8F9042C60D8DFE804F04B
:10397000031F2F3944002428307011D0212813D17F
:1039800039463046FFF7C2FF4FF000093378042B69
:103990004FD100234FF0010973704846BDE8F0870E
:1039A0004FF000090120F1E720462C46EEE72428DD
:1039B00042D0232843D005447D28EDB241D006F8FB
:1039C000090009F10109B94528BF0024CAE70544E7
:1039D00080F0200306F809300124EDB209F1010955
:1039E000F1E798F800302BB900F063F94FEA001ABC
:1039F0005FFA8AFA0424E6E798F800301BB1002346
:103A000006F80930C9E700F054F94AEA00005FFA05
:103A100080FA0121554514BF2D202B200DF022F9ED
:103A200098F80040002CEAD15545CCD1E7E70024B6
:103A3000C9E725460446C6E70025A946C3E703248F
:103A4000C1E70224BFE700BF8D1100202DE9F74F29
:103A500004460F461546984604264FF0000A0021FA
:103A600024208DF803A0A1460DF0FCF807EB040B11
:103A7000D94527D1A94608EB050BD94529D1002105
:103A800023200DF0EFF89DF80330154A032101A81B
:103A90000FF0B4FC00219DF804000DF0E3F80121C3
:103AA0009DF805000DF0DEF80E4B1B783BB94FF486
:103AB000FA600DF027F92B2801D0013ECFD103B0D9
:103AC000BDE8F08F19F8010B0DF10301FFF7F0FECF
:103AD000CEE719F8010B0DF10301FFF7E9FECCE782
:103AE000F04C01088D1100202DE9F74304460E46E5
:103AF00004254FF00008002124208DF8038027467C
:103B00000DF0B0F806EB04094F4522D10021232027
:103B10000DF0A8F89DF80330114A032101A80FF019
:103B20006DFC00219DF804000DF09CF801219DF82A
:103B300005000DF097F80B4B1B783BB94FF4FA607A
:103B40000DF0E0F82B2801D0013DD4D103B0BDE841
:103B5000F08317F8010B0DF10301FFF7A9FED3E77E
:103B6000F04C01088D11002037B50D4600210446A8
:103B700025208DF803100DF075F82544AC4216D1C0
:103B8000002123200DF06EF89DF803300B4A03212D
:103B900001A80FF033FC9DF8040000210DF062F83D
:103BA00001219DF805000DF05DF803B030BD14F85B
:103BB000010B0DF10301FFF77BFEDFE7F04C01087D
:103BC0000FB4002307B504AA52F8041B01A8CDE9DD
:103BD00000230FF0A5FC011E05DB0198FFF784FF11
:103BE00001980FF05FF903B05DF804EB04B0704783
:103BF000F8B506460FF03CFE47000546791C01204B
:103C00000FF02CF9044670B12A46314600F035F821
:103C10003B46224604480121FFF718FF2046BDE835
:103C2000F8400FF03FB9F8BDD74D0108002307B5A4
:103C30000A46014601A801930FF072FC002805DB3B
:103C40000198FFF7D5FF01980FF02CF903B05DF84C
:103C500004FB0FB407B504A951F8040B0191FFF759
:103C6000E5FF03B05DF804EB04B07047092884BF9A
:103C70000730C0B23030C0B2704738B50346044692
:103C80008D18A94204F1020404D1002103F8121096
:103C9000184638BD08780009FFF7E8FF04F8020C61
:103CA00011F8010B00F00F00FFF7E0FF04F8010C22
:103CB000E7E7A0F130030246D8B2092806D9A2F1FD
:103CC0003703D8B2102884BF573AD0B27047F8B53E
:103CD000044606468518AE4201F1020101D1204694
:103CE000F8BD11F8020CFFF7E4FF074611F8010CCC
:103CF000FFF7DFFF40EA071006F8010BEBE770B5AE
:103D00000E1800200D460146AE4200D170BD15F8D8
:103D1000013BA3F13002092A04D923F02002413AE1
:103D2000052AF3D80901040141EA10711846FFF78A
:103D3000C0FF2043E8E72DE9F74300240F4616466D
:103D400001A90A9A8146984601940FF0CFF9019D86
:103D50009DB14D4513D0B8F1FF0F04D02B784345EA
:103D60000DD1013501950FB1019B3B601EB90120BA
:103D700003B0BDE8F0833060F9E72846F8E7204655
:103D8000F6E70000004870479011002000B5AFB082
:103D90000BF01AFD002300934FF0FF332F4A0293DC
:103DA000136804A82C93C2F800D00FF03BFDA0B11B
:103DB0002C9B2A4A1360009B002BEBD00321284840
:103DC000FFF792FE03F0A2FB01992648FFF741FF9F
:103DD0000121254800F066F8DCE7244B244D1A88C1
:103DE000244B254C9A82254E2B782BB123681BB18E
:103DF000FFF71CFD2B78DBB91C4B214C1A88214B9B
:103E00004FF48061C3F810282046FFF7A0FD237807
:103E10000246042B02D1184B1B681BB1134B1988A7
:103E2000144B99824FF480611548FFF7E3FCBFE71C
:103E30002368002BE0D000200CF064FF0338C0B2F0
:103E4000012807D93378002BCED00B4B186800F02F
:103E5000D0FEC8E7206803F083FDF3E77C11002063
:103E6000BC4C0108D94D0108E24C0108A21D0020FC
:103E70008C1100200008014080110020B0150020A6
:103E8000901100200000014028B1B0FA80F0C0F18C
:103E90002000C0B27047FF20704708B510F07CF8D2
:103EA000C0B208BDB0FA80F3034A5B091170034940
:103EB0005B420B6050607047941500201810002082
:103EC000194910B50B6801332CD0184B1A7AEAB98E
:103ED0000A685868541C0C60845C04F0FF022CB91A
:103EE0001A78E2B102780120D2B20860413AD2B227
:103EF000192A83BF00225A8104220D499FBF31F83D
:103F0000220001EB82018A7858811A725A8902F0E4
:103F1000010052085A811A7A013A1A7203E04FF0EE
:103F2000FF330B60002010BD1810002094150020F6
:103F300010690108F0B5054614461E4600212620EA
:103F400085B00CF08FFE002128460CF08BFE54EA61
:103F5000060325D06F46002504F00F00FFF786FE0C
:103F600001352409102D44EA067407F8010B4FEAC5
:103F7000161602D054EA0603EED19DF800308DF8F3
:103F80000030013D00211DF805000CF06BFE002DF6
:103F9000F7D10121232005B0BDE8F0400CF062BE4E
:103FA00030230125EBE738B50446002126200CF02C
:103FB00059FE00214B200CF055FE20460FF058FC16
:103FC0002518AC4205D1BDE83840012123200CF072
:103FD00049BE14F8010B0021A0F12303012B01D9E4
:103FE000212800D120200CF03DFEEAE737B5044639
:103FF0000D46262000210CF035FE00214B200CF050
:1040000031FE00232544ADF80430AC4206D1012135
:10401000232003B0BDE830400CF024BE012221462D
:1040200001A8FFF72AFE00219DF804000CF01AFEFB
:1040300000219DF805000CF015FE0134E5E7084A63
:1040400092F82D202AB100234520120242F00302EB
:1040500070E700B1CAE7002200234B20F8E700BF59
:104060001C10002018B1002200234B2062E703221D
:1040700000234520FAE703292DE9FF47044606D827
:1040800000220023502004B0BDE8F04752E7811C15
:104090000220FFF734FE6378C5B2582B26D00BD828
:1040A000423BDAB2072A0ED8072B0CD8DFE803F020
:1040B0000F1A0B160B0B0B82722B23D0772B4CD0C5
:1040C000632B00F08C80012200234520DBE728468B
:1040D0000BF06FFC04B0BDE8F047C3E728460BF0D7
:1040E0006AFCF7E728460BF068FCF3E70220211D85
:1040F000FFF705FEC1B228460BF061FC0246002323
:104100004B20C0E7211D0220FFF7F9FDA11D074646
:104110000420FFF7F4FD04F10A0180460620FFF7B2
:10412000EEFD04F1100181460420FFF7E8FDB0F533
:10413000807F0446A4D8FFF725FE0646CDE900049B
:10414000F9B228464B461FFA88F203F0A4F821463C
:10415000304604B0BDE8F04748E70220211DFFF7D4
:10416000CEFDA11D07460420FFF7C9FD04F10A0199
:1041700080460620FFF7C3FD04F1100181460420AC
:10418000FFF7BDFDB0F5807F06463FF679AFFFF73C
:10419000F9FD8246324604F11401FFF798FD4B46C3
:1041A0002846CDE900A61FFA88F2F9B203F089F893
:1041B0000022A4E7211D0220FFF7A1FD032603AC86
:1041C00000239F22C1B201962846009403F063F8B1
:1041D00031462046FFF70AFF04B0BDE8F087211DF5
:1041E0000220FFF78CFDA11D06460420FFF787FD86
:1041F00004F10A0107460620FFF781FDBAB2034623
:10420000F1B2284603F072F8D2E72DE9F0430378C3
:10421000E9B04A2BCDE9040110D8402B13D9413B1A
:10422000092B10D8DFE813F0D2010F000F000F00A8
:104230000F000F00050151010F007300532B04D034
:10424000732B00F0A3830122CAE0049B5B78532BFD
:1042500028D014D8492B3AD04F2BF4D1049B0220FC
:10426000991CFFF74CFD049B0446191D4FF0FF30CD
:10427000FFF745FD9C4BDB682146984725E0692BFD
:104280003AD06F2BDFD1049B0220991CFFF737FD3A
:10429000049B0446191D4FF0FF30FFF730FD924B91
:1042A0009B68E9E7059B022B40F099808F4B904A71
:1042B0005A60904A9A60904ADA60904A1A61904A2D
:1042C0005A61904A9A610CF07BFA00221DE0049931
:1042D00002200231FFF713FD0024834B01465B6887
:1042E000069406A89847A04223460CBF50204B20B6
:1042F000069AFFF71FFEC7E0049902200231FFF77C
:10430000FEFC794B1B689847024600232AE0049B79
:104310005B78542B3ED84D2B26D8442B93D1059B4C
:10432000042B5CD9049B0220991CFFF7E8FC049B3A
:104330000446191D4FF0FF30FFF7E1FC0022002377
:10434000CDE90E23049BCDE90C0159786E4BA1F108
:1043500044067142DD680CAA234671410EA8A847A5
:10436000DDE90E234B20C4E74E3B062B3FF66BAF37
:1043700001A252F823F000BF0F4400084742000892
:104380004742000847420008BB4300089D4300081D
:10439000C3430008632B27D0642BBFE70022534B95
:1043A000C3E90122594ADA60594A1A61594A5A61E5
:1043B000594A9A610CF02CF887E7534B1B689847D1
:1043C00083E7049B0220991CFFF799FC049B044699
:1043D000191D0220FFF793FC059B032B02D8022234
:1043E000002315E1484B5BE7049B0820191DFFF7EC
:1043F00086FC049B0246D97898783039424B18BF26
:104400000121303818BF01205B6998475DE7059BA3
:10441000042BE4D1049BD9789878A1F1310461424E
:10442000A0F13105384B614168425B6868419847AB
:104430006AE7049B5B78562B2FD016D8462B3AD0D0
:104440000CD8412B3FD0452B7FF4FDAE049B9878D0
:10445000303818BF01200BF0ABFA36E7502B7FF451
:10446000F2AE002200234E2043E7702BF9D00ED885
:104470005A2B17D0662B7FF4E6AE0CF005FD042115
:10448000079007A8FFF7B2FD69B0BDE8F0837A2B6B
:104490007FF4D9AE0BF030FA36E70BF03BFAFFF7BA
:1044A00082FDF1E7049B9878A0F131014842484130
:1044B0000BF06CF909E7049908200231FFF71FFCA3
:1044C0000CF0C8FC01E71548E9E7154B1A88154BB5
:1044D0009A82049B5B78432B26D04A2B2FD0412B0A
:1044E00072D001222FE000BF501F00201C100020BE
:1044F000A95E0008E55E0008ED5D0008115E000899
:10450000255F0008915D0008301F0020A15C0008B5
:10451000BF5C0008155C0008ED5B0008CC44010896
:10452000A21D002000080140042200234B20FFF7B9
:1045300001FDA04B1A88A04BC3F81028A4E7059BE7
:10454000152B03D8022200234520F0E7102200217A
:1045500010A80FF019F8049B0220991CFFF7CFFB5D
:10456000049BC4B2191D0220FFF7C9FB049B8DF800
:104570004800991D0220FFF7C2FB049B8DF84900FB
:1045800003F108010220FFF7BAFB049B8DF84A00F3
:1045900003F10A010220FFF7B2FB049B8DF84B00E8
:1045A00003F10C010220FFF7AAFB049B8DF84C00DD
:1045B00003F10E010820FFF7A2FB10A9119020467D
:1045C00002F048F80022B0E70922AEE700233A9350
:1045D0004FF0FF333C93794B3EA81A6866923AAA93
:1045E0001A600FF01FF9064638B9059B072B11D842
:1045F000002200235020FFF79DFC704B669A1A6042
:104600003A9B002B3FF440AF1A0242F004021B0E0B
:1046100045206EE6049B5B78362B40F0D980059BE5
:104620000E2BE5D9664F2AAC3D460FCD0FC40FCDFA
:104630000FC40FCD0FC495E80F0084E80F00614B45
:1046400002203193604B3293049BD91CFFF757FB38
:10465000049B87F82C00591D102087F82D60FFF768
:104660004EFB2AAB1F93534BCDE928011A88574BB9
:104670009A82049B9B78612B29D007D8412B3BD091
:104680004D2B5ED00122002345201DE06D2BF9D17A
:10469000049B082003F11501FFF731FB049B2490D4
:1046A00003F11D011020FFF72AFB049B07460E466D
:1046B000082003F12D01FFF722FBB0F5FF7F044630
:1046C00030D9002200235020FFF734FC0EE004997B
:1046D00004201531FFF713FB1F9B81B2DB691EA875
:1046E000984704210B900BA8FFF7A9FC314B1A88BF
:1046F000314BC3F8102880E7049B042003F1150117
:10470000FFF7FDFA049B84B203F119010820FFF7BB
:10471000F6FA21461F9B02461B6A1EA898470021F5
:104720000846E1E7FFF72EFB1F9B0094D3F8248097
:104730003A463346054601461EA8C047214628464C
:10474000D2E7049B082003F11501FFF7D8FA049B78
:10475000249003F11D010220FFF7D1FA049BC5B29A
:1047600003F11F011020FFF7CAFA049B80460F4691
:10477000082003F12F01FFF7C2FAB0F5F67F0446D7
:104780009FD24FF0FF36AE4030EA060699D1FFF7D0
:10479000F9FA0646049922463731FFF798FACDE92F
:1047A00001451F9B0096996A42463B461EA88847D2
:1047B000B5E700BFA21D0020000001407C110020D1
:1047C0001C1000200F62000845620008000801402C
:1047D000049B0220991CFFF792FA6E4C049B84F80C
:1047E0002C00191D022084F82D60FFF788FA6A4B0F
:1047F0008DF858001A88694B15949A82049B5B784F
:10480000612B75D01DD84D2B00F08580522B54D0D4
:10481000412B7FF437AF049B0420991DFFF76FFAFB
:10482000049B84B203F10A010820FFF768FA210112
:10483000159B01F48051E4B202461B6A214314A87F
:104840006CE7642B27D06D2B7FF41CAF049B0820F2
:10485000991DFFF754FA049B1A9003F10E011020E2
:10486000FFF74DFA049B07460E46082003F11E0190
:10487000FFF745FAB0F5FF7F04463FF622AFFFF79A
:1048800081FA159B009405460146D3F824803A46E8
:10489000334614A851E7049904200631FFF72FFA94
:1048A00080B2010101F48051C0B20143E3682046A7
:1048B00098470421089008A816E7049B0420991D36
:1048C000FFF71DFA049B85B203F10A010820FFF7E8
:1048D00016FA2A0102F48052EDB203469DF85810F0
:1048E000204666692A43B0470421099009A8FBE6DF
:1048F000049904200631FFF702FA80B2159B0101EA
:1049000001F48051C0B20143DB6914A89847042127
:104910000A900AA8E8E6049B0820991DFFF7EFF922
:10492000049B1A9003F10E010220FFF7E8F9049BA3
:10493000C6B203F110011020FFF7E1F9049B804695
:104940000F46082003F12001FFF7D9F9B0F5F67FF3
:104950000446BFF4B6AE4FF0FF35B54030EA05056A
:104960007FF4AFAEFFF70EFA814604992246283154
:10497000FFF7ADF9CDE90146159BCDF80090996A96
:1049800042463B4614A888472946C9E6FFF773FB11
:104990007AE500BF1C100020A21D00200008014085
:1049A00038B504460D460CF04FFA012D2CBF4019C6
:1049B0000130206038BD10B504460CF045FA031EE6
:1049C000206801DA002804DA98422CBF0020012078
:1049D00010BD0020FCE700002DE9F04F85B000AFCE
:1049E000A4B06D464FF00008B860FA600E46902201
:1049F000002128460EF0C8FDC146FB689E424CD2FD
:104A0000FB68A3EB060ABAF1800F28BF4FF0800ABB
:104A100005F180030FCB85E80F0053463246B86896
:104A200005F1100102F017FF044690BB36A3D3E94D
:104A30000023DFF8DCB02878A0FB0B010FF094FA1C
:104A40003449881A63EB430110EB080049EB01017C
:104A50002DA3D3E900230FF087FA19022B7C41EA3A
:104A600012611202D01841F1000127A3D3E90023FB
:104A70000FF07AFA28499046A34208BF8A42994625
:104A8000C7F804B03CD130190F381437BD46BDE823
:104A9000F08F31462148FFF7DCF80020F5E71BF8DE
:104AA000010F796818A3D3E90023A0FB01010FF0DF
:104AB0005BFA1849881A63EB430110EB080049EBD5
:104AC000010111A3D3E900230FF04EFA19029BF85C
:104AD000103041EA12611202D01841F100010AA31C
:104AE000D3E900230FF040FA0B499046002B08BF92
:104AF00091429946C7D00134A245D0D180367CE797
:104B0000AB46F8E7AFF3008091967A790000000099
:104B1000017DB07391967A79CD104144F14D010831
:104B20002DE9F04FA3B001901E480C4617460EF039
:104B30009FFE431E3F2B064603D9002023B0BDE84D
:104B4000F08FA0F17F0AA7EB0408BC42F5D2B8F1C0
:104B5000800FC14628BF4FF0800922464B4601987E
:104B600002A902F078FE0546C8B121460E48FFF7BB
:104B700070F8C6F17F031C44D044E6E701350BEB27
:104B800005029145F5D905F10803324605490DEBBB
:104B900003000EF03DFD0028F0D16019CEE706F1CC
:104BA000010BECE7A0150020F14D0108F8B502F06B
:104BB00003071E46FB189C0718BF04330D4622F05E
:104BC000030118BF23F003038A4207D1B34205D182
:104BD000294602F040FE04462046F8BD0A46294612
:104BE00002F039FE32460446E91928460EF0B2FCBE
:104BF000F2E72DE9F04F05468DB0002800F0EA817C
:104C0000AD4C237C002B00F0E5810CF01DF9D4E9BC
:104C1000052313448342019002D9824240F2DA8193
:104C2000237F1BB9284602F045FE6077637F002B87
:104C30003DD100230293237F002B40F09B809F4FA8
:104C400023623A686361A261227C62B3636294F872
:104C50002830002B4ED1AE6E002E3BD1626AFAB1E5
:104C600008232846103206A902F0F5FDC0B9069EB9
:104C7000079B102E28BF1026A3633344102B84BF3C
:104C8000C6F11003A363FF2E666304D8D4F83880FE
:104C9000B8F1FF0F3AD98A48FEF7AAFF0023237420
:104CA000237F002B66D14FF0000847461DE12846C0
:104CB00005A902F059FE0028BBD1284602F050FE9B
:104CC000284605A902F050FE0028F9D0811E4B426B
:104CD0004B41AFE72378D6E9001228460A4433B99E
:104CE000FFF77AFE60620028B8D1B668B4E7FFF734
:104CF00017FFF7E723782846D4E90B121BB9FFF713
:104D00006BFE6062AAE7FFF70BFFFAE756EA0809B5
:104D100005D16C48FEF76CFF84F81090C0E74FF4A3
:104D2000C072002168480EF02FFC3B79C3B10E22FF
:104D3000002166480EF028FC331E18BF0123012E07
:104D400084F8BC3194BF002301230F2E84F8BD31B9
:104D500006D8B8F1000F03D00123264486F8BC31F1
:104D600018232846626A5A4902F075FD002897D137
:104D70000123237718232846626A0DEB030102F012
:104D80006AFD30B9182252480DEB02010EF0D2FB39
:104D900008B100232377237F002B84D0626A002A86
:104DA00081D0D4E90D310B44182128464B430A44E5
:104DB000454902F050FD0746002840F08F808046AC
:104DC0008146444B0393A3F5C074A3F5DE7ADAE978
:104DD0000D2313444B4540F28880039B13F8011BBD
:104DE00000910393002963D04A4540F2998061689D
:104DF00000295DD0A668002E5AD0E3689E4240F29A
:104E0000D2802269964240F2CE80934250D080F008
:104E10008380B61AB6F5806F28BF4FF480660A44C7
:104E2000334628462C49FFF7C1FE002840F0BB80DE
:104E30002369A2683344B3FBF2F002FB1033C6F5DA
:104E400080612361D4E90332934219D9C1B1A3EB44
:104E5000020B8B4528BF8B4661685B460A441E499E
:104E600028463144FFF7A2FE002840F09C802369C9
:104E70005E449B44A368BBFBF3F203FB12B32361C4
:104E80001820DFF834B00423DBF8241004F11002FA
:104E9000283100FB0911284602F002FD002840F0ED
:104EA000828031460BF5F2700CF0CAF8DDF8008014
:104EB00009F1010918348AE7A01500205C100020D0
:104EC0000B4E01081D4E0108DC1500205E17002066
:104ED0006C1700205C17002084170020616A3F488F
:104EE0001831FEF7B6FE4FF00008029B1BB10021FF
:104EF000284602F03EFD3A4C019B6361A369B8F17C
:104F0000000F52D0002F50D15B08364DA3612A68A4
:104F10009A424CD2A2614DE000264FF4806191E7A5
:104F20006369B3FA83F252098AF8EC259A1E534258
:104F300053418AF8ED350CF079F80028B8D1636850
:104F4000002BB5D0A368002BB2D0E26893422AD9D7
:104F50002269934227D9E668A3680136B6FBF3F2CB
:104F600003FB126623699E420FD00CF041F80690B5
:104F700001300AD06068E1680123014406AA28468E
:104F800002F08EFC78B9E660E5E71820DAF8241024
:104F90000423243100FB091104F10C02284602F01D
:104FA0007FFC002882D0009F82E75B00ADE7AA6803
:104FB0009A42AFD877B10C48FEF71AFE236AEA6826
:104FC0000133236232B1934204D90848FEF710FE40
:104FD000002323740DB0BDE8F08F00BFF14D010830
:104FE000A01500205C100020314E01083C4E010845
:104FF00010B444691346A4460A4610BC0021604719
:105000000021036918474368DB6918470A461021E5
:1050100010B5436886B000915C6A02A90023A047DE
:105020009DF810309DF80C201B0443EA02239DF8E4
:1050300008209DF81400134343EA006006B010BD39
:105040000203C0F3063309D5090201F4706143EA93
:105050000100B0F5846F09D12020704743F400406F
:1050600048F25503984208BF2020704740F255533C
:10507000F8E770B5069B0022C3F30B010C4B9DF8BB
:1050800020501846BDF824609C79052C01D10020E1
:105090000DE01C888C4205D19C78AC4202D19C88E2
:1050A000B44202D001320833EEE700EBC20070BD1B
:1050B00078690108F8B541F6FC510446FFF7A3FFF3
:1050C000E06008B90020F8BDC0F34333082B6DD170
:1050D00000F00F00451EEBB2072B67D841F6F451E4
:1050E0002046FFF790FF4FF4E85106462046FFF7B1
:1050F0008AFF41F6F851A0612046FFF784FF0023A4
:1051000000F0030763616FF30B00B30720610DD557
:10511000002FD7D0637A41F6F05143F00103637258
:105120002046FFF770FF636903436361022FC9D014
:10513000637ADE0702D423690133C3D0A269500623
:10514000C0D5072D05D8DFE805F01C04040E1C2C83
:105150001A1C22F0370242F0004383F08000A36162
:10516000C0F3C010AFE7124B134012024CBF43F024
:10517000004343F02043A36143F08053EDE70D4B20
:10518000F2E711024BBF22F0BE4222F0F85222F0A9
:10519000370222F037024CBF42F0234342F0634310
:1051A000DBE722F0E04323F03703DEE701208AE764
:1051B000C87FFF80C87FFF8F2DE9F04105460D4B6A
:1051C0000D4F1C68DFF834800CB9BDE8F0813E78E3
:1051D00066B9D4F8F030434508D1204604F0C2F84F
:1051E000854203D13146204602F0C3FBD4F8E840A3
:1051F000EAE700BF981D0020781100206D93000899
:1052000070B59DF810101546012904461E468269A6
:105210001CD00239012994BF42F0120242F0100260
:1052200063684FF4E8511B6A20469847637ADB07AE
:1052300005D5324641F608516068FFF7D9FE2A4687
:10524000606841F60451BDE87040D1E642F01102B9
:10525000E6E710B50446406890F82F30022B07D8D7
:105260000821227A120642F01002BDE81040BFE683
:1052700005220821FFF7BCFE0421E26A6068FFF7FF
:10528000B7FEA26A0821606842F45162EDE71FB5DB
:105290000A460421436800915C6A03A90023A047E1
:1052A000039804B010BD2DE9F04F02F57F6189B07D
:1052B000044607931546DDE912B30693FFF7A6FEF1
:1052C0000646606890F82DA0BAF1000F68D1FFF78C
:1052D00097FE0746002863D1544B26F470429A4249
:1052E0005ED105F57D612046FFF790FE05F57E61F4
:1052F00080462046FFF78AFEC6F30336012E81461C
:1053000051D118F0F00F4BD1BBF1000F17D141462E
:10531000FFF796FEC9F30B092084A4F82290226AB5
:10532000434B9A420BD120464249FFF7B0FFC003DE
:1053300005D5204609B0BDE8F04F03F073BC204608
:1053400005F6CC71FFF7A3FF06466068FFF758FE2D
:1053500028B9F10742BF637A43F002036372DFF8B2
:10536000D8800BF1010B6068FFF74AFE05EB87015F
:105370002046FFF78CFF06466068FFF741FE0346B4
:1053800070B96EB1F20707D506EA08022046CDE9EA
:1053900000B72A44FFF787FF0137B7F5707FE2D1E6
:1053A00009B0BDE8F08F4146FFF74AFE40F23B43AB
:1053B000984203D040F675239842F1D1092E25D1A9
:1053C00005F6BC712046FFF762FF05F6CC71074673
:1053D0002046FFF75CFF5FFA80FA17F4801000D0D8
:1053E000B8B2CDE904A0CDE902982846134B069A3D
:1053F00007990096FFF73DFE0028D1D08379022B54
:1054000006D0032B0BD0012BCAD192E70020E8E78E
:105410002946204609B0BDE8F04F02F075BD294687
:10542000204609B0BDE8F04F02F06EBD0D0005B199
:105430001F00D00C0021004100F0FFFF746701083D
:10544000C368184710B444691346A4460A4610BC02
:105450000021604710B44469A44610BC604702684C
:10546000013A01D0026070470DF01CBD73B50446CF
:105470000B460D46082200214669B04794F82D30AE
:10548000072B17D10C4B20215B6801A898470121FD
:105490002369204698472B4608220021204666694A
:1054A000B04794F82D300190072B03D10120034918
:1054B000FDF762FC02B070BD501F0020494E01088C
:1054C00070B50D4604461646017A05F0F0034068B3
:1054D00043EA0161FFF7CAFF324629466068BDE82A
:1054E0007040AFE738B50D460446017A05F0F00389
:1054F00043EA01614068FFF7B9FF29466068BDE8EB
:1055000038409DE790F82F1011B1042183691847A6
:105510000369184703681BB941680A6801320A60C9
:10552000013303607047036810B5013B0446036014
:105530003BB94068FFF793FF2046BDE810400DF0EF
:10554000B1BC10BD70B505460C468AB028220021BA
:1055500068460EF019F8684601958DF80840FFF787
:10556000A9FD064688B128200DF094FC064660B1DE
:1055700005466C460FCC0FC50FCC0FC594E8030051
:1055800085E803003046FFF7C5FF30460AB070BD1E
:1055900000B58368B3B0019023B10020984733B0C1
:1055A0005DF804FB039304934FF0FF3306930C4B19
:1055B00008A81A68309204AA1A600EF033F903465C
:1055C00028B9024601210198FFF744FF0390044BDC
:1055D000309A1A60049B0BB90398E0E70020DEE7DD
:1055E0007C110020012B0ED007D9991E012910D95A
:1055F000012202FA03F31844704701F00301C900C5
:10560000CA400270F4E701F00201C900CA400280FA
:10561000EEE70260ECE72DE9F04F85B098460E9B6F
:1056200006460F46154643B39A18029248F1000207
:10563000990714BFDB430223039218BF03F0010351
:10564000AA0716BFEA43022202F001029342A8BF52
:1056500013464FF0010A5FFA83FB2A460AFA03FA5F
:10566000CDF800B04346FFF7CBFD2C46C146029B68
:105670009C42039B79EB030302D305B0BDE8F08F96
:10568000C84508BFA54211D0C4F3090373B9737AA2
:10569000DB0705D54A4641F608517068FFF7D2FE90
:1056A000224641F604517068FFF7CCFE41F60C51DA
:1056B0007068FFF7C5FE214602465B463846FFF795
:1056C00091FF1AEB0404074649F10009CFE730B512
:1056D00023B1012B0DD00868106006E00D7800F0B2
:1056E0000304E40005FA04F414600120984008441F
:1056F00030BD0D8800F00204F3E72DE9F04F87B0CC
:105700000546DDE91091164698469DF848A0002907
:1057100044D0891803914FF0010101FA0AF1C9B28E
:10572000CDF800A043F1000B02913446FFF768FD6D
:105730004746039B9C4277EB0B0305D30C2168681B
:1057400007B0BDE8F04F7BE6B84508BFA64211D0D0
:10575000C4F3090373B96B7ADB0705D53A4641F602
:1057600008516868FFF76EFE224641F604516868EA
:10577000FFF768FE002349462046059305AA5346D5
:10578000FFF7A5FF41F60C518146059A6868FFF7BF
:1057900059FE029B1C1947F10007CAE707B0BDE894
:1057A000F08F7FB5099D4668AC0716BFEC43022415
:1057B00004F00104910716BFD143022101F0010159
:1057C0008C42D4BF02940291089901950091B16A6C
:1057D000884704B070BD2DE9FF41044604214068AC
:1057E000FFF72EFE4A4E0546316803A8FFF7D8F8AA
:1057F000A26963684FF4E85120461B6A42F0020236
:10580000984741F604520021424B6068FFF722FEA0
:1058100041F60C520021404B6068FFF71BFE0C2143
:105820006068FFF70DFE002745F47F05DFF8EC8088
:1058300045F4704503A8FFF7BEF810B104B0BDE809
:10584000F081606890F82E1011F0010103D12B4611
:105850000422FFF7FFFD434641F60C520021606829
:10586000FFF7F8FD002341F60C5201216068FFF7B5
:10587000F1FD0246606890F82E30D90705D50C225C
:1058800000230121FFF7E6FD0246531CD2D022F08F
:105890007F6323F00F13002BCCD1900105D527B9DE
:1058A0001F4B1B7823B90127C4E71E4B9343C1D17B
:1058B000002563681C4983F82D502046FFF7E7FC5C
:1058C00004231A4AE061CDE9013202AB204600937D
:1058D0000DA3D3E90023FFF764FF316803A8FFF7A6
:1058E0005FF8284609F052FF0A4D29462046FFF787
:1058F000CEFC8101A2D503A8FFF75DF80028F4D003
:105900009CE700BFAFF30080FCED00E0000000006A
:1059100000100020F0ED00E001005FA003005FA098
:105920007811002001000200FCED00E001040001FC
:105930002DE9F043A54B85B00362A54B426BC361D3
:10594000A44B04464362A44B8362A44B9A4220D0EA
:10595000FFF71EFE28B9204605B0BDE8F0430DF064
:10596000A1BAC0F3460100F470630B43C0F30751C2
:10597000C0F30332E186C0F3004184F82F20A386F0
:1059800084F82E1013B10AB1C20702D40023636356
:10599000E3852046FFF7B6FD94F82F30012B21D97F
:1059A000022208212046FFF74DFD04212046FFF783
:1059B00047FD0546002208212046FFF743FD05F478
:1059C0007063C5F34602134323872B0B638725F0CF
:1059D000704594F82C3025F0010545EA037545F033
:1059E00001052563626B7E4B9A420CD12821012070
:1059F0000DF034FA002800F0E680446005B0BDE800
:105A0000F04304F03BBDFA2103A8FEF7C9FF0022D2
:105A100004212046FFF716FD4FF0204515F0204FDA
:105A200009D004212046FFF70BFD054603A8FEF729
:105A3000C2FF0028F2D0C92103A8FEF7B1FF4FF042
:105A4000A04204212046FFF7FDFC0A200BF0C2F91A
:105A500004212046FFF7F4FC00F02040B0F1204F75
:105A60000ED194F82F30022B10D923682046013331
:105A7000236000F07BFD204605B0BDE8F043EEE476
:105A800003A8FEF798FF0028DFD064E7238F152BCB
:105A900002D1204602F03EFA236801332360238FAF
:105AA0000E2B04D149F65C13628F9A4216D0002661
:105AB0003746B046DFF82C912046F1B2FFF742FDA1
:105AC0000546002856D120460137FFF71BFD082F59
:105AD000D1D00136B6F5807FEED1CCE7012120464A
:105AE000A369984707212046FFF72CFD05460028AB
:105AF000DDD043684FF484511B6A3B4A98472846DF
:105B0000FFF711FD01212046FFF71CFD0546002887
:105B1000CDD00026CDE90066D0E90423FFF7C3FB12
:105B20002846FFF700FD04212046FFF70BFD054640
:105B30000028BCD0CDE90066D0E90423FFF7B3FB11
:105B40002846FFF748FE2846FFF736FB2846FFF7B2
:105B5000EAFC06212046FFF7F5FC05460028A6D002
:105B6000CDE90066D0E90423FFF79DFB2846FFF747
:105B7000DAFC80E702F0CAF9284603F09FFF2846C6
:105B800002F0C4F9284602F0C1F92B7A43B9EB6858
:105B900009EA0303B3F1011F02D12846FFF71BFEF8
:105BA000CDE900882846D5E90423FFF77CFB284689
:105BB000FFF702FB6B68284693F82E309B07D6D47C
:105BC000FFF7B1FC85E705B0BDE8F083C1540008DC
:105BD000E554000817560008FB5600083B0400BABD
:105BE000130902000FE00100F000003013B5044675
:105BF0004B0FC900CDE9001390F82C00082100F0EC
:105C000039FE23236A46002194F82C0000F06EFE32
:105C100002B010BD003918BF0121F0B50546580F7C
:105C200041EAC303510801F006010B4387B012F4A7
:105C3000805F0CBF0A210B21CDE9023095F82C00C2
:105C400000F018FEFA2101A8FEF7AAFE95F82C0034
:105C5000232302AA04A900F049FEDDE9044701A8B4
:105C600004F00706FEF7A7FE38B9012EEED0022E8B
:105C70000ED1E00840EA477008E0012EF7D128462F
:105C80003146AB699847002085F82D6007B0F0BD1C
:105C900001200249FDF770F8EBE700BF594E0108FB
:105CA00010B504460A4600230121FFF7B3FF204642
:105CB000BDE8104000230C220121FFF7ABBF38B52F
:105CC0000421C368044698470021054B0422034081
:105CD0006569204684F82D10A84700F0320038BDD1
:105CE000320000F038B54021054601200DF0B6F82D
:105CF000044620B3124B80F82C50C360114B2D0189
:105D00004361114B0361114B8361114B5B5903F4E8
:105D10007062C3F34601C3F30F330A43B3F53A4F3E
:105D20008286C38607D10021FFF7C9FF2046BDE860
:105D30003840FFF7FDBD0421FFF758FFF6E738BDF7
:105D4000A15C0008155C0008BF5C0008ED5B000862
:105D5000901B002010B444691346A4460A4610BCA8
:105D60000021604770B50446084D2021AB684FF014
:105D7000FF309847002CAB6808BF1C21BDE870407D
:105D800018BF20216FF07040184700BF501F00203F
:105D90000A460021DEE773B5044600230A460D4695
:105DA00046690121B04794F82D30072B18D10D4BCF
:105DB00020215B6801A89847012123692046984764
:105DC00000232A46012120466669B04794F82D3009
:105DD0000190072B03D101200349FCF7CDFF019867
:105DE00002B070BD501F0020494E0108CB0470B5B1
:105DF00004460AD5FFF7CFFF65692046AC46BDE8EB
:105E0000704000230C2201216047BDE87040C2E7CA
:105E100038B590F82F300446012B02D990F82D3078
:105E200003B969B10120FFF79DFF94F82F30012BD2
:105E300003D90C206368216B98470020A36898471A
:105E4000A36804209847C0F340010901C30648BF76
:105E500041F00201820648BF41F00401030600F050
:105E6000B20505D541F0080163680020984701E0BC
:105E70000029F9D1002384F82D30284638BD11F4CB
:105E8000805F14BFA322812208B182F024024FF464
:105E9000887301F00C01CB4043F3000303F02003AF
:105EA00042EA41005840704770B50D4D0E4601461C
:105EB0000020FFF7E4FF0821AB6898472B68032018
:105EC00098470446EB683046202198470821002077
:105ED000AB689847E0B2013818BF012070BD00BF21
:105EE000501F002073B50E4E01460120FFF7C7FF7B
:105EF0000821B36898473368032098470024054673
:105F000073682021019401A89847EDB2204608212A
:105F1000B3689847012D14BF2046019802B070BDA8
:105F2000501F00202DE9F7439846D3040F4604463E
:105F3000114603D590F82D30002B31D13846FFF7AC
:105F40009EFF00238146FA2101A80093FEF728FD59
:105F5000254E08214846B368984703203368984780
:105F6000C5B2042D0AD11E2200212046FFF7F2FE01
:105F700001A8FEF720FD0028EBD001E0022DF7D0AC
:105F8000013D062D14D8DFE805F01704130F131395
:105F90001100A369012120469847022384F82D307F
:105FA000002003B0BDE8F0830423F7E70723F5E7FB
:105FB00001200E49FCF7E0FE87B120216846736896
:105FC000984728B901200A4984F82D00FCF7D4FE2F
:105FD00000200821B36898470098E2E72021404656
:105FE000F3689847F4E700BF501F0020494E0108AE
:105FF0006D4E01082DE9F04100260446B04621F01F
:10600000704727F001070120FFF7ACFE47EA067151
:106010000C20636884F82D8041F0010198472046E8
:10602000FFF7B6FAD0B1402101200CF017FF05466A
:10603000B8B12346844604F1400E62461868596898
:10604000083303C273459446F7D128460421AB694F
:1060500085F82C6098472846FFF76AFC0136102E19
:10606000D1D12046BDE8F0410CF01CBFF8B5064682
:1060700001F04CFA402101200CF0F0FE044600280B
:1060800046D03B4B3B4F43603B4B83603B4BC36035
:106090003B4B43613B4B03613B4B83610AF090FBFD
:1060A000012009F085FC0020FFF75CFE2021BB6881
:1060B000364898472021BB68354898472021BB685F
:1060C000344898472021BB68334898474FF4D07034
:1060D0000C21BB6898470120FFF744FEB6BB204661
:1060E000FFF756FA0546A8B9FFF73CFE1021BB683A
:1060F0004EF29E7098470120FFF734FE84F82D5031
:106100002046FFF745FA054620B920460CF0CAFEA6
:106110000020F8BDC5F3073313F00E0FC5F30335A8
:1061200084F82F500ED0022208212046FFF712FEDD
:1061300004212046E36898470022064608212046AD
:10614000FFF708FE94F82F30012B09D9314620467D
:10615000FFF750FF114B1868003818BF0120D8E72F
:1061600020460421A36998472046FFF7E1FBF1E7A9
:10617000A95E0008501F0020E55E0008ED5D0008E4
:10618000255F0008115E0008915D000892F3096226
:10619000952D8586E9AFDDE3A20EBC19981D002080
:1061A000C368184710B444691346A4460A4610BC95
:1061B000002160474368DB69184743681B6A18473A
:1061C000F8B504460E460025052208214068FFF771
:1061D000E9FF0421E26A6068FFF7E4FFA26A082190
:1061E00032436068FFF7DEFF2F4646F4805646EAEA
:1061F0008501606889B2FFF7D3FFEB00C0B20135BB
:106200009840042D47EA0007F1D13846F8BD70B533
:1062100004460D46052208214068FFF7C3FFE26AE5
:1062200060680421FFF7BEFFA36A05F47F6260681F
:1062300008211A43FFF7B6FF60682946BDE87040A1
:10624000C368184770B504460D4616460821052256
:106250004068FFF7A7FFE26A60680421FFF7A2FF2A
:10626000A36A05F47F6260681A430821FFF79AFF6A
:106270006068334644692A46A446BDE87040002160
:1062800060472DE9F04F1F4681461546A5B02822EC
:1062900000210CA80DF078F94FF47F610CA8CDE92E
:1062A0001657CDF83490FFF78BFFAE4B20F47042B9
:1062B0009A4204D00026304625B0BDE8F08F4FF456
:1062C0007D61C0F303340CA8FFF77AFF4FF47E61C1
:1062D00006460CA8FFF774FF012C804605D116F086
:1062E000F00F0CBF01260026E5E73146FEF7A8FEB9
:1062F000092C834640F0E48041F6BC710CA8FFF7FE
:1063000059FF41F6CC7182460CA8FFF753FF1AF4EF
:106310008013C0B200F0D68040F6F7221FFA8AF34D
:10632000934240F0CF8016F0F00FC3D13146404683
:10633000FEF786FEC8F30B03079041F6C8710CA860
:106340000893FFF737FFC40648BF9DF83930C2B243
:1063500044BF43F002038DF83930900602F00F0B72
:1063600041D54FF4E0510CA8FFF724FF010718BFF7
:106370009DF83930C4B21CBF43F004038DF83930A6
:10638000E20628D5FA2118A8FEF70AFB012241F6F9
:1063900010410CA8FFF711FF41F610410CA8FFF7C0
:1063A00009FFC60717D541F614410CA8FFF702FFF5
:1063B000C30705D5002241F610410CA8FFF7FDFEEA
:1063C00018A8FEF7F8FA0028E6D0002241F610419E
:1063D0000CA8FFF7F2FEA40642BF9DF8393043F047
:1063E00008038DF83930BBF1000F14BF4FF48073F0
:1063F0004FF400730A9314BF0323022301264FF0C6
:1064000000080993099B0CA808FA03F91FFA89F9F7
:1064100049F48051FFF7CEFE0446BBF1000F3FD197
:10642000D94614F003033FF446AF032B32D19DF855
:10643000393024F47F6A234058072AF00F0A1CD50C
:10644000A40804F07C0404F5D0510CA80B91FFF7CC
:10645000B1FE10F0010F0B990FD002220CA8FFF72C
:10646000ACFEFA2118A8FEF79BFA04F5D454214695
:106470000CA8FFF79FFEC1071CD5089B15EB0A026D
:106480000293079B0D98CDE9008349EB0703FFF7C3
:10649000F8FE06400A9B08F101089845B2D10AE7C8
:1064A00009F1040141F4805189B20CA8FFF782FE82
:1064B0008146B6E718A8FEF77EFA0028D7D0F9E69D
:1064C0000020034640F23B42934501D00126F2E60C
:1064D000CDE9040339462846CDE90286224B2E9A9F
:1064E0000094FEF7C6FD0028F0D08379042BEDD18F
:1064F0002822002118A80DF047F82E9B18A8CDE9F6
:106500002257CDF864908DF86830FEF7D3FD00284F
:10651000DCD030200CF0BEFC06460028D6D0054664
:1065200018AC0FCC0FC50FCC0FC594E80F0085E851
:106530000F003046FEF7EEFFBDF8BC30002233847A
:10654000BDF8C030304673840123CDE90032D6E96E
:106550000423FEF7A8FE3046FEF72EFE3046FEF777
:10656000E2FFB3E70D0005B174670108F0B504461A
:10657000274B85B0C361274B012203620821FFF737
:1065800011FE00212046FFF70BFE00F07F000222E3
:10659000082184F83C002046FFF704FE0021204635
:1065A000FFF7FEFD0322064608212046FFF7FAFD0D
:1065B00000212046FFF7F4FD16F0010203464FF0DC
:1065C000000023D04FF0FF3194F83C20A2F1200CC2
:1065D00001FA02F501FA0CFCC2F1200721FA07F7D3
:1065E00045EA0C053D43914031401D4029430BD104
:1065F000E28E0292A28ECDE9000226F47F6220464E
:1066000022F00F02FFF73DFE05B0F0BD1046FBE79C
:106610000F620008456200080D4A70B50346002568
:1066200014461068164610B9C3E900000BE07668FE
:1066300014320E40864208D1142202FB0542D2E9F0
:10664000030183E80300184670BD0135E9E700BF88
:10665000406C0108F8B50C46054628B901464FF4D0
:1066600000720A480CF090FF2346084E03F1100711
:1066700006EB0514224618685968083303C2BB426A
:106680001446F7D10135C6F80052F8BD901B002022
:106690002DE9F74F0024734D734E00F037FF4FF490
:1066A000007221462846C5F800420CF06DFF09F043
:1066B000AFFE3368984703210120B3689847A0468E
:1066C0006A4F20233A4600216846D6F80CC0CDF820
:1066D0000080E047DDF80090B9F1FF3F26D10121AD
:1066E0004FF0000808467368984702210120B368FC
:1066F0009847C246C5F80042444604210320B368C7
:10670000984768462968FFF787FF9DF804700121C4
:10671000002073689847EFB1009BE34003F001034A
:10672000834210D00023C5F8003203E0202C05D1AD
:10673000C5F80082002003B0BDE8F08F230145F8C2
:1067400003900134BDE70134E4B2BC420AD0212CED
:10675000DDD1E7E70134E4B20028F8D0012CD6D02F
:10676000022C5AD0B7FA87FB4FEA5B1BA4EB0B0451
:1067700005EB0A13E4B20AF1010A9C7283F80B805C
:10678000C3F804904FEA0A136846E958FFF744FF3C
:10679000A0449DF804705C46B9E7D5F800329C42ED
:1067A000C0D10121736808469847B36802210120CF
:1067B0009847D5F80032002BBCD005EB0313AB4251
:1067C0000BD100241427D5F80002A04221D9284B70
:1067D000002198464FEA041C08E013F8062C03F841
:1067E000047C3A44D7B2103BE9E701311E689E466B
:1067F0006EB1DEF8040055F80C2014331040B0429E
:10680000F3D107FB018293680BB1E0B298470134E2
:10681000D9E7003818BF01208DE7012173680846C9
:10682000984721460120B368984703210120B368A7
:1068300098473C46DFF82C80012100207368984778
:106840000028AAD1D5F80022E1B2531E01345B1A08
:10685000A24288F8081088F8093008F11008EBD235
:1068600060E700BF901B0020301F0020686C01080B
:10687000406C010873B51A4C050104EB0010436825
:1068800001918B4226D0224600234FF0FF36D4F8E8
:106890000002984202F110021ED12C44114D032037
:1068A000AB6861600421984700202B69E27A0E49A9
:1068B0009847207B2B69B0FA80F0A27A01A94009A1
:1068C000984701202B690849227B98470221012023
:1068D000AB68984702B070BD42F80C6C0133D8E742
:1068E000901B0020301F0020686C01082DE9F04744
:1068F00007468A46184C194D0321012098464FEA55
:106900000719A36805EB0717164698470020236967
:106910003A7A13499847787ABAF1000F13D0B0FA4F
:1069200080F1434632465046E7684909B8474D442E
:10693000236901206A7A0A499847A3680221BDE8C1
:10694000F04701201847B0FA80F0424631462369EB
:1069500040099847EBE700BF301F0020901B002044
:10696000686C0108F7B50546FDF70CFA01270446E7
:106970004FF480612046FCF7EAFF012803462678A1
:1069800001D1042E0AD04FF4806221462846009798
:10699000FCF7FAFC462EEBD103B0F0BD4FF0FF3010
:1069A000FAE72DE9F0411C4690F8E430054616461A
:1069B00090B0E3B14B1E012B19D8002711E0A4EBD6
:1069C0000708B8F1400F28BF4FF040083246434651
:1069D0006946284600F03FFF414668460AF0A6F89F
:1069E0004037BC42EBD8204610B0BDE8F0812346CA
:1069F00032460448FDF7E4F8286810B0BDE8F041DD
:106A0000B0E700BF134F010870B51026002586B00F
:106A10000446FF230846009603AA05A9CDE90355BD
:106A20000595FDF788F938B942F20F73A0744FF05D
:106A3000FF30238206B070BD0598258203782C2B89
:106A400013D1FF23009604AA05A90130FDF773F9BD
:106A500058B1049B2382059B1A782C2A05D15B78B8
:106A6000A3F1430253425341A3740398E2E7F0B504
:106A7000D1E902234E6820495208042B054631F81B
:106A8000124089B003F1010711D802A93B463246F2
:106A900000F0E1FE194902A80CF0D2FEE8B924B1D9
:106AA00014F4806F0CBF02200120013010E0162B7F
:106AB00013D802A93B46324600F0CDFE104902A889
:106AC0000CF0BEFE48B92CB96FF000400D4B1C70A5
:106AD00009B0F0BD4FF0FF30FAE74FF4D2733A46F9
:106AE0003146094800932346FDF76AF82868FFF706
:106AF00039FF431CD9D1EBE7706C01082B4F01081B
:106B00002F4F0108941D0020454F01084B6810B518
:106B1000591E022904460AD96FF00042934206D05A
:106B20000448FDF74DF82068BDE810401AE7002042
:106B300010BD00BF624F0108F8B50B465E68D3E98F
:106B400002156FF000439E42044610D10E4E0F4FC7
:106B50003278C2F10504AC4228BF2C463A442346A1
:106B600000F09EFE3378281B23443370F8BD0A469C
:106B70002B460748711EFDF723F82068FFF7F2FE49
:106B80000028A8BF281AF1E7941D00207C6C01089A
:106B90006E4F010838B56FF000434D689D4209D033
:106BA000CC688A682346691EFFF7FBFE002800DBDD
:106BB000201A38BD4FF0FF30FBE708B501230A6803
:106BC0001946FFF7EEFE002008BD70B50E680546B9
:106BD00034462146284600F06DFF18B1284600F0E3
:106BE00017FE18B1A41B03D5002070BD0134F0E7D7
:106BF0002346324601212846FFF7D3FE201A18BF4C
:106C00004FF0FF30F1E710B50446496803480139F9
:106C1000FCF7D6FF2068BDE81040A3E6854F0108C9
:106C200038B56FF000430546D1E90104984208D118
:106C3000042C0B4B02D81C70002038BD05221A70A2
:106C4000FAE7411E002322460648FCF7B9FF2868F0
:106C5000FFF788FE201A18BF4FF0FF30EDE700BFA6
:106C6000941D0020924F010813B50B698A68013307
:106C700000930446CB68054849680132FCF7A0FF41
:106C8000206802B0BDE810406CE600BFA94F0108C3
:106C900010B504468A68044849680132FCF790FF41
:106CA0002068BDE810405DE6C94F010810B50446F4
:106CB0008A68044849680132FCF782FF2068BDE811
:106CC00010404FE6DD4F01086FF0004310B54968F2
:106CD0000446994290B01ED04022C36D013943F062
:106CE0000043C3650368DA60C3F808D0836E0C48BC
:106CF0001A68FCF765FF2068FFF734FEE36D079A1A
:106D000023F00043E365089B10431BBA05D143EA17
:106D1000E37010B010BD0520FBE74FF0FF30F8E73F
:106D2000F14F010830B5CB6D85B043F00043CB6522
:106D30000B6801AA9A600C220D46DA608B6E002265
:106D4000196804460D48FCF73BFF2868FFF70AFE68
:106D5000EB6D23F00043EB6530B1094B0FCB84E8BA
:106D60000F00204605B030BD029B1ABA039B19BA2A
:106D7000019BC4E900121BBAA360F2E701500108AD
:106D8000886C01081FB501466846FFF7CBFFDDE9B7
:106D900000320298411C05D1B2F1FF3F08BFB3F1A8
:106DA000FF3F0FD042F21072B3FBF2F3642202FBFA
:106DB0000030064B1A68824288BF18601B68C01AF0
:106DC00020F0004005B05DF804FB00BF8C100020EF
:106DD0001FB501466846FFF7A5FF029805B05DF8AC
:106DE00004FB37B504460D680AF02EF80023009026
:106DF00001936A4608232946204600F051FD40428F
:106E000003B030BD3F2313B58DF80730C36D026862
:106E100043F00043C3650DF107039360012304466B
:106E2000D360826E002112680948FCF7C9FE206811
:106E3000FFF798FD012818BF4FF0FF30E36D08BF42
:106E40009DF8070023F00043E36502B010BD00BFCA
:106E50006E4F010838B5094D0446A942134608D1C2
:106E6000074900F06BFE2046012100F082FD002062
:106E700038BD0A46034900F061FEF4E7260002002F
:106E80001B500108265001082DE9F04100F17C0754
:106E90000E4604463846D1F804800CF0E9FCB3688D
:106EA000451CAB4203D24FF0FF30BDE8F0812B46CA
:106EB0003A464146204600F0F3FC0028F3D1316801
:106EC0002A462046043100F0D1FD4042EDE71E285D
:106ED00007D890B1094B013880B2C34003F00100DC
:106EE00070475B2808D042F20F73984204D0A0F19B
:106EF0005803584258417047012070471BB1FD3C70
:106F000008B50968102300F1D00200F0C9FC404226
:106F100008BD7FB50A46104D0C7A06466968286898
:106F200001AB03C3A97A28899970188023094133DA
:106F30008DF80830D36841340A2B51688DF8094028
:106F400007D90B23304601AA00F0AAFC404204B046
:106F500070BD4FF0FF30FAE743500108013A302A84
:106F600050D8DFE802F01C1E242622203846282AAA
:106F70004F324B2E2C3436303A4F44494F3D4F4F11
:106F80004F4F4F4F4F414F4F4F4F4F4F4F4F4F4F1F
:106F90004F4F4F4F4F4D19004FF47A707047FFF726
:106FA00066BDFFF7B3BDFFF7C7BDFFF7F3BDFFF742
:106FB00004BEFFF70ABEFFF726BEFFF731BEFFF79C
:106FC00053BEFFF765BEFFF771BEFFF77DBEFFF74B
:106FD000D9BEFFF7FDBEFFF715BF0368188A7047DB
:106FE00000220968FFF736BF8A684968FAE7FFF7A9
:106FF0004BBF8888FFF76BBFFFF782BFFFF789BFE2
:10700000FFF7EFBE4FF0FF30704770B50D4600211F
:107010001646036886B004461022997402A80CF044
:10702000B3FA182D019605D010233246204602A946
:1070300000F011FC2A46204601A9FFF78FFF06B099
:1070400070BD00BF2DE9F0414FF008089EB0164614
:107050000DEB080300220D46CDF8008040F65A11D2
:107060000746B047042244490DEB08000CF062FAD1
:10707000044698B100201EB0BDE8F0810F9B01339B
:107080004DE00133042B4ED10024214658E04FF44B
:10709000807263E09DF80E309C42EBD8013404AB63
:1070A000E20040F65A113846CDF80080B0479DF80E
:1070B00017209DF8103043EA0223B3F57F4FE9D142
:1070C0009DF815209DF81630120242EA03429DF801
:1070D00013309DF814109B00402B28BF40230A4317
:1070E000009340F65A110EAB3846B047002309937F
:1070F0009DF93F309DF83F20002BBFDA9DF83D30D1
:107100009DF83E101B0243EA01439DF83C10120615
:1071100002F0FE420B431343012202FA03F3D808A4
:1071200000239DF839200EA901EB43014C7F9442C6
:10713000A7D101211EAA02EB430313F8243C994076
:107140009DF81230012B04D8A1D19DF81130042BE9
:107150009DD901229DF860301B099A40CDE9062196
:107160008DF8244008900AAC06AB0FCB84E80F00E2
:1071700085E80F0001207EE74E50010870B51446E7
:10718000054641F080001E4608F017FC2846E1B293
:1071900008F015FC23050DD5C6F30741284608F075
:1071A0000EFCC6F30721284608F009FC2846F1B278
:1071B00008F005FC0026C4F30224A64200D170BDED
:1071C0000021284608F0FBFB0136F6E71FB5002238
:1071D00001230C46009305218DF80F200DF10F03BC
:1071E000A0479DF80F0004B010BD2DE9F7460446F6
:1071F000924600251E46D0E90073A1EB0309B54273
:1072000003D3012003B0BDE8F086002206213846F2
:10721000236D98473846A16CFFF7D8FF10F00200A5
:10722000F0D0226C731B934294BF0093009241F6FE
:1072300002013846D4F84CC00AEB050305EB0902FD
:10724000E0473846A16CFFF7C1FFC307F9D4236CB0
:107250001D44D4E770B504460568036D0022284636
:107260000E46062198472846A16CFFF7AFFF10F0A5
:1072700002000FD0626894F844102846236DB21AB9
:1072800041F4006198472846A16CFFF79FFFC307B0
:10729000F9D4012070BDF8B50746DDE906460D4674
:1072A000FFF76CFF2644B44204D12846BDE8F840FD
:1072B00008F083BB0021384608F081FB04F8010B7D
:1072C000F1E7F8B50746DDE906460D46FFF756FF3C
:1072D0002644B44204D12846BDE8F84008F06DBB0E
:1072E000384614F8011B08F06AFBF2E710B50C46AB
:1072F000FFF744FF2046BDE8104008F05EBB2DE9D3
:10730000FF4106460F460120542190461D460BF0D2
:10731000A5FD044650B32A4669463046FFF792FE63
:1073200050B94FF480534FF48072CDE900232023ED
:10733000CDF808808DF80C30029B2146A360019B9C
:107340003046E3600B4B676063620B4B2362FF23A5
:10735000237600F0DBF9009BA56423649DF80C30D4
:1073600084F844300A9BE3640B9B2365204604B0F9
:10737000BDE8F081EB7100085572000873B5044652
:10738000C66E4FF4FA7101A8FDF70AFB636D204643
:107390009847002206212046336D98472046B16C5D
:1073A000FFF714FF10F0020505D12046A36D9847A2
:1073B000284602B070BD002260212046336D9847F8
:1073C0002046B16CFFF702FFC30703D42046A36D2C
:1073D0009847EEE701A800F0FDF9F1E710B5044683
:1073E00008B1036D2BB90848FCF702FC01242046C4
:1073F00010BD0648FCF7FCFB236D20469847044669
:107400000348FCF7F5FBF2E7535001087A500108F6
:1074100091500108022970B50546144611DD00227D
:10742000606811460BF062FE002206461146A06815
:107430000BF05CFE314602462846BDE8704000F085
:1074400040BC0548FCF7D4FB0448FCF7D1FB0448DA
:10745000FCF7CEFB012070BD97500108C550010814
:10746000FA500108012910B50C4606D0BDE81040BD
:1074700000F1E4015068FBF74DBB90F8E410054AB9
:10748000054B064800290CBF11461946FCF7E1FBE5
:10749000204610BD444601083C46010853510108EE
:1074A000F8B506460F460024064B1D680DB9204668
:1074B000F8BD013429463A462046B047D5F8E85091
:1074C000F4E700BF981D002038B50446A06E00B94F
:1074D00038BD85680BF0E6FCA566F7E738B50446CD
:1074E000E36E03B938BDD86ADD6B08B10BF0DAFC86
:1074F000E06E0BF0D7FCE566F2E710B50446FFF747
:10750000E3FF2046BDE81040FFF7E8BF10B53E4B53
:10751000B2B01B680393039B1BB93B4A136032B0A4
:1075200010BD039B394AD3F8E83008A80193002323
:1075300004934FF0FF3306931368309304AB13604A
:107540000CF070F918B3309B304A1360049B002B89
:1075500027D1039B1B68002B29D1039BD3F8EC3068
:10756000002B31D1039BD3F8E030002B34D1039BA7
:10757000186E0BF097FC0398FFF7BFFF039BDB6CC3
:10758000002B36D103980BF08DFC019BC2E7039BC7
:1075900093F86530002BD6D0039B03989B689847DF
:1075A000D1E74FF00002039B83F86520D1E7039BEE
:1075B0001B681B68002BD0D0039B039A1B680399A0
:1075C0001B6810689847C8E7039B039AD3F8F0300C
:1075D000D2F8EC009847C5E7039BD3F8E0309C68ED
:1075E000039BD3F8E0000BF05DFC039BC3F8E04085
:1075F000B8E7039BDB6C1C68039BD86C0BF052FC58
:10760000039BDC64BAE700BF981D00207C110020BA
:1076100070B504460C200D4616460BF03BFC58B1E5
:10762000D4F8E0304BB11A469B68002BFBD1906038
:107630000023C0E90065836070BDC4F8E000F7E78F
:1076400010B5F82101200BF009FC044680B10A4A6C
:1076500013687BB11A46D3F8E830002BFAD1C2F890
:10766000E84000232046054A05492366FFF7D0FF7E
:10767000204610BD1060F4E7981D002077510108E6
:10768000986C010838B5044600680D4610B12146D3
:10769000036898470120256008F08AF9636843B1C0
:1076A00020469847054620B908F082F92C46204626
:1076B00038BD012384F86530F9E7074B02461868A6
:1076C000012300B97047934201D1FFF7DBBFD0F827
:1076D000E8000133F5E700BF981D002070B50446AF
:1076E0000C201546049E0BF0D5FB20B1A36EC0E91B
:1076F00000568360A06670BD002307B5CDE9002366
:107700000A46FFF7EBFF03B05DF804FB0B690BB90A
:10771000CB680B610B690860B3F5007F9EBF4FF427
:107720008062B2FBF3F253434B61C36ECB63C1661D
:1077300070472DE9F04F88461546074629464046D2
:107740001F4A85B00BF05AFE0446BE6EDFF87490F7
:1077500008EB0400291BAEB9FF6EDFF86C90DFF870
:107760006CA008EB040B291BAFB95846184A0BF064
:1077700045FE013D2044854294BF0020012005B014
:10778000BDE8F08F73684A46009333680BF036FE0D
:10779000B6680444DCE7BB684A4600937B685846F9
:1077A00003910BF02BFE03990646FB68091A52461B
:1077B00058440BF023FE0644FF6B3444D1E700BF6E
:1077C0007E5101088B510108BF510108F451010895
:1077D0002952010810B50446FDF7EDF848B10548F7
:1077E000FCF706FA2046BDE810404FF4FA71FDF7A9
:1077F000D7B810BD6E670108836810B5044603B1A1
:107800009847002008F0D4F8002384F8653010BDB4
:1078100010B1C36803B1184700207047F7B5C76DB2
:107820000446002F0D46089E09DB05690DB1009640
:10783000A847204603B0BDE8F040FFF7E9BF036862
:107840002846DA689968B24228BF32460CF002F83E
:10785000002003B0F0BD07B500930023FFF7DEFF63
:1078600003B05DF804FB73B5C56D0446DDE906168B
:10787000002D0ADB456915B1CDE90016A847204661
:1078800002B0BDE87040FFF7C3BF0368DA689868CC
:10789000B24228BF32460BF0DDFF002002B070BDBF
:1078A00007B5CDE900230A460023FFF7DCFF03B04C
:1078B0005DF804FB08B538B1806F28B103490BF0BF
:1078C000F7FE003818BF012008BD00BF375201087D
:1078D00010B4846A14B1A44610BC6047204610BCA2
:1078E000704710B4C46A14B1A44610BC6047204667
:1078F00010BC7047036A2DE9F04105460E467BB186
:10790000BDE8F04118471B1B321928464F1CFFF7F2
:10791000DFFF39460444AB69A342F4D8BDE8F081E7
:1079200019461C46F7E7436A2DE9F04105460E4625
:107930007BB1BDE8F04118471B1B321928464F1C8C
:10794000FFF7CFFF39460444AB69A342F4D8BDE842
:10795000F08119461C46F7E7036B03B118477047DF
:10796000836B03B118477047C36B03B118471846C0
:107970007047036C03B11847704701327C300BF03D
:1079800069BF30B1C0F8D830C0E93412009BC0F8EC
:10799000DC3070472DE9F04106461C460F4615467F
:1079A00088B02022002168460BF0EEFD736CCDE913
:1079B00002548DF804702BB94FF00108404608B00E
:1079C000BDE8F08169463046984780460028F5D1E9
:1079D00020200BF05FFA07460028EDD005466C46E4
:1079E0000FCC0FC594E80F0085E80F00F36CF76427
:1079F0003B60E3E7F8B506460027C46C1CB94FF0BE
:107A0000FF352846F8BD2079884205D1A06890420C
:107A100002D1E068984202D027462468EEE7B36CB2
:107A200073B121463046984705460028E9D12368BE
:107A300027B9F36420460BF035FAE2E73B60F9E73B
:107A40000125DEE780697047C36903B1184718460E
:107A50007047002307B5019304230A460DEB030189
:107A6000FFF7F9FE019803B05DF804FB042307B5A6
:107A700001920DEB0302FFF713FF03B05DF804FB67
:107A8000002307B50A46ADF806300DF106010223C2
:107A9000FFF7E1FEBDF8060003B05DF804FB07B593
:107AA0000223ADF806200DF10602FFF7F9FE03B040
:107AB0005DF804FB002307B50A468DF807300DF189
:107AC00007010123FFF7C7FE9DF8070003B05DF82B
:107AD00004FB07B501238DF807200DF10702FFF71E
