:020000040800F2
:1000000000100020250C0008230C0008210C00081B
:10001000210C0008210C0008210C00080000000041
:10002000000000000000000000000000230C000899
:10003000230C000800000000230C0008D90200086F
:10004000210C0008210C0008210C0008210C0008DC
:10005000210C0008210C0008210C0008210C0008CC
:10006000210C0008210C0008210C0008210C0008BC
:10007000210C0008210C0008210C0008210C0008AC
:10008000210C0008210C0008210C0008210C00089C
:10009000210C0008210C0008210C0008210C00088C
:1000A000210C0008210C0008210C0008210C00087C
:1000B000210C0008210C0008210C0008210C00086C
:1000C000210C0008210C0008210C0008210C00085C
:1000D000210C0008210C0008210C0008210C00084C
:1000E000210C0008210C0008210C0008210C00083C
:1000F000210C0008210C0008210C0008210C00082C
:10010000210C0008210C0008210C0008210C00081B
:10011000210C0008210C0008210C0008210C00080B
:10012000210C0008210C0008210C0008210C0008FB
:10013000210C0008210C0008210C0008210C0008EB
:10014000210C0008210C0008210C0008210C0008DB
:10015000F7B5524E746814F00F044ED140F20230DD
:1001600000F019FD40F2033000F015FD4FF441702E
:1001700000F011FD40F2973000F00DFD40F2172025
:1001800000F016FD464F4FF4407000F004FD40F2C1
:10019000862000F000FD4FF4C0430222214638467D
:1001A00000F044FB4FF4C0433E4D3B6128464FF402
:1001B00000630222214600F039FB4FF40063AB825A
:1001C00025460094009B632B1CD9374F0DB3D7F8FD
:1001D000083C13F4006F40F2011318BF1C4614F0E2
:1001E000FE0F07D14FF48053304801220221838251
:1001F00000F01CFB204603B0F0BD736823F003033E
:100200007360A7E7BD68009BC5F3403501330093D9
:10021000D8E74FF4407000F0BEFC7B68234C43F0FD
:1002200000737B6002224FF400432946204600F011
:10023000FDFA4FF40043A3820195019B632B23D960
:1002400055B34FF40045174F4FF4004301220221EC
:10025000384600F0EBFA2B46012202211348BD82FA
:1002600000F0E4FAA58202247368022223F070638E
:1002700073607368032143F0C06373600B484FF4ED
:10028000807300F0D3FAAAE7D7F80858019BC5F3AA
:10029000C03501330193D0E70124E5E700100240A7
:1002A00000100140000C0140000001400008014026
:1002B00008B5022300211A46044800F0B7FA4FF0AF
:1002C000E0230022C3F8082D08BD00BF000801404C
:1002D00008B500F07FFC704738B50F4C2268A38842
:1002E0002AB91946BDE838400C4800F04BBCA2685A
:1002F00012F001020BD0094D00220221284600F025
:1003000095FAA388AB82A3680133A36038BD114678
:10031000024800F08BFAF6E7481000200008014080
:1003200038B5FFF715FF00280BBF4FF480724FF46C
:100330000072022301231D4C1D4D2060A280D5F8C0
:100340000028E380520611D502220021194800F04E
:100350006DFA42F21073E288C5F8102C013BD5F813
:10036000081CFBD10A4201D000F055F8002000F033
:1003700051F8114800F07EFB002000F039FC0F48D6
:1003800000F030FC00F03EFC00F043FC23680C4819
:10039000012B82BF4FF40042054BC3F8102800F038
:1003A00041F900F095F9002038BD00BF4810002049
:1003B00000000140000C0140C41D0008A0BB0D005E
:1003C000F01D000838B5064D20F47F742B6824F02A
:1003D0000304A34203D0204600F0EEF92C6038BDA0
:1003E00004100020F8B506460F4615460024AC421E
:1003F00003D3BDE8F840FFF76EBF6308A01937F8D4
:10040000131000F0A7F90234F1E741280CBF1420C3
:100410001B20704770470A4B0A4A1B6819680A403C
:10042000B2F1005F0AD14FF0E022C3F31400C2F82A
:10043000080D81F30888D3F804F0FEE7704700BF89
:10044000001000200000FE2F014BD3F80100704780
:10045000541000202DE9F0411D460B780E4603F0A4
:100460007F03212B63D14B781468013B052B5ED8A9
:10047000DFE803F0033D5F348E3BDFF820810DB1F0
:100480002B882BB9062388F800300120BDE8F081C5
:10049000CA788B78424F43EA0223A7F808342A88A7
:1004A00021463846A7F8002401F0E4FB73889BB985
:1004B0003B78212B10D1FFF7C7FF3A4B1B688342D3
:1004C00003D8D7F80C34834204D8012387F81034BA
:1004D0000A23D8E7C7F804040323D4E72F4B1A787C
:1004E0000A2AD2D102221A70CFE72C4BFAE72B4A04
:1004F0001178092917D84FF40973CB40DB0712D5BF
:100500007088274B81B2A3F80804092001291070D4
:10051000BBD9D3F80434023920462A8803EB812161
:1005200001F0A8FBB1E70122002100F021FC00202E
:10053000ACE71A4E3378062B22D00A2B23D0032B9C
:1005400011D0002000232370030AA3703378607059
:100550002371002363710623000CE070124A2B8084
:10056000069B1A6091E704233370FFF76DFF0C4A76
:1005700001461778B2F808243846FFF746FFE1E74E
:1005800007233370DDE7064B002093F81034DAE7D9
:10059000024B1B78237001232B8076E70810002084
:1005A0005410002000100020AD05000810B51A4CB2
:1005B0002378042B02D0072B2AD010BD00F0C8FAF4
:1005C0001649B1F80804C8B9FFF73EFF0A78412A76
:1005D0000FD1134A1268904203D3D1F80C249042F1
:1005E00005D30A232370BDE8104000F0BDBAFFF721
:1005F000E9FE00F0B9FA05232370DEE7D1F80434F0
:100600000238B1F8002403EB8020FFF7EBFEF0E79F
:10061000BDE81040FFF75CBE081000205410002019
:100620000010002030B585B0044600F081FA402863
:10063000034614BF0346802340F2E632A3F10801CB
:1006400091421F4828D9392280F8272080F8282095
:1006500080F829201B4D9B0203F10063C5F80C3480
:1006600000F040F84FF48063029305F211430193C8
:1006700004230093144B204603F1100203F11D01E3
:1006800000F01AFB7F222121104BC5F8140805B099
:10069000BDE8304000F016BC0A25B1FBF5F205FBC1
:1006A0001211303180F82910B2FBF5F105FB11224F
:1006B0003031303280F8282080F82710CAE700BF98
:1006C0000810002054100020F41C000855040008F5
:1006D00008B5034CD4F8140800F018FBFAE700BF83
:1006E00054100020104B10B5D3F8E827D3F8EC17BE
:1006F000D3F8F0370A4400210C481A4422FA01F3D7
:1007000003F00F0303F13004392C88BF373301F1B4
:10071000040194BF04700370202900F1FF30EDD173
:100720000022034B1A7210BD00F0FF1F7318002047
:100730006C18002038B5064DEC6800F0F9F9B0F5FA
:10074000007F84BFEB6C1C4304F0350038BD00BF54
:100750000020024038B504460D4600F00DFA00F0C6
:10076000E7F9B0F5007F124B17D9124A944214D919
:100770001A6D42F001021A65258000F0FDF900F0C3
:10078000D7F9B0F5007F0A4B0CD90A4A944209D92F
:100790001A6D22F001021A6538BD1A6942F0010291
:1007A0001A61E9E71A6922F001021A61F4E700BF51
:1007B00000200240FFFF070810B5044600F0DCF9F6
:1007C00000F0B6F9B0F5007F164B1BD9164A9442DB
:1007D00018D91A6D42F002021A655C651A6D42F072
:1007E00040021A6500F0C8F900F0A2F9B0F5007FE8
:1007F0000C4B11D90C4A94420ED91A6D22F0020208
:100800001A6510BD1A6942F002021A615C611A6928
:1008100042F040021A61E5E71A6922F002021A6109
:10082000EFE700BF00200240FFFF07082DE9F0417D
:100830004FF00F0C00250768466843FA05F4E407FB
:100840001CD5072D94BFBE46B646ACB24FEA840411
:100850008ABF203CA4B2A4B20CFA04F82EEA08081D
:1008600004F1020E02FA0EFE01FA04F44EEA040448
:1008700044EA0804072D94BF274626460135102D6B
:10088000DBD107604660BDE8F0810000062824D86F
:10089000DFE800F004090E13181D2000104B186843
:1008A000C0F3406070470E4B1868C0F3C0607047DB
:1008B0000B4B1868C0F340707047094B1868C0F3C1
:1008C00040407047064B1868C0F340007047044B27
:1008D000186AF9E7024B586AF6E70020704700BF34
:1008E00000100240024608B51046FFF7CFFF00286F
:1008F000FAD008BD06282AD8DFE800F0040A0F1451
:10090000191E2400124A136843F080731360704765
:100910000F4A136843F08063F8E70D4A136843F009
:100920008053F3E70A4A136843F48033EEE7084A3A
:10093000136843F00103E9E7054A136A43F0010332
:1009400013627047024A536A43F0010353627047CF
:1009500000100240034A536823F00303034353602B
:10096000704700BF00100240034A536823F470131D
:1009700043EA80435360704700100240034AD36A41
:1009800023F4706343EA0023D362704700100240EF
:10099000034AD36A23F4704343EA0033D3627047B7
:1009A00000100240034A536823F4803343EA0043B3
:1009B0005360704700100240034A536823F4003329
:1009C00043EA40435360704700100240034A5368B3
:1009D00023F4404343EA80335360704700100240E1
:1009E000034A536823F4605343EAC02353607047BB
:1009F00000100240034A536823F4E06343EA0023F3
:100A00005360704700100240034A536823F0F0031C
:100A100043EA00135360704700100240044B5A68C9
:100A200018B142F480025A60704722F48002FAE75B
:100A300000100240034AD36A23F00F030343D3623A
:100A4000704700BF00100240034AD36A23F0F0034E
:100A500043EA0013D362704700100240044BDA6A85
:100A600018B142F48032DA62704722F48032FAE739
:100A70000010024010B504464378012B0CBF032040
:100A80000420FFF737FFFFF72DFFA078FFF7BCFF2B
:100A9000E078FFF7AFFF2079FFF7A2FF6079FFF75B
:100AA00095FF207BFFF7BAFFA07900F047F8207888
:100AB000FFF75AFF6078FFF775FFE07901282DD91D
:100AC000FFF7B8FF207A08B1FFF7C8FF607A08B1D6
:100AD000FFF7BAFFA07A30B1FFF750FF0120FFF710
:100AE00009FFFFF7FFFEE07A30B1FFF751FF022068
:100AF000FFF700FFFFF7F6FE0020FFF7FBFEFFF712
:100B0000F1FE0220FFF726FF2269064B1A60626998
:100B1000054B1A60A269054B1A6010BDFFF74CFF28
:100B2000D0E700BF3C1000204410002040100020FF
:100B3000014BB3F8E007704700F0FF1F034A13684A
:100B400023F0070303431360704700BF00200240F7
:100B5000034B044A5A6002F188325A60704700BF62
:100B60000020024023016745024A136943F08003D5
:100B7000136170470020024008B5FFF7DBFDC30793
:100B8000FBD408BDC36801EA030221EA030141EA7C
:100B90000241016170470122430903F1804303F5DB
:100BA0000433196800F01F0082400A431A6070473E
:100BB0000122430903F1804303F50433196800F06F
:100BC0001F00824011431960196821EA02021A606D
:100BD000704700004FF0E023014AC3F80C2DFEE7F8
:100BE0000400FA054FF0E02320F07F405861704781
:100BF0004FF0E022136900F0040023F004030343E4
:100C0000136170474FF0E022136943F00203136150
:100C100070474FF0E022136943F0010313617047FE
:100C2000FEE7704738B51A4A1A4B1B498B421AD354
:100C300000211A4A93421BD34FF0E022D2F8143D10
:100C4000174C43F40073174DC2F8143DAC4212D355
:100C5000154C164DAC4212D3FFF762FB144C154DE8
:100C6000AC4210D338BD52F8040B43F8040BDDE757
:100C700043F8041BDEE754F8043B9847E6E754F8D2
:100C8000043B9847E6E754F8043B9847E8E700BF81
:100C90002C1E00080010002048100020941900208D
:100CA000241E0008241E0008241E0008241E00081C
:100CB000241E0008241E00082DE9F0411E4603688A
:100CC0001746054688469847069B079A0361002306
:100CD0004261BDF82020C0E900870283084AC0E9CC
:100CE0003C33C0F88020074AC0E93633C267064A61
:100CF000C0E93833C0F8EC50C6608267BDE8F081C7
:100D0000F10E00089D0F000821100008D0F8EC300B
:100D10005B6A184710B4D0F8EC40A468A44610BC35
:100D2000604737B50025044603684583DB792A46CA
:100D300029460095FFF7EEFFD4F8EC3029465B68B2
:100D400020469847236A1BB103B0BDE830401847DE
:100D500003B030BD10B4D0F8EC40E469A44610BC38
:100D6000604710B4D0F8EC40246AA44610BC604739
:100D7000D0F8EC301B691847D0F8EC309B69184765
:100D8000D0F8EC305B69184710B50268B0F8403015
:100D9000D17904468B42C26B11D90B460021FFF773
:100DA000D9FF022384F830302368DA79E36B1344E7
:100DB000E363B4F840309B1AA4F8403010BD002122
:100DC000FFF7C8FF94F84830C3F1030384F83030CC
:100DD000002384F84830A4F84030E363EEE72DE9BF
:100DE000F74F04460D46064600F1200900F1400A7F
:100DF00000F13C0700F14408D6F858B0BBF1000FF1
:100E00000AD02B7896F85D1096F85C200B409A4239
:100E100011D008364E45EFD1A36804F1400804F123
:100E20003C07A3B943463A462946204603B0BDE8ED
:100E3000F04F00F031BC53463A4629462046CDF8E3
:100E40000080D8470128E4D803B0BDE8F08FE66CF5
:100E5000002EE7D0297801F07F014029E2D14346F6
:100E60003A4629462046B0470128DBD8ECE710B5C2
:100E7000012200210446FFF77BFF002384F8303075
:100E800010BD70B50368B0F84020448FDB79A41A18
:100E90009C42A8BF1C46C16BA6B20A44334600213F
:100EA0000546FFF75EFF864205D02846FFF7DFFFC5
:100EB0004FF0FF3070BDB5F84030A0B21E44A5F829
:100EC0004060F7E770B50446002500F1580656F873
:100ED000350028B10135042DF9D14FF0FF3070BD38
:100EE00004EBC50484F85C1084F85D20A365F6E784
:100EF00038B500250446012229464564FFF740FF26
:100F0000638F9AB21AB194F93410A94230DA626947
:100F10002046E263A4F8403004F13401FFF75FFF9C
:100F200008B3638FB3B1B4F8402021689342C97904
:100F30000ED932B1B2FBF1F301FB1322B2FA82F205
:100F40005209204684F84820BDE83840FFF71CBF0E
:100F50000022F6E71A4619462046FFF7FBFE042357
:100F600084F8303038BD2046BDE83840FFF77FBFF9
:100F7000238B9342F7D36369A4F84050E36323685B
:100F80002946DB79204693422CBF0623052384F8AB
:100F900030302A46BDE83840FFF7F2BE10B590F871
:100FA00030300446062B13D0072B28D0052B22D136
:100FB000FFF767FF00280ADBB4F84020638F9B1A15
:100FC0002268D279934202DC062384F8303010BDC7
:100FD000FFF757FF0028FADB204604F13401FFF742
:100FE000FEFE38B1002320461A461946FFF7B2FE2E
:100FF0000423EAE72046BDE81040FFF738BF00238E
:101000001A461946FFF7ADFE002384F83030636CB2
:101010001BB1204604F13401984700236364D6E7EE
:1010200010B590F830300446032B07D0042B0ED0B7
:10103000022B23D1BDE81040FFF7A6BE07230022F4
:1010400080F830301146BDE81040FFF799BE436C80
:1010500013B100F13401984794F8343053B994F83F
:101060003530052B06D1E18ED4F8EC3020465B6894
:10107000C9B29847002384F8303010BDBDE8104055
:10108000FFF7F5BE08B50B7873B949887F2909D8F1
:10109000D0F8EC30C9B2817693F830200AB15B68A1
:1010A00098470123184608BD0023FBE7F8B50D4615
:1010B0004988044679B103680D26587C002398427C
:1010C00001D80020F8BD626806FB032252798A42EB
:1010D00003D00133F3E74FF0FF330133DBB2E376A4
:1010E0004BB9D4F8EC302046DB689847D4F8D830B8
:1010F0009BB90120E6E70D22534362680D3B1A4479
:101100000023184611799942EBD9D2F809101E0133
:10111000715801B108700133F4E7002304F1D406DB
:10112000A3652366A366236704F1E40756F8043F2A
:1011300013B1204669889847BE42F7D1D9E719888C
:10114000012984BF01211980C37E11682BB1426837
:101150000D2000FB032313F8083C01200B7070479F
:1011600070B51C460D23C27E5A4343680D3A1344A2
:101170001D798A88954219D9D3F80950160105EBD3
:1011800002124B8812799A4210D9AA5952B113709F
:10119000D0F8E83013B14A888988984700230120A5
:1011A000238070BD002BF3D01046FAE70020F8E74B
:1011B00030B50D25C47E40686C430D3C20448D88BD
:1011C0000479A5420CD201241C808B88D0F8090038
:1011D0001B011B5803B11B7801201268137030BD2E
:1011E0000020FCE719880120022984BF0221198010
:1011F000002311680B7012685370704710B51446C5
:101200001A88022A84BF02221A808988C9B2FFF78D
:10121000B3FD003818BF012000222368187023682E
:1012200001205A7010BD08B589880122C9B2FFF7A4
:101230009FFD012008BD08B589880022C9B2FFF7CB
:1012400097FD012008BD00002DE9F04F9B464B881B
:101250001746DEB21B0A032B354689B000F05581D4
:1012600005D8012B2AD0022B36D0002031E00F2BDD
:10127000FBD18468002CF8D0002EF6D1D0F8149061
:10128000BBF80070C2F8009094F800802146B84581
:1012900028BFB8464846424600F0ECFC2378A7EB4E
:1012A0000807BFB201936B0122790293EBB29A4215
:1012B00000F2E380019BA9F80230EAE003681360C2
:1012C0001B78BBF80020934228BF1346ABF80030D0
:1012D000012009B0BDE8F08F4369476813600393AC
:1012E0000D235E43BBF80040BD5DBB19A54228BF7E
:1012F000254619462A460398059300F0BBFC0022B8
:10130000039B641BBE5D2B44A4B20292059A117923
:10131000BDF80820914204D8039B5E80ABF80050D2
:10132000D6E7029A029912010692059AD2F809208C
:1013300002EB0112D2F80880B8F1000F13D098F830
:1013400000701846A74228BF274641463A4600F09B
:1013500091FC034698F80020E41B3B4432442F44A0
:10136000A4B2BDB296B200220492059A0699D2F8B0
:1013700009200A441079BDF81010884202D8029A58
:101380000132C2E715200499D2F80C8000FB01F766
:1013900018F8079008EB0702A14528BFA146184698
:1013A000019208EB07014A4600F064FC034618F876
:1013B0000720A4EB0904324496B2019A4B44D2F8B8
:1013C0000D10A944A4B21FFA89F5A9B1D2F8118071
:1013D0001846A045A8BFA0461FFA88F73A4600F075
:1013E00049FC0346019AE41BD2F811203B443244E5
:1013F0002F44A4B2BDB296B20027019A1179BAB2B5
:10140000914202D8049A0132AEE7019AC7EB07195C
:10141000D2F809A018461AF809200AEB0908A242D6
:1014200028BF22464146079200F024FC0346079A53
:10143000D8F80710A41A13442A4495B21AF80920C0
:10144000A4B2324496B2B1B1D8F80BA01846A24566
:10145000A8BFA2461FFA8AF94A4600F00BFC0346D1
:10146000D8F80B20A4EB09044B443244A944A4B29D
:101470001FFA89F596B20137BFE7D4F80530029A12
:10148000039303EB020A9AF80230052B08D04FF0C1
:101490000008B8F1000018BF0120ABF8008018E781
:1014A000142F3E4628BF142609EB0803184632467F
:1014B0005146049300F0DEFB102243490AF1040078
:1014C00000F0C8FB049BF0B9BA1B92B2082A28BFEF
:1014D000082204929819DAF8141000F0CBFB049A51
:1014E0001644B6B2DDE902239B5C019A1A4493B21A
:1014F00001930EB9002FCAD1BF1B4644BFB21FFAD9
:1015000086F80135CFE60026ECE746697DB9092368
:10151000B3700423F3703370BBF80030042B28BF82
:101520000423ABF80030032373703E60D0E6D0F89C
:10153000F030AB421CD1D0F8F440204600F0A8FBBC
:1015400001304000C0B23070BBF80030834228BF89
:101550000346ABF800300023BBF800205208013AE4
:101560009A42E0DDE15C06EB430251800133F3E790
:10157000C468013D002C3FF478AE0369AB427FF7AD
:1015800074AE40F209438A889A427FF46EAE54F8F2
:101590002540204600F07CFB01304000C0B2307096
:1015A000BBF80030834228BF0346ABF8003000236D
:1015B000BBF800205208013A9A42B4DDE15C06EB28
:1015C000430251800133F3E7E01D00081988012030
:1015D000022984BF02211980002311680B70126850
:1015E0005370704730B44C78092C12D8DFE804F0FF
:1015F00005111111110D0F11090B074CA44630BC38
:101600006047064CFAE7064CF8E7064CF6E7064C4E
:10161000F4E7002030BC7047E51100083F110008D6
:10162000AD100008851000084912000810B44C786D
:101630000A2C06D00B2C06D03CB9054CA44610BC95
:101640006047044CFAE7044CF8E7002010BC7047F0
:10165000CD150008B11100086111000810B44C78D4
:10166000012C05D0032C08D074B1002010BC7047A9
:101670004C88002CF9D1054C03E04C88002CF4D1A7
:10168000034CA44610BC6047024CFAE7371200082E
:1016900027120008FD11000810B40C7814F0600F38
:1016A0000FD104F01F04012C05D0022C06D044B940
:1016B00010BCFFF797BF10BCFFF7B8BF10BCFFF717
:1016C000CDBF002010BC704708B540F29730FFF73F
:1016D00062FA0022064B0748C3F8402CC3F8502C8E
:1016E000C3F8442C4FF41C42C3F8402C08BD00BF83
:1016F00000500040781800200132521001EB4202E5
:10170000914200D1704731F8023B40F8043BF7E7C3
:10171000034670B502F00104520801EB8205A942AC
:1017200004D114B10B7800F8123070BD31F8046B9D
:1017300023F8026BF3E70000024B41F08001C3F88D
:101740004C1C7047005000403E2A14D9013AC2F3A5
:10175000441302F4787202F1200043F02003094A96
:101760009B02D2F8502C9BB292B202EBC101064A06
:101770004900535070470132530822F0010290B2E1
:10178000EDE700BF005000400C6000402DE9F34140
:1017900006464FF0C060444C01F07F08CDE90040A0
:1017A0004FEA880404F1804404F5B844206802AD8F
:1017B00020F4E04020F07F0040EA080080B2206082
:1017C000206805EB420232F8082C20F4EC4020F0AF
:1017D0007000104349B280B20029089F20604FEA90
:1017E000C8022ADBB8F1000F27D03049B58BD1F8F9
:1017F000501C304689B20A442D4952008D501A4679
:101800004146FFF7A1FF002F47D12368054423F489
:10181000415323F030031B041B0C2360236823F483
:10182000804323F070039BB283F4405343F400439E
:1018300043F080032360B5832CE01C48B6F81CC03D
:10184000D0F8500C80B21044400000F1804000F508
:10185000C040C0F800C01FB10C2000FB08608767C3
:1018600020689C4420F4E04020F030000004000C8C
:101870002060256825F4E04525F04005ADB285F0EF
:10188000200545F4004545F080052560A6F81CC0FC
:101890000029AAD002B0BDE8F0810C2303FB086840
:1018A000C8F87C70B1E700BF00020004005000409F
:1018B0000860004048F2800170B50B4A0B4E0C4D99
:1018C0000C4C136833400B439BB2136013682B40DE
:1018D0000B439BB242F8043BA242F2D10368DB798E
:1018E00020335B00838370BD045C0040BF8FFFFF2B
:1018F0008FBFFFFF205C004010B599BB002A0CBFD2
:10190000202410242A48D0F8003C23F4E04323F09C
:1019100040039BB2634043F4004343F08003C0F8AC
:10192000003C890001F1804101F5B8413AB90B68EA
:1019300023F4415323F030031B041B0C0B60002ADB
:101940000CBF4FF440524FF480520B6823F4804395
:1019500023F070039BB2534043F4004343F08003F1
:101960000B6023E00B06DCD5002A0CBF20221022DE
:1019700001F07F034FEA830303F1804303F5B8438B
:10198000196821F4E04121F0400189B282EA0102A4
:1019900042F4004242F080021A6007D11A6822F431
:1019A000E04222F030021204120C1A6010BD00BF97
:1019B000005000400B060ED501F07F01890001F1B7
:1019C000804101F5B841086800F03000102814BFCC
:1019D000002001207047890001F1804101F5B841E4
:1019E000086800F44050B0F5805FF0E70B0612D4B1
:1019F0000B4B0C485A54890001F1804101F5B84164
:101A00000B6803409BB23AB183F4005343F40043A4
:101A100043F080030B60704783F44053F6E700BF48
:101A20008C1900208FBFFFFF08462DE9F0411E46AC
:101A300000F07F039D0005F1804505F5B84511468E
:101A40002A6802F03002302A2CD0DFF85C8032465F
:101A5000D8F8504CDF00A4B204EBC304640004F1D6
:101A6000804404F5C0442088400000F1804000F527
:101A7000C040FFF741FED8F8503C9BB21F440B4BCF
:101A80007F00DE51296821F4E04121F0400189B254
:101A900081F0300141F4004141F08001296030467D
:101AA000BDE8F0810026FAE70050004004600040E5
:101AB000F8B58D0005F1804505F5B8451C462B6845
:101AC0000E4603F44053B3F5405F10463FD0214F1C
:101AD000CA00D7F8503C9BB203EBC1031E495B0020
:101AE000CB58C3F30903A34207DAD7F8503C9BB2A3
:101AF00013445B00CC58C4F30904164BD3F8503C94
:101B00009BB21A44154B5200995A2246490001F1E2
:101B1000804101F5C041FFF7FBFD2B6823F0F00386
:101B20001B051B0D43F080032B600D4B9B5D63B9C0
:101B3000296821F4804121F0700189B281F440517B
:101B400041F4004141F0800129602046F8BD0024A5
:101B5000FBE700BF005000400C6000400860004000
:101B60008C190020F8B53A4B0446D3F8446C77053D
:101B700009D54FF6FF32C3F8442C40238383BDE8D8
:101B8000F840FFF7CEB835041ED506F00F07BD00AC
:101B900005F1804505F5B84516F010022B683CD0DC
:101BA000190542D500F1340208233946FFF780FFBA
:101BB000022207EB470313441E3354F82330002B53
:101BC00035D0394620469847320507D54FF2FF7287
:101BD0001F4BC3F8442C636A03B19847F30407D53D
:101BE0004EF6FF721A4BC3F8442CA36A03B1984710
:101BF00016F4007FE36A164D05D04FF6FF52C5F884
:101C0000442CEBB19847E36AD3B1114AD2F8403C77
:101C100043F40073C2F8403CF8BD23F0F0031B0509
:101C20001B0D43F400432B60C3E70122C1E72B687F
:101C300023F0F0031B051B0D43F080032B60C3E76B
:101C4000D5F8403C23F40073C5F8403CE4E700BFFE
:101C50000050004010B501390244904201D10020EB
:101C600005E0037811F8014FA34201D0181B10BD05
:101C70000130F2E70A44914200F1FF3300D170478E
:101C800010B511F8014B914203F8014FF9D110BD85
:101C9000034613F8012B002AFBD1181A01387047AC
:101CA000426C61636B204D616769632044656275B6
:101CB0006700426C61636B204D61676963205072FD
:101CC0006F626520444655202853542D4C696E6B35
:101CD0002F7632292076312E31302E302D3132328E
:101CE000342D6766313231326338382D646972744D
:101CF00079000000A01C0008B21C00086C1800202D
:101D00000910002009020000010100C032241D005A
:101D1000081201000200000040501D176000010180
:101D200002030100000000000100000000000000AC
:101D3000341D00080904000000FE01020400000038
:101D400000491D00080900000009210BFF000004E4
:101D50001A0100000401000400020200000000005B
:101D60000000000000A24A040051250200A24A041B
:101D70000701000400020201000000000000000052
:101D800000A24A040051250200A24A0407010004EF
:101D900000020204010406000000000000A24A0440
:101DA0000051250200A24A040101000000000000C9
:101DB000000000000000000000366E0100366E01D9
:101DC00000366E010701000400030200000000005D
:101DD0000000000000A24A040051250200A24A04AB
:101DE000DF60DDD88945C74C9CD2659D9E648A9F83
:101DF000C9160008391700088D170008B518000823
:101E0000F9180008ED190008B5190008291A00088A
:101E1000B11A0008651B0008000000000000000067
:041E200000000000BE
:081E24006CFEFF7F01000000CD
:101E2C0000200008FFFFFFFF0240496E7465726ED0
:101E3C00616C20466C6173682020202F307830381C
:101E4C003030303030302F382A3030314B612C303C
:101E5C0030302A3030314B670000000000127A001D
:081E6C0000127A0000127A0056
:0400000508000C25BE
:00000001FF
