:020000040800F2
:1040000000100020A92F0108A72F0108A52F0108E3
:10401000A52F0108A52F0108A52F01080000000009
:10402000000000000000000000000000A72F0108B1
:10403000A72F010800000000A72F0108272401086E
:10404000A52F0108A52F0108A52F0108A52F0108FC
:10405000A52F0108A52F0108A52F0108A52F0108EC
:10406000A52F0108A52F0108A52F0108A52F0108DC
:10407000A52F0108A52F0108A52F0108DD2601089D
:10408000E915010891150108A52F0108A52F0108C0
:10409000DD1E0108A52F0108A52F0108A52F010885
:1040A000A52F0108A52F0108A52F0108A52F01089C
:1040B000A52F0108A52F0108A52F0108A52F01088C
:1040C000A52F0108A52F0108A52F0108A52F01087C
:1040D000A52F0108A52F010865150108A52F0108C6
:1040E000A52F0108A52F0108A52F0108A52F01085C
:1040F000A52F0108A52F0108A52F0108A52F01084C
:10410000A52F0108A52F0108A52F0108A52F01083B
:10411000A52F0108A52F0108A52F0108A52F01082B
:10412000A52F0108A52F0108A52F0108A52F01081B
:10413000A52F0108A52F0108A52F0108A52F01080B
:10414000A52F0108A52F0108A52F0108A52F0108FB
:10415000012910B51346074C05DD002258681146A9
:1041600010F0CEF920602168034801F0B4FB012073
:1041700010BD00BF001000207C53010808B5064B9D
:10418000196821B1054801F0A6FB012008BD0448CB
:1041900001F070FBF9E700BF88150020BE5501084B
:1041A000AB5301080129134610B512DD00225868EF
:1041B000114610F0A5F9044604F0D4FC01200CF0DF
:1041C00011FE20460EF022F900200CF00BFE01201B
:1041D00010BD0024F0E708B5054B00215B68012005
:1041E0009847002211461046FFF7DCFF012008BD6A
:1041F0003019002010B5094801F03CFB084801F0D7
:1042000039FB0021074804F077FC044620B9064832
:1042100001F030FB204610BD0120FCE7B753010838
:10422000CB5301082D420008DB5301082DE9FF4163
:1042300091F865300F6F002B06460D468C6F38469F
:1042400014490CBF4FF020084FF02A0810F0D6FC9C
:1042500098B91149B5F8F430002C08BF0C46B5F8F0
:10426000F6203146CDE90124009342463B460B48F7
:1042700001F031FB04B0BDE8F081074B4246002C51
:1042800008BF1C4631463B460548009401F023FB1D
:10429000F0E700BFF5530108375701080254010841
:1042A000365401080229134613B518D10022586864
:1042B000019201A90A2210F023F9019C2CB910489F
:1042C00001F009FB204602B010BD23784D2B10D021
:1042D0006B2B02D14FF47A7358430EF0D7F80EF0DF
:1042E000EFF8431C014606D1064801F0F4FA01201C
:1042F000E9E7054BF0E7054801F0EDFAF7E700BF05
:10430000465401088A54010840420F00AB5401088A
:1043100010B5B0B00CF02EFE01462E4801F0DBFACD
:104320002D4B1B78002B30D14FF0FF32002304922D
:104330002A4A06A8116802932E9102A911600193DE
:1043400010F04EFC28B903F0CFFC044608B301235B
:104350000193224B2E9A1A60029B33B1012B26D077
:10436000022B02D11E4801F0B6FA019B83F0010432
:1043700013BB00200CF04CFE00200CF033FD19485C
:1043800001F078FA002030B010BD01200CF02AFDB9
:10439000CAE7154801F06EFA204603F093F9044687
:1043A0000028D4D1114801F065FA0194D1E70399AE
:1043B0000F4801F090FAD8E7224621462046FFF741
:1043C00019FF20460CF024FE2046214601F0A2FBF6
:1043D0000120D8E7CF540108681100206C1100209B
:1043E0002855010865550108E35401080C550108DA
:1043F000565501081346002210B50129B2B00392A8
:1044000004DD1146586810F07BF803900CF0B2FD03
:104410000146274801F05FFA264B1B78002B30D16C
:104420004FF0FF3200230692234A08A81168049334
:10443000309104A91160019310F0D2FB18B90398D0
:1044400003F040F901901C4B309A1A60049B33B181
:10445000012B1AD0022B02D1184801F03CFA019B23
:1044600083F0010414F0FF0414D000200CF0D0FD00
:1044700000200CF0B7FC124801F0FCF9002032B02B
:1044800010BD01200CF0AEFCCAE705990D4801F003
:1044900022FAE4E7224621462046FFF7ABFE2046FB
:1044A0000CF0B6FD2046214601F034FB0120E6E782
:1044B000CF540108681100206C1100202855010814
:1044C000785501085655010810B5B0B00CF052FDF2
:1044D0000146274801F0FFF9264B1B78002B2FD10E
:1044E0004FF0FF3200230492234A06A8116802937A
:1044F0002E9102A91160019310F072FB10B903F024
:10450000F3FB01901C4B2E9A1A60029B33B1012BD6
:104510001AD0022B02D1194801F0DDF9019B83F07A
:10452000010414F0FF0414D000200CF071FD0020F1
:104530000CF058FC124801F09DF9002030B010BD7D
:1045400001200CF04FFCCBE703990E4801F0C3F9B2
:10455000E4E7224621462046FFF74CFE20460CF0B9
:1045600057FD2046214601F0D5FA0120E6E700BFBD
:10457000CF540108681100206C1100202855010853
:104580008A5501085655010870B5044638B10368CC
:104590001B6823B9204604F013FE012070BD0848B3
:1045A00001F068F9074D084E296811B9002CF1D1C6
:1045B000F3E7AA68304601F08EF90C35F4E700BF46
:1045C000A4550108AC760108B755010808B508489C
:1045D00001F050F90CF000FC0146064801F07BF9AF
:1045E000054801F047F9054801F044F9012008BDEC
:1045F000C2550108FE550108155601084856010824
:104600002DE9F3411446054630B91A4801F032F954
:10461000012002B0BDE8F081052926D11022002139
:1046200060680FF06DFF102206460021A0680FF0B1
:1046300067FF102207460021E0680FF061FF10229B
:104640008046002120690FF05BFF044643463A464E
:1046500031460090084801F03EF943463A4631465B
:104660002846009404F0B9FCD2E70449044801F05C
:1046700032F9CDE798560108A6560108EF56010811
:10468000BE5501082DE9F0470E4682B0054600AF41
:10469000084610F0CBFA32460123304482421CD146
:1046A00000249B00073323F00703ADEB030D3046D6
:1046B00021493A1D7C60E84610F0D4F91E4EA0B99D
:1046C0001E4ED6F80090B9F1000F17D18DB34246B7
:1046D0002146284604F034FD19E012F8011B202978
:1046E00001D00929DAD10133D8E748F8240031464E
:1046F00000203A1D10F0B6F90134E0E75CB94246FB
:10470000214628467368984780F00100C0B20837F8
:10471000BD46BDE8F087D8F800A0504610F086FAF4
:1047200049460246504610F063F90028E7D00C369F
:10473000C7E74FF0FF30EAE735570108AC760108CC
:1047400070B506460D4610F071FA044688B102466F
:104750000A49304610F04CF918B901232B7001209A
:1047600070BD22463046064910F042F908B928705B
:10477000F5E7044801F07EF80020F1E7385701081A
:104780003F570108475701082DE9F7434FF000084C
:1047900001290D4616468DF8078078DD50680DF129
:1047A0000701FFF7CDFF044630B93C4801F062F83D
:1047B000204603B0BDE8F0839DF80730002B66D09B
:1047C000022D05F1FF374CD0B0680378303B092B40
:1047D00047D8424641460FF093FE314B00288046B1
:1047E0004FF0020508BF9846AF424BDD043656F83D
:1047F0002540204610F01AFA2A490246204610F0B9
:10480000F7F8044600283DD1012D0CBF02230323F5
:104810009F4239DD4FF001090135BD4225D32146C4
:1048200040460DF0A3FF0DF0DDFE01461E4801F0ED
:1048300052F81E4801F04FF81F251D4E24FA05F1CD
:10484000304601F0010101F046F8013DF6D2194869
:1048500001F041F803221849184801F03CF80124FE
:10486000A6E70125DFF83880BEE7002256F82500CC
:1048700011460FF045FE1F289CBF09FA00F00443C3
:104880000135CAE70024CAE74FF0FF34C7E70DF04F
:10489000ABFF0B4800F0EEFFE1E700BF78570108DF
:1048A00010552200B8570108BF570108CE5701081C
:1048B000DD57010896560108F41B0020E157010856
:1048C0000D580108012908B50CD0022906D10B4961
:1048D0005068FFF735FF28B9012008BD084800F0EF
:1048E000C9FFF9E7054B074A1978074B0748002924
:1048F0000CBF1146194600F0EEFFEDE768110020ED
:104900002E580108255801081D5801084B58010868
:104910002DE9F04FDFF8E0B01C46DBF80830ADF2CF
:104920000C4D43F00103CBF8083007468A46904609
:104930000DF0A6FD0026814624F00305AE4220D3EB
:104940002D4B641B1E6818D02346384605EB080221
:1049500002A904F0ACFA80BB284D02AB13F8012B7E
:1049600086EA02660822002E4FEA4606B8BF6E406D
:10497000013AF8D101308442F0D10120CAF8006038
:104980001CE00DF07DFD09F57A72824206D201909D
:10499000012100200DF084FC019B9946AB1BB3F56F
:1049A000806F28BF4FF48063384606EB080202A9E7
:1049B000019304F07CFA019B20B100200DF20C4D14
:1049C000BDE8F08F02AA517892F800C0090441EACC
:1049D0000C6192F803C0043041EA0C0192F802C065
:1049E000834241EA0C21CBF8001002F10402EAD81C
:1049F00006F58066A2E700BF00300240B71DC10483
:104A000086E700BF0A4A38B513680BB90FF028FCD7
:104A10009D68D3F8B040284207D0C3E900010146A1
:104A200003F11000146010F0E1F82346EDE700BF39
:104A30006C1100200846114600F03ABF38B50B4C07
:104A40000D4623688B420AD10921094800F0CEFEA9
:104A5000084800F00FFF0023236001232371A3689F
:104A6000AB4204BF0023A36038BD00BF701100201B
:104A70006E5B0108785B01080321014800F076BEF7
:104A8000A85B010810B5027803463F2A05D10D2125
:104A90000D48BDE8104000F069BE0C4C206810B90C
:104AA00003210B48F5E75B78632B03D0732B09D008
:104AB000432B06D1002104F088FA0123054A237311
:104AC000137010BD0121F6E7AC5B010870110020E6
:104AD000BA5B0108181C002008B5012000F04AFD4F
:104AE000BDE808400221014800F040BEBE5B01085D
:104AF00010B5064C206840B104F05AFA206804F062
:104B0000A7F92368A3600023236010BD7011002063
:104B100008B5FFF7EDFFBDE808400221014800F0AD
:104B200025BE00BFBE5B010813B51024009400F041
:104B300044FF02B010BD1FB500242C236A4602A911
:104B40000294FFF7F1FF68B1FF232146029801AA02
:104B5000FFF7EAFF30B10B4B186828B903210A4868
:104B600000F004FE04B010BD03A9DDE90023FFF747
:104B700047FF10B903210548F2E70399044800F004
:104B800061FEEFE770110020BA5B0108C15B01080C
:104B9000C55B010808B5002000F0ECFCBDE808404A
:104BA0004FF48061014800F04DBE00BFCA5B0108B0
:104BB000F0B585B00F46064610F038F800250446DB
:104BC0002C23384601AA03A9CDE901550395FFF727
:104BD000ABFF30B1FF232946039802AAFFF7A4FFD9
:104BE00028B903210B4800F0C1FD05B0F0BD019AC2
:104BF000A242F6D802D101210748F4E70299A31A8C
:104C00008B4228BF0B4605480121324400F060FD6D
:104C1000EBE700BFBA5B0108EC610108196301080A
:104C20002DE9F0414C0804F1080323F0070300AF1D
:104C3000ADEB030D6B4600256E4601462246184635
:104C40004FEAD30800F085FE0D4B3146186804F892
:104C50003850FFF717FDA84206DA2946094800F048
:104C600085FDBD46BDE8F08102D102210648F6E788
:104C700084B006490722684600F041FE0E21EEE7A7
:104C80007011002037570108BE5B0108145C010851
:104C90002DE9F0410746884615462C68204674B138
:104CA0000FF0C4FF21460646024638460FF0A0FE2C
:104CB00038B9B8196B68A8EB060198470120BDE820
:104CC000F0810835E9E7002373B50D4601936A4684
:104CD0003A2301A90446FFF727FF90B10A4E019A33
:104CE000306858B1131B0099EB1A04F073FB28B11C
:104CF0000221064800F03AFD02B070BD306804F0B1
:104D00000BFC03210248F5E770110020BE5B01088F
:104D10001C5C01081FB500242C2301AA03A90394DD
:104D2000FFF702FF48B1FF232146039802AAFFF7CD
:104D3000FBFE10B10A4C206810B90321094806E0B7
:104D4000DDE9011204F0E9FA28B10221064800F079
:104D50000DFD04B010BD206804F0DEFBEDE700BFE0
:104D6000701100201C5C0108BE5B010811B10378C2
:104D70003A2B02D0064B1B681BB90321054800F0F3
:104D8000F5BCDB6D0121DB074CBF03480348F6E7A8
:104D900070110020BA5B0108BC5B0108765B01085A
:104DA00010F80B3C662B06D1044B1B681BB102218B
:104DB000034800F0DBBC01210248FAE77011002033
:104DC000205C0108EC61010810B5084C237933B16F
:104DD0000321074800F0CAFC0023237110BD022103
:104DE000BDE81040034800F0C1BC00BF70110020B6
:104DF000745B0108BE5B010838B50D4B05461868A9
:104E000038B9986828B90321BDE83840094800F04E
:104E1000ADBC04F045F9041E2946074818BF2046DA
:104E2000FFF7C6FE2046BDE838400FF045BA00BF88
:104E300070110020BA5B01083757010810B50E4BFE
:104E400004461868ADF5806D48B9986838B90321F3
:104E50000A480DF5806DBDE8104000F087BC4FF4A6
:104E60008062694603F091FF21466846FFF7A0FE85
:104E70000DF5806D10BD00BF70110020BA5B0108F8
:104E800008B5074B186804F047FB28B10221054814
:104E9000BDE8084000F06ABC03210348F8E700BF02
:104EA00070110020BE5B01081C5C010807B5FF23E0
:104EB000002101AAFFF738FE0146A0B10B49019875
:104EC00003F027FF0A4B186050B10021084600F09C
:104ED00021FE0C21074800F049FC03B05DF804FBFB
:104EE00003210548F7E70548F5E700BF0410002057
:104EF00070110020235C0108BA5B010837570108D4
:104F0000F0B505460024037897B03B2B08BF013568
:104F10002B78DBB9002204F158036B4403F8542CBE
:104F20004FF0FF32344D354B2E681A60002E4CD0B6
:104F30003046224601A904F04CF8286804F038F8FD
:104F400003212F4800F012FC17B0F0BD502C04F1E3
:104F5000010638D004F158023B2B0DEB020705D1B6
:104F60002023013507F8543C3446D1E7A3F1300241
:104F7000092A04D923F02003413B052BCAD86B78BA
:104F8000A3F13002092A04D923F02003413B052B69
:104F9000C0D801AB18190222294600F0DAFC17F834
:104FA000543C202B01D05C2B0AD14F2CB2D006F1FF
:104FB00058026A4402F8543C5C23344607F8543CD7
:104FC000661C0235D0E75024A4E7A86880B10D49DB
:104FD00003F084FE286058B101A9224603F0F9FFCE
:104FE000286803F0E5FF3146304600F093FDA7E75F
:104FF00003210548A6E700BF701100207C100020A7
:10500000305C010804100020BA5B01082DE9F04172
:1050100088B0904600220D7802AF7A2D1E460C46CD
:1050200097F830303A6000F2DE813E2D06D8042D2C
:1050300000F06B81212D00F0BD80D4E13F3D3B2D80
:1050400000F2D181DFE815F00301CF01CF01CF01DC
:105050003C006101CF015B01A000EC00CF01CF015A
:10506000CF01CF01B900CF01CF012E01C7017B01D4
:10507000CF01CF01CF01CF01CF01A601CF01D401D4
:10508000CF01CF01CF01CF01CF01CF01CF01CF01A0
:105090003C00CF01CF01CF014500CF01CF01CF01AF
:1050A0007801CF016C00CF01CF010C01C7017B015A
:1050B000FC00CF01CF01D201CF01CF01CF01D4013C
:1050C0000021AA4B1868002840F0BC800321A848A2
:1050D00006E0DFF89882D8F8000040B90321A5481F
:1050E00000F044FB00201837BD46BDE8F08103F016
:1050F000D5FF054688B1C31D23F00703ADEB030DB3
:1051000002AE3146D8F8000003F020FF2A463146AF
:10511000204600F0F4FB6900E2E702219648DFE751
:10512000924E3368002BD9D02C23394607F10C025C
:10513000601CFFF7F9FC0028D0D0FF23002138685D
:1051400007F11002FFF7F0FC0028C7D03B69B3EB72
:10515000580F02D903218948C2E7DA1D22F007025D
:10516000ADEB020D02AD2946FA68306803F09FFEF0
:1051700010B103218248B3E7294620463A6900F07E
:10518000BEFB39694900ABE7784D28680028A5D0F7
:1051900003F084FF024668B1C31D23F00703ADEBA3
:1051A000030D02AE611C304600F0D3FB3146286887
:1051B00003F0E5FE0221734892E700236B4DC7E937
:1051C00003332B68002B89D02C23394607F10C02BE
:1051D000601CFFF7A9FC002880D03A2339463868C4
:1051E00007F11002FFF7A0FC00283FF477AF396801
:1051F0003A690C1B341BB2EB540FABD8D31D23F010
:105200000703ADEB030D02AC204600F0A2FB2246E3
:105210003B69F968286803F06FFE0028CAD0A8E748
:105220000021022E3961A4D9FF2307F11002A01C2E
:10523000FFF77AFC00289CD03B69012B99D8B9E78D
:1052400001213EE703F0C1FE01224F4B1A70474B8C
:105250001A6812B903214D4842E701221A7341E747
:10526000424D2B68002B3FF439AF9B6A002B3FF473
:1052700054AFFF23002107F10C02601CFFF754FC20
:1052800000283FF42BAF28680823F96807F11002C3
:1052900003F04AFE054600283FF420AF024607F11E
:1052A000100135E7314D2B68002B3FF417AFDB6A57
:1052B000002B3FF47FAF3D23394607F10C02601C01
:1052C000FFF732FC00283FF409AF3C6820460FF09E
:1052D000ADFC09283FF602AF00234208214607F142
:1052E00010003B6100F035FB0423F968286807F1E2
:1052F000100203F022FE00283FF4F0AE5AE7002B24
:1053000071D0013102F0ACFEEDE6184D286840B1D5
:1053100001221D4B1A7003F09BFD2B68AB6000232C
:105320002B602378442B03D10221164800F01EFA8B
:10533000002000F01FF9D5E6FFF7DAFBD2E60B4CB0
:1053400025681DB1284603F033FECBE6A06800288F
:105350003FF4C8AE0E4903F0C1FC206018B12946E5
:10536000284600F0D7FB2068EDE700BF7011002051
:10537000385C01081C5C0108755B0108345C01089D
:10538000BA5B0108BE5B0108181C0020745B0108B1
:1053900004100020344D2B68002B3FF49FAE2C23CB
:1053A000394607F10C02601CFFF7BEFB00283FF4F2
:1053B00095AE3A233946386807F11002FFF7B4FB7F
:1053C00000283FF48BAE3A683B69141B341B9C42A7
:1053D000BFF41FAFBEE6254A31462046FFF758FC12
:1053E00000287FF47FAE0021214879E6214AF3E7C7
:1053F0001D4D2B68002B3FF471AE00264FF00A08BC
:105400003E612C23CDF800803A1D07F11001601C8D
:1054100000F0D3FA00283FF4ACAE2C23386907F132
:105420000C0207F11001FFF77FFB00283FF4A1AE4B
:10543000CDF80080FF233146386907F1080200F0FB
:10544000BCFA00283FF495AED7E9023224782868E8
:105450005A2C397905D103F0C9FD0028BFF6EBAD10
:1054600087E603F0F3FDF8E7701100206C77010880
:1054700037570108C477010807B513460022009288
:105480000A4601460248FFF7C1FD03B05DF804FB80
:1054900004100020044B186808B103F08DBD0321EF
:1054A000024800F063B900BF70110020745B01086E
:1054B00013B5194C206830B90321184802B0BDE873
:1054C000104000F053B901A903F07AFD98B1002310
:1054D000134A01382373137005281BD8DFE800F046
:1054E000030D1A1A12181D210E4800F0ABF9012104
:1054F0000D4800F00FFB02B010BD02210B4800F078
:10550000A1F9F8E70521019A094800F09BF9F2E7B3
:105510000B21F3E70521F1E770110020745B01080E
:10552000181C00203C5C0108425C01084F5C01082B
:10553000555C010838B5A0F12303012B04460D4644
:1055400003D97D2801D02A280FD100217D2084F0A5
:1055500020040CF0A5FE002120460CF0A1FE2B78C3
:105560007D331C44E4B22C7038BD00210CF098FE51
:105570002B78F6E738B50446044D28B92B781BB1D3
:1055800001212B200CF08CFE2C7038BD7D110020E9
:1055900070B505460E4600240CF0BCFE23280346D9
:1055A0000DD008D8042811D02128F4D0B4420CD250
:1055B00028550134F0E72428F8D1012008E0002321
:1055C000214628462B5500F058FC002300202B7064
:1055D00070BD2DE9F0474FF0000A06460F465546CC
:1055E000D1465446DFF8E4800CF094FE042C60D8D9
:1055F000DFE804F0031F2F3944002428307011D055
:10560000212813D139463046FFF7C2FF4FF0000979
:105610003378042B4FD100234FF0010973704846B3
:10562000BDE8F0874FF000090120F1E720462C4645
:10563000EEE7242842D0232843D005447D28EDB24C
:1056400041D006F8090009F10109B94528BF002435
:10565000CAE7054480F0200306F809300124EDB2C2
:1056600009F10109F1E798F800302BB900F063F96E
:105670004FEA001A5FFA8AFA0424E6E798F8003045
:105680001BB1002306F80930C9E700F054F94AEAD3
:1056900000005FFA80FA0121554514BF2D202B2010
:1056A0000CF0FEFD98F80040002CEAD15545CCD115
:1056B000E7E70024C9E725460446C6E70025A946D2
:1056C000C3E70324C1E70224BFE700BF7D11002028
:1056D0002DE9F74F04460F461546984604264FF02D
:1056E000000A002124208DF803A0A1460CF0D8FD6B
:1056F00007EB040BD94527D1A94608EB050BD94583
:1057000029D1002123200CF0CBFD9DF80330154A50
:10571000032101A80FF07CF800219DF804000CF093
:10572000BFFD01219DF805000CF0BAFD0E4B1B7862
:105730003BB94FF4FA600CF003FE2B2801D0013E78
:10574000CFD103B0BDE8F08F19F8010B0DF10301C3
:10575000FFF7F0FECEE719F8010B0DF10301FFF79B
:10576000E9FECCE7505C01087D1100202DE9F743EC
:1057700004460E4604254FF00008002124208DF831
:10578000038027460CF08CFD06EB04094F4522D11F
:10579000002123200CF084FD9DF80330114A0321E1
:1057A00001A80FF035F800219DF804000CF078FDF9
:1057B00001219DF805000CF073FD0B4B1B783BB9E4
:1057C0004FF4FA600CF0BCFD2B2801D0013DD4D180
:1057D00003B0BDE8F08317F8010B0DF10301FFF7EB
:1057E000A9FED3E7505C01087D11002037B50D46B6
:1057F0000021044625208DF803100CF051FD2544AE
:10580000AC4216D1002123200CF04AFD9DF8033054
:105810000B4A032101A80EF0FBFF9DF804000021B4
:105820000CF03EFD01219DF805000CF039FD03B0A0
:1058300030BD14F8010B0DF10301FFF77BFEDFE72C
:10584000505C01080FB4002307B504AA52F8041BEA
:1058500001A8CDE900230FF06DF8011E05DB0198CA
:10586000FFF784FF01980EF027FD03B05DF804EB0D
:1058700004B07047F8B506460FF0D8F94700054662
:10588000791C01200EF0F4FC044670B12A46314622
:1058900000F035F83B46224604480121FFF718FF87
:1058A0002046BDE8F8400EF007BDF8BD375D0108A1
:1058B000002307B50A46014601A801930FF03AF804
:1058C000002805DB0198FFF7D5FF01980EF0F4FCE6
:1058D00003B05DF804FB0FB407B504A951F8040B3D
:1058E0000191FFF7E5FF03B05DF804EB04B07047EA
:1058F000092884BF0730C0B23030C0B2704738B515
:10590000034604468D18A94204F1020404D1002183
:1059100003F81210184638BD08780009FFF7E8FFB1
:1059200004F8020C11F8010B00F00F00FFF7E0FF84
:1059300004F8010CE7E7A0F130030246D8B20928C9
:1059400006D9A2F13703D8B2102884BF573AD0B293
:105950007047F8B5044606468518AE4201F10201CB
:1059600001D12046F8BD11F8020CFFF7E4FF07460D
:1059700011F8010CFFF7DFFF40EA071006F8010BF2
:10598000EBE770B50E1800200D460146AE4200D17F
:1059900070BD15F8013BA3F13002092A04D923F0A8
:1059A0002002413A052AF3D80901040141EA1071A5
:1059B0001846FFF7C0FF2043E8E72DE9F74300242E
:1059C0000F46164601A90A9A8146984601940EF0A0
:1059D00097FD019D9DB14D4513D0B8F1FF0F04D047
:1059E0002B7843450DD1013501950FB1019B3B60EB
:1059F0001EB9012003B0BDE8F0833060F9E7284606
:105A0000F8E72046F6E700000048704780110020C4
:105A100000B5AFB00BF004FA002300934FF0FF3352
:105A20002B4A0293136804A82C93C2F800D00FF0FD
:105A3000D7F8A0B12C9B264A1360009B002BEBD01B
:105A400003212448FFF792FE03F08CF801992248C5
:105A5000FFF741FF0121214800F05CF8DCE7204B13
:105A6000204D1A88204B214C9A8200262B782BB18E
:105A700023681BB1FFF71CFD2B78DBB9184B1C4CBE
:105A80001A881C4B4FF48061C3F810282046FFF79A
:105A9000A0FD23780246042B02D1144B1B681BB1D6
:105AA0000F4B1988104B99824FF480611048FFF713
:105AB000E3FCBFE72368002BE0D030460CF040FC4D
:105AC0000338C0B20128D1D8206803F075FACCE7BA
:105AD0006C1100201C5C0108395D0108425C010862
:105AE000A21700207C110020000801407011002046
:105AF000801100200000014028B1B0FA80F0C0F110
:105B00002000C0B27047FF20704708B50FF024FC9A
:105B1000C0B208BDB0FA80F3034A5B0911700349B3
:105B20005B420B6050607047841500201810002005
:105B3000194910B50B6801332CD0184B1A7AEAB901
:105B40000A685868541C0C60845C04F0FF022CB98D
:105B50001A78E2B102780120D2B20860413AD2B29A
:105B6000192A83BF00225A8104220D499FBF31F8B0
:105B7000220001EB82018A7858811A725A8902F058
:105B8000010052085A811A7A013A1A7203E04FF062
:105B9000FF330B60002010BD18100020841500207A
:105BA0000C780108F0B5054614461E460021262053
:105BB00085B00CF075FB002128460CF071FB54EA0F
:105BC000060325D06F46002504F00F00FFF790FE76
:105BD00001352409102D44EA067407F8010B4FEA39
:105BE000161602D054EA0603EED19DF800308DF867
:105BF0000030013D00211DF805000CF051FB002D87
:105C0000F7D10121232005B0BDE8F0400CF048BBDE
:105C100030230125EBE738B50446002126200CF09F
:105C20003FFB00214B200CF03BFB20460EF0FEFF1B
:105C30002518AC4205D1BDE83840012123200CF0E5
:105C40002FBB14F8010B0021A0F12303012B01D974
:105C5000212800D120200CF023FBEAE737B50446C9
:105C60000D46262000210CF01BFB00214B200CF0E0
:105C700017FB00232544ADF80430AC4206D10121C6
:105C8000232003B0BDE830400CF00ABB01222146BE
:105C900001A8FFF734FE00219DF804000CF000FB82
:105CA00000219DF805000CF0FBFA0134E5E7084AF5
:105CB00092F82D202AB100234520120242F003025F
:105CC00070E700B1CAE7002200234B20F8E700BFCD
:105CD0001C10002018B1002200234B2062E7032291
:105CE00000234520FAE703292DE9FF47044606D89B
:105CF00000220023502004B0BDE8F04752E7811C89
:105D00000220FFF73EFE6378C5B2582B26D00BD891
:105D1000423BDAB2072A0ED8072B0CD8DFE803F093
:105D20000F1A0B160B0B0B82722B23D0772B4CD038
:105D3000632B00F08C80012200234520DBE72846FE
:105D40000BF067F904B0BDE8F047C3E728460BF055
:105D500062F9F7E728460BF060F9F3E70220211D0E
:105D6000FFF70FFEC1B228460BF059F90246002397
:105D70004B20C0E7211D0220FFF703FEA11D0746AF
:105D80000420FFF7FEFD04F10A0180460620FFF71C
:105D9000F8FD04F1100181460420FFF7F2FDB0F593
:105DA000807F0446A4D8FFF72FFE0646CDE9000405
:105DB000F9B228464B461FFA88F202F098FD2146B8
:105DC000304604B0BDE8F04748E70220211DFFF748
:105DD000D8FDA11D07460420FFF7D3FD04F10A01F9
:105DE00080460620FFF7CDFD04F110018146042016
:105DF000FFF7C7FDB0F5807F06463FF679AFFFF7A6
:105E000003FE8246324604F11401FFF7A2FD4B4621
:105E10002846CDE900A61FFA88F2F9B202F07DFD0E
:105E20000022A4E7211D0220FFF7ABFD032603ACEF
:105E300000239F22C1B201962846009402F057FD2C
:105E400031462046FFF70AFF04B0BDE8F087211D68
:105E50000220FFF796FDA11D06460420FFF791FDE5
:105E600004F10A0107460620FFF78BFDBAB203468C
:105E7000F1B2284602F066FDD2E72DE9F04303783F
:105E8000E9B04A2BCDE9040110D8402B13D9413B8E
:105E9000092B10D8DFE813F0D2010F000F000F001C
:105EA0000F000F00050151010F007300532B04D0A8
:105EB000732B00F0A3830122CAE0049B5B78532B71
:105EC00028D014D8492B3AD04F2BF4D1049B022070
:105ED000991CFFF756FD049B0446191D4FF0FF3037
:105EE000FFF74FFD9C4BDB682146984725E0692B67
:105EF0003AD06F2BDFD1049B0220991CFFF741FDA4
:105F0000049B0446191D4FF0FF30FFF73AFD924BFA
:105F10009B68E9E7059B022B40F099808F4B904AE4
:105F20005A60904A9A60904ADA60904A1A61904AA0
:105F30005A61904A9A610BF06BFF00221DE00499B0
:105F400002200231FFF71DFD0024834B01465B68F0
:105F5000069406A89847A04223460CBF50204B2029
:105F6000069AFFF71FFEC7E0049902200231FFF7EF
:105F700008FD794B1B689847024600232AE0049BE2
:105F80005B78542B3ED84D2B26D8442B93D1059BC0
:105F9000042B5CD9049B0220991CFFF7F2FC049BA4
:105FA0000446191D4FF0FF30FFF7EBFC00220023E1
:105FB000CDE90E23049BCDE90C0159786E4BA1F17C
:105FC00044067142DD680CAA234671410EA8A84719
:105FD000DDE90E234B20C4E74E3B062B3FF66BAFAB
:105FE00001A252F823F000BF7F600008B75E0008EE
:105FF000B75E0008B75E00082B6000080D6000085F
:1060000033600008632B27D0642BBFE70022534B7B
:10601000C3E90122594ADA60594A1A61594A5A6158
:10602000594A9A610BF01CFD87E7534B1B68984750
:1060300083E7049B0220991CFFF7A3FC049B044602
:10604000191D0220FFF79DFC059B032B02D802229D
:10605000002315E1484B5BE7049B0820191DFFF75F
:1060600090FC049B0246D97898783039424B18BF8F
:106070000121303818BF01205B6998475DE7059B17
:10608000042BE4D1049BD9789878A1F131046142C2
:10609000A0F13105384B614168425B68684198471F
:1060A0006AE7049B5B78562B2FD016D8462B3AD044
:1060B0000CD8412B3FD0452B7FF4FDAE049B987844
:1060C000303818BF01200AF0A3FF36E7502B7FF4C9
:1060D000F2AE002200234E2043E7702BF9D00ED8F9
:1060E0005A2B17D0662B7FF4E6AE0CF0E9F90421A9
:1060F000079007A8FFF7B2FD69B0BDE8F0837A2BDF
:106100007FF4D9AE0AF028FF36E70AF033FFFFF735
:1061100082FDF1E7049B9878A0F1310148424841A3
:106120000AF060FE09E7049908200231FFF729FC14
:106130000CF0ACF901E71548E9E7154B1A88154B47
:106140009A82049B5B78432B26D04A2B2FD0412B7D
:1061500072D001222FE000BF501900201C10002037
:10616000017500083D750008457400086974000851
:106170007D750008E973000830190020F9720008E5
:10618000177300086D72000845720008D4550108A5
:10619000A217002000080140042200234B20FFF733
:1061A00001FDA04B1A88A04BC3F81028A4E7059B5B
:1061B000152B03D8022200234520F0E710220021EE
:1061C00010A80EF0D1FB049B0220991CFFF7D9FB0D
:1061D000049BC4B2191D0220FFF7D3FB049B8DF86A
:1061E0004800991D0220FFF7CCFB049B8DF8490065
:1061F00003F108010220FFF7C4FB049B8DF84A005D
:1062000003F10A010220FFF7BCFB049B8DF84B0051
:1062100003F10C010220FFF7B4FB049B8DF84C0046
:1062200003F10E010820FFF7ACFB10A911902046E6
:1062300001F03CFD0022B0E70922AEE700233A93CB
:106240004FF0FF333C93794B3EA81A6866923AAA06
:106250001A600EF0C5FC064638B9059B072B11D80D
:10626000002200235020FFF79DFC704B669A1A60B5
:106270003A9B002B3FF440AF1A0242F004021B0E7F
:1062800045206EE6049B5B78362B40F0D980059B59
:106290000E2BE5D9664F2AAC3D460FCD0FC40FCD6E
:1062A0000FC40FCD0FC495E80F0084E80F00614BB9
:1062B00002203193604B3293049BD91CFFF761FBA2
:1062C000049B87F82C00591D102087F82D60FFF7DC
:1062D00058FB2AAB1F93534BCDE928011A88574B23
:1062E0009A82049B9B78612B29D007D8412B3BD005
:1062F0004D2B5ED00122002345201DE06D2BF9D1EE
:10630000049B082003F11501FFF73BFB049B24903D
:1063100003F11D011020FFF734FB049B07460E46D6
:10632000082003F12D01FFF72CFBB0F5FF7F044699
:1063300030D9002200235020FFF734FC0EE00499EE
:1063400004201531FFF71DFB1F9B81B2DB691EA8DE
:10635000984704210B900BA8FFF7A9FC314B1A8832
:10636000314BC3F8102880E7049B042003F115018A
:10637000FFF707FB049B84B203F119010820FFF724
:1063800000FB21461F9B02461B6A1EA8984700215E
:106390000846E1E7FFF738FB1F9B0094D3F8248001
:1063A0003A463346054601461EA8C04721462846C0
:1063B000D2E7049B082003F11501FFF7E2FA049BE2
:1063C000249003F11D010220FFF7DBFA049BC5B204
:1063D00003F11F011020FFF7D4FA049B80460F46FB
:1063E000082003F12F01FFF7CCFAB0F5F67F044641
:1063F0009FD24FF0FF36AE4030EA060699D1FFF744
:1064000003FB0646049922463731FFF7A2FACDE98D
:1064100001451F9B0096996A42463B461EA8884745
:10642000B5E700BFA2170020000001406C1100205A
:106430001C100020677800089D78000800080140C3
:10644000049B0220991CFFF79CFA6E4C049B84F875
:106450002C00191D022084F82D60FFF792FA6A4B78
:106460008DF858001A88694B15949A82049B5B78C2
:10647000612B75D01DD84D2B00F08580522B54D048
:10648000412B7FF437AF049B0420991DFFF779FA65
:10649000049B84B203F10A010820FFF772FA21017C
:1064A000159B01F48051E4B202461B6A214314A8F3
:1064B0006CE7642B27D06D2B7FF41CAF049B082066
:1064C000991DFFF75EFA049B1A9003F10E0110204C
:1064D000FFF757FA049B07460E46082003F11E01FA
:1064E000FFF74FFAB0F5FF7F04463FF622AFFFF704
:1064F0008BFA159B009405460146D3F824803A4652
:10650000334614A851E7049904200631FFF739FAFD
:1065100080B2010101F48051C0B20143E36820461A
:1065200098470421089008A816E7049B0420991DA9
:10653000FFF727FA049B85B203F10A010820FFF751
:1065400020FA2A0102F48052EDB203469DF8581059
:10655000204666692A43B0470421099009A8FBE652
:10656000049904200631FFF70CFA80B2159B010153
:1065700001F48051C0B20143DB6914A8984704219B
:106580000A900AA8E8E6049B0820991DFFF7F9F98C
:10659000049B1A9003F10E010220FFF7F2F9049B0D
:1065A000C6B203F110011020FFF7EBF9049B8046FF
:1065B0000F46082003F12001FFF7E3F9B0F5F67F5D
:1065C0000446BFF4B6AE4FF0FF35B54030EA0505DE
:1065D0007FF4AFAEFFF718FA8146049922462831BE
:1065E000FFF7B7F9CDE90146159BCDF80090996A00
:1065F00042463B4614A888472946C9E6FFF773FB85
:106600007AE500BF1C100020A217002000080140FE
:1066100038B504460D460BF033FF012D2CBF401951
:106620000130206038BD10B504460BF029FF031E71
:10663000206801DA002804DA98422CBF00200120EB
:1066400010BD0020FCE7000010B444691346A446C6
:106650000A4610BC002160470021036918474368BF
:10666000DB6918470A46102110B5436886B00091CF
:106670005C6A02A90023A0479DF810309DF80C2009
:106680001B0443EA02239DF808209DF814001343DD
:1066900043EA006006B010BD0203C0F3063309D51B
:1066A000090201F4706143EA0100B0F5846F09D179
:1066B0002020704743F4004048F25503984208BF39
:1066C0002020704740F25553F8E770B5069B002232
:1066D000C3F30B010C4B9DF820501846BDF8246005
:1066E0009C79052C01D100200DE01C888C4205D13D
:1066F0009C78AC4202D19C88B44202D0013208336B
:10670000EEE700EBC20070BD74780108F8B541F601
:10671000FC510446FFF7A3FFE06008B90020F8BD74
:10672000C0F34333082B6DD100F00F00451EEBB2D0
:10673000072B67D841F6F4512046FFF790FF4FF43E
:10674000E85106462046FFF78AFF41F6F851A0615E
:106750002046FFF784FF002300F0030763616FF317
:106760000B00B30720610DD5002FD7D0637A41F617
:10677000F05143F0010363722046FFF770FF636935
:1067800003436361022FC9D0637ADE0702D4236911
:106790000133C3D0A2695006C0D5072D05D8DFE864
:1067A00005F01C04040E1C2C1A1C22F0370242F0C7
:1067B000004383F08000A361C0F3C010AFE7124B29
:1067C000134012024CBF43F0004343F02043A36147
:1067D00043F08053EDE70D4BF2E711024BBF22F07F
:1067E000BE4222F0F85222F0370222F037024CBFAC
:1067F00042F0234342F06343DBE722F0E04323F01F
:106800003703DEE701208AE7C87FFF80C87FFF8F5C
:106810002DE9F04105460D4B0D4F1C68DFF8348023
:106820000CB9BDE8F0813E7866B9D4F8F030434544
:1068300008D1204604F0C2F8854203D131462046F3
:1068400002F0C3FBD4F8E840EAE700BF9817002045
:1068500068110020C5A9000870B59DF810101546F4
:10686000012904461E4682691CD00239012994BFC1
:1068700042F0120242F0100263684FF4E8511B6AC2
:1068800020469847637ADB0705D5324641F6085122
:106890006068FFF7D9FE2A46606841F60451BDE8FA
:1068A0007040D1E642F01102E6E710B504464068B8
:1068B00090F82F30022B07D80821227A120642F0D6
:1068C0001002BDE81040BFE605220821FFF7BCFE1C
:1068D0000421E26A6068FFF7B7FEA26A08216068D7
:1068E00042F45162EDE71FB50A4604214368009166
:1068F0005C6A03A90023A047039804B010BD2DE9EA
:10690000F04F02F57F6189B0044607931546DDE933
:1069100012B30693FFF7A6FE0646606890F82DA016
:10692000BAF1000F68D1FFF797FE0746002863D140
:10693000544B26F470429A425ED105F57D612046A3
:10694000FFF790FE05F57E6180462046FFF78AFE40
:10695000C6F30336012E814651D118F0F00F4BD10A
:10696000BBF1000F17D14146FFF796FEC9F30B09A3
:106970002084A4F82290226A434B9A420BD12046ED
:106980004249FFF7B0FFC00305D5204609B0BDE876
:10699000F04F03F073BC204605F6CC71FFF7A3FF60
:1069A00006466068FFF758FE28B9F10742BF637AD0
:1069B00043F002036372DFF8D8800BF1010B6068CB
:1069C000FFF74AFE05EB87012046FFF78CFF0646DE
:1069D0006068FFF741FE034670B96EB1F20707D554
:1069E00006EA08022046CDE900B72A44FFF787FFF0
:1069F0000137B7F5707FE2D109B0BDE8F08F4146AD
:106A0000FFF74AFE40F23B43984203D040F675231D
:106A10009842F1D1092E25D105F6BC712046FFF729
:106A200062FF05F6CC7107462046FFF75CFF5FFA70
:106A300080FA17F4801000D0B8B2CDE904A0CDE9F7
:106A400002982846134B069A07990096FFF73DFED9
:106A50000028D1D08379022B06D0032B0BD0012B39
:106A6000CAD192E70020E8E72946204609B0BDE8F0
:106A7000F04F02F075BD2946204609B0BDE8F04F41
:106A800002F06EBD0D0005B11F00D00C00210041C9
:106A900000F0FFFF7C760108C368184710B4446912
:106AA0001346A4460A4610BC0021604710B444694E
:106AB000A44610BC60470268013A01D002607047EA
:106AC0000DF0FABB73B504460B460D4608220021B3
:106AD0004669B04794F82D30072B17D10C4B202175
:106AE0005B6801A8984701212369204698472B46F7
:106AF0000822002120466669B04794F82D300190A5
:106B0000072B03D101200349FDF77CFF02B070BDC4
:106B100050190020515D010870B50D460446164617
:106B2000017A05F0F003406843EA0161FFF7CAFF0C
:106B3000324629466068BDE87040AFE738B50D467B
:106B40000446017A05F0F00343EA01614068FFF76B
:106B5000B9FF29466068BDE838409DE790F82F10DE
:106B600011B10421836918470369184703681BB9E9
:106B700041680A6801320A600133036070470368A4
:106B800010B5013B044603603BB94068FFF793FF33
:106B90002046BDE810400DF08FBB10BD70B5054616
:106BA0000C468AB02822002168460DF0DDFE6846BA
:106BB00001958DF80840FFF7A9FD064688B1282009
:106BC0000DF072FB064660B105466C460FCC0FC552
:106BD0000FCC0FC594E8030085E803003046FFF7AB
:106BE000C5FF30460AB070BD00B58368B3B00190F0
:106BF00023B10020984733B05DF804FB039304935E
:106C00004FF0FF3306930C4B08A81A68309204AA81
:106C10001A600DF0E5FF034628B9024601210198EC
:106C2000FFF744FF0390044B309A1A60049B0BB9A2
:106C30000398E0E70020DEE76C110020012B0ED066
:106C400007D9991E012910D9012202FA03F3184429
:106C5000704701F00301C900CA400270F4E701F077
:106C60000201C900CA400280EEE70260ECE72DE9AC
:106C7000F04F85B098460E9B06460F46154643B327
:106C80009A18029248F10002990714BFDB430223CD
:106C9000039218BF03F00103AA0716BFEA430222BA
:106CA00002F001029342A8BF13464FF0010A5FFAB7
:106CB00083FB2A460AFA03FACDF800B04346FFF7F1
:106CC000CBFD2C46C146029B9C42039B79EB030300
:106CD00002D305B0BDE8F08FC84508BFA54211D06A
:106CE000C4F3090373B9737ADB0705D54A4641F645
:106CF00008517068FFF7D2FE224641F604517068D1
:106D0000FFF7CCFE41F60C517068FFF7C5FE214637
:106D100002465B463846FFF791FF1AEB040407462C
:106D200049F10009CFE730B523B1012B0DD0086838
:106D3000106006E00D7800F00304E40005FA04F4A6
:106D4000146001209840084430BD0D8800F0020412
:106D5000F3E72DE9F04F87B00546DDE910911646BF
:106D600098469DF848A0002944D0891803914FF017
:106D7000010101FA0AF1C9B2CDF800A043F1000BFC
:106D800002913446FFF768FD4746039B9C4277EB30
:106D90000B0305D30C21686807B0BDE8F04F7BE614
:106DA000B84508BFA64211D0C4F3090373B96B7A82
:106DB000DB0705D53A4641F608516868FFF76EFED5
:106DC000224641F604516868FFF768FE00234946F1
:106DD0002046059305AA5346FFF7A5FF41F60C513F
:106DE0008146059A6868FFF759FE029B1C1947F116
:106DF0000007CAE707B0BDE8F08F7FB5099D466878
:106E0000AC0716BFEC43022404F00104910716BF3F
:106E1000D143022101F001018C42D4BF02940291BE
:106E2000089901950091B16A884704B070BD2DE9B9
:106E3000FF41044604214068FFF72EFE4A4E0546F6
:106E4000316803A8FFF7E4FBA26963684FF4E851D7
:106E500020461B6A42F00202984741F60452002184
:106E6000424B6068FFF722FE41F60C520021404B76
:106E70006068FFF71BFE0C216068FFF70DFE00271E
:106E800045F47F05DFF8EC8045F4704503A8FFF773
:106E9000CAFB10B104B0BDE8F081606890F82E1014
:106EA00011F0010103D12B460422FFF7FFFD4346F9
:106EB00041F60C5200216068FFF7F8FD002341F60F
:106EC0000C5201216068FFF7F1FD0246606890F8FE
:106ED0002E30D90705D50C2200230121FFF7E6FD4E
:106EE0000246531CD2D022F07F6323F00F13002BF5
:106EF000CCD1900105D527B91F4B1B7823B90127A9
:106F0000C4E71E4B9343C1D1002563681C4983F835
:106F10002D502046FFF7E7FC04231A4AE061CDE933
:106F2000013202AB204600930DA3D3E90023FFF703
:106F300064FF316803A8FFF76BFB284609F052FF96
:106F40000A4D29462046FFF7CEFC8101A2D503A8B1
:106F5000FFF769FB0028F4D09CE700BFAFF3008087
:106F6000FCED00E00000000000100020F0ED00E06B
:106F700001005FA003005FA0681100200100020073
:106F8000FCED00E0010400012DE9F043A54B85B0C4
:106F90000362A54B426BC361A44B04464362A44BFE
:106FA0008362A44B9A4220D0FFF71EFE28B92046E8
:106FB00005B0BDE8F0430DF07FB9C0F3460100F421
:106FC00070630B43C0F30751C0F30332E186C0F393
:106FD000004184F82F20A38684F82E1013B10AB143
:106FE000C20702D400236363E3852046FFF7B6FDA2
:106FF00094F82F30012B21D9022208212046FFF7D7
:107000004DFD04212046FFF747FD054600220821DB
:107010002046FFF743FD05F47063C5F346021343B2
:1070200023872B0B638725F0704594F82C3025F0CF
:10703000010545EA037545F001052563626B7E4B4A
:107040009A420CD1282101200DF012F9002800F0FD
:10705000E680446005B0BDE8F04304F03BBDFA2192
:1070600003A8FFF7D5FA002204212046FFF716FDFA
:107070004FF0204515F0204F09D004212046FFF79E
:107080000BFD054603A8FFF7CEFA0028F2D0C92170
:1070900003A8FFF7BDFA4FF0A04204212046FFF7F6
:1070A000FDFC0A200BF0B2F904212046FFF7F4FCA6
:1070B00000F02040B0F1204F0ED194F82F30022B79
:1070C00010D9236820460133236000F07BFD204661
:1070D00005B0BDE8F043EEE403A8FFF7A4FA0028EA
:1070E000DFD064E7238F152B02D1204602F03EFA51
:1070F000236801332360238F0E2B04D149F65C13E0
:10710000628F9A4216D000263746B046DFF82C919F
:107110002046F1B2FFF742FD0546002856D1204631
:107120000137FFF71BFD082FD1D00136B6F5807F60
:10713000EED1CCE701212046A369984707212046DC
:10714000FFF72CFD05460028DDD043684FF484513D
:107150001B6A3B4A98472846FFF711FD012120464C
:10716000FFF71CFD05460028CDD00026CDE90066BE
:10717000D0E90423FFF7C3FB2846FFF700FD0421F5
:107180002046FFF70BFD05460028BCD0CDE9006680
:10719000D0E90423FFF7B3FB2846FFF748FE284653
:1071A000FFF736FB2846FFF7EAFC06212046FFF7EB
:1071B000F5FC05460028A6D0CDE90066D0E90423F9
:1071C000FFF79DFB2846FFF7DAFC80E702F0CAF9DB
:1071D000284603F09FFF284602F0C4F9284602F033
:1071E000C1F92B7A43B9EB6809EA0303B3F1011F34
:1071F00002D12846FFF71BFECDE900882846D5E9D5
:107200000423FFF77CFB2846FFF702FB6B68284648
:1072100093F82E309B07D6D4FFF7B1FC85E705B075
:10722000BDE8F083196B00083D6B00086F6C000827
:10723000536D00083B0400BA130902000FE001007F
:10724000F000003013B504464B0FC900CDE9001320
:1072500090F82C00082100F039FE23236A46002113
:1072600094F82C0000F06EFE02B010BD003918BF7B
:107270000121F0B50546580F41EAC303510801F05A
:1072800006010B4387B012F4805F0CBF0A210B216B
:10729000CDE9023095F82C0000F018FEFA2101A883
:1072A000FFF7B6F995F82C00232302AA04A900F0F1
:1072B00049FEDDE9044701A804F00706FFF7B3F92A
:1072C00038B9012EEED0022E0ED1E00840EA477008
:1072D00008E0012EF7D128463146AB6998470020D7
:1072E00085F82D6007B0F0BD01200249FDF78AFB4B
:1072F000EBE700BF615D010810B504460A460023B4
:107300000121FFF7B3FF2046BDE8104000230C2207
:107310000121FFF7ABBF38B50421C3680446984785
:107320000021054B042203406569204684F82D1096
:10733000A84700F0320038BD320000F038B54021D7
:10734000054601200CF094FF044620B3124B80F850
:107350002C50C360114B2D014361114B0361114B44
:107360008361114B5B5903F47062C3F34601C3F3AD
:107370000F330A43B3F53A4F8286C38607D1002103
:10738000FFF7C9FF2046BDE83840FFF7FDBD0421E7
:10739000FFF758FFF6E738BDF97200086D72000874
:1073A00017730008457200089015002010B4446956
:1073B0001346A4460A4610BC0021604770B5044637
:1073C000084D2021AB684FF0FF309847002CAB6888
:1073D00008BF1C21BDE8704018BF20216FF070402D
:1073E000184700BF501900200A460021DEE773B598
:1073F000044600230A460D4646690121B04794F829
:107400002D30072B18D10D4B20215B6801A8984720
:10741000012123692046984700232A46012120465E
:107420006669B04794F82D300190072B03D10120F5
:107430000349FDF7E7FA019802B070BD501900202A
:10744000515D0108CB0470B504460AD5FFF7CFFFA4
:1074500065692046AC46BDE8704000230C2201213E
:107460006047BDE87040C2E738B590F82F30044659
:10747000012B02D990F82D3003B969B10120FFF733
:107480009DFF94F82F30012B03D90C206368216BEA
:1074900098470020A3689847A36804209847C0F342
:1074A00040010901C30648BF41F00201820648BFFE
:1074B00041F00401030600F0B20505D541F00801D2
:1074C00063680020984701E00029F9D1002384F87F
:1074D0002D30284638BD11F4805F14BFA3228122CD
:1074E00008B182F024024FF4887301F00C01CB4004
:1074F00043F3000303F0200342EA41005840704781
:1075000070B50D4D0E4601460020FFF7E4FF08213F
:10751000AB6898472B68032098470446EB683046D1
:107520002021984708210020AB689847E0B2013835
:1075300018BF012070BD00BF5019002073B50E4E5A
:1075400001460120FFF7C7FF0821B3689847336859
:10755000032098470024054673682021019401A860
:107560009847EDB220460821B3689847012D14BF13
:107570002046019802B070BD501900202DE9F74354
:107580009846D3040F460446114603D590F82D3093
:10759000002B31D13846FFF79EFF00238146FA21A8
:1075A00001A80093FFF734F8254E08214846B36838
:1075B0009847032033689847C5B2042D0AD11E228C
:1075C00000212046FFF7F2FE01A8FFF72CF8002863
:1075D000EBD001E0022DF7D0013D062D14D8DFE8F5
:1075E00005F01704130F13131100A369012120469E
:1075F0009847022384F82D30002003B0BDE8F083C3
:107600000423F7E70723F5E701200E49FDF7FAF910
:1076100087B1202168467368984728B901200A4934
:1076200084F82D00FDF7EEF900200821B368984793
:107630000098E2E720214046F3689847F4E700BF4E
:1076400050190020515D0108755D01082DE9F041D8
:1076500000260446B04621F0704727F001070120BC
:10766000FFF7ACFE47EA06710C20636884F82D80B2
:1076700041F0010198472046FFF7B6FAD0B140210A
:1076800001200CF0F5FD0546B8B12346844604F10F
:10769000400E624618685968083303C27345944621
:1076A000F7D128460421AB6985F82C609847284615
:1076B000FFF76AFC0136102ED1D12046BDE8F0411B
:1076C0000CF0FABDF8B5064601F04CFA4021012055
:1076D0000CF0CEFD0446002846D03B4B3B4F4360A8
:1076E0003B4B83603B4BC3603B4B43613B4B036174
:1076F0003B4B83610AF08CFB012009F089FC0020E0
:10770000FFF75CFE2021BB68364898472021BB6804
:10771000354898472021BB68344898472021BB68EA
:10772000334898474FF4D0700C21BB68984701202C
:10773000FFF744FEB6BB2046FFF756FA0546A8B948
:10774000FFF73CFE1021BB684EF29E709847012067
:10775000FFF734FE84F82D502046FFF745FA054622
:1077600020B920460CF0A8FD0020F8BDC5F3073372
:1077700013F00E0FC5F3033584F82F500ED00222FC
:1077800008212046FFF712FE04212046E3689847AF
:107790000022064608212046FFF708FE94F82F3005
:1077A000012B09D931462046FFF750FF114B1868CD
:1077B000003818BF0120D8E720460421A369984764
:1077C0002046FFF7E1FBF1E70175000850190020A2
:1077D0003D750008457400087D750008697400084F
:1077E000E973000892F30962952D8586E9AFDDE320
:1077F000A20EBC1998170020C368184710B444693A
:107800001346A4460A4610BC002160474368DB6962
:10781000184743681B6A1847F8B504460E4600250A
:10782000052208214068FFF7E9FF0421E26A606849
:10783000FFF7E4FFA26A082132436068FFF7DEFF2A
:107840002F4646F4805646EA8501606889B2FFF704
:10785000D3FFEB00C0B201359840042D47EA000782
:10786000F1D13846F8BD70B504460D460522082111
:107870004068FFF7C3FFE26A60680421FFF7BEFFBC
:10788000A36A05F47F62606808211A43FFF7B6FF18
:1078900060682946BDE87040C368184770B5044663
:1078A0000D461646082105224068FFF7A7FFE26A49
:1078B00060680421FFF7A2FFA36A05F47F62606895
:1078C0001A430821FFF79AFF6068334644692A4645
:1078D000A446BDE87040002160472DE9F04F1F46E7
:1078E00081461546A5B0282200210CA80DF03CF8D1
:1078F0004FF47F610CA8CDE91657CDF83490FFF70F
:107900008BFFAE4B20F470429A4204D000263046E2
:1079100025B0BDE8F08F4FF47D61C0F303340CA8AF
:10792000FFF77AFF4FF47E6106460CA8FFF774FF5D
:10793000012C804605D116F0F00F0CBF0126002661
:10794000E5E73146FEF7A8FE092C834640F0E480C7
:1079500041F6BC710CA8FFF759FF41F6CC71824685
:107960000CA8FFF753FF1AF48013C0B200F0D680C2
:1079700040F6F7221FFA8AF3934240F0CF8016F0C8
:10798000F00FC3D131464046FEF786FEC8F30B0325
:10799000079041F6C8710CA80893FFF737FFC4069B
:1079A00048BF9DF83930C2B244BF43F002038DF89E
:1079B0003930900602F00F0B41D54FF4E0510CA87E
:1079C000FFF724FF010718BF9DF83930C4B21CBF70
:1079D00043F004038DF83930E20628D5FA2118A8BF
:1079E000FEF716FE012241F610410CA8FFF711FF29
:1079F00041F610410CA8FFF709FFC60717D541F65D
:107A000014410CA8FFF702FFC30705D5002241F679
:107A100010410CA8FFF7FDFE18A8FEF704FE002891
:107A2000E6D0002241F610410CA8FFF7F2FEA406B2
:107A300042BF9DF8393043F008038DF83930BBF16F
:107A4000000F14BF4FF480734FF400730A9314BFF8
:107A50000323022301264FF000080993099B0CA879
:107A600008FA03F91FFA89F949F48051FFF7CEFEAD
:107A70000446BBF1000F3FD1D94614F003033FF495
:107A800046AF032B32D19DF8393024F47F6A23406E
:107A900058072AF00F0A1CD5A40804F07C0404F54A
:107AA000D0510CA80B91FFF7B1FE10F0010F0B990C
:107AB0000FD002220CA8FFF7ACFEFA2118A8FEF79F
:107AC000A7FD04F5D45421460CA8FFF79FFEC1077B
:107AD0001CD5089B15EB0A020293079B0D98CDE974
:107AE000008349EB0703FFF7F8FE06400A9B08F105
:107AF00001089845B2D10AE709F1040141F4805127
:107B000089B20CA8FFF782FE8146B6E718A8FEF7F7
:107B10008AFD0028D7D0F9E60020034640F23B4218
:107B2000934501D00126F2E6CDE904033946284603
:107B3000CDE90286224B2E9A0094FEF7C6FD00285E
:107B4000F0D08379042BEDD12822002118A80CF065
:107B50000BFF2E9B18A8CDE92257CDF864908DF825
:107B60006830FEF7D3FD0028DCD030200CF09CFB01
:107B700006460028D6D0054618AC0FCC0FC50FCC52
:107B80000FC594E80F0085E80F003046FEF7EEFFC2
:107B9000BDF8BC3000223384BDF8C0303046738459
:107BA0000123CDE90032D6E90423FEF7A8FE3046D2
:107BB000FEF72EFE3046FEF7E2FFB3E70D0005B1FB
:107BC0007C760108F0B50446274B85B0C361274B8E
:107BD000012203620821FFF711FE00212046FFF772
:107BE0000BFE00F07F000222082184F83C002046B2
:107BF000FFF704FE00212046FFF7FEFD03220646A4
:107C000008212046FFF7FAFD00212046FFF7F4FD8A
:107C100016F0010203464FF0000023D04FF0FF3171
:107C200094F83C20A2F1200C01FA02F501FA0CFCB8
:107C3000C2F1200721FA07F745EA0C053D439140C0
:107C400031401D4029430BD1E28E0292A28ECDE934
:107C5000000226F47F62204622F00F02FFF73DFE6D
:107C600005B0F0BD1046FBE7677800089D78000876
:107C70000D4A70B50346002514461068164610B923
:107C8000C3E900000BE0766814320E40864208D14A
:107C9000142202FB0542D2E9030183E803001846DF
:107CA00070BD0135E9E700BF3C7B0108F8B50C4623
:107CB000054628B901464FF400720A480CF054FEFC
:107CC0002346084E03F1100706EB051422461868F8
:107CD0005968083303C2BB421446F7D10135C6F8D0
:107CE0000052F8BD901500202DE9F74F0024734D88
:107CF000734E00F037FF4FF4007221462846C5F856
:107D000000420CF031FE09F0ABFE336898470321C6
:107D10000120B3689847A0466A4F20233A460021C5
:107D20006846D6F80CC0CDF80080E047DDF800903A
:107D3000B9F1FF3F26D101214FF0000808467368D2
:107D4000984702210120B3689847C246C5F800420F
:107D5000444604210320B368984768462968FFF722
:107D600087FF9DF804700121002073689847EFB1E8
:107D7000009BE34003F00103834210D00023C5F8C9
:107D8000003203E0202C05D1C5F80082002003B0AA
:107D9000BDE8F08F230145F803900134BDE70134BD
:107DA000E4B2BC420AD0212CDDD1E7E70134E4B2D1
:107DB0000028F8D0012CD6D0022C5AD0B7FA87FB75
:107DC0004FEA5B1BA4EB0B0405EB0A13E4B20AF1C8
:107DD000010A9C7283F80B80C3F804904FEA0A13DF
:107DE0006846E958FFF744FFA0449DF804705C46DC
:107DF000B9E7D5F800329C42C0D10121736808462A
:107E00009847B368022101209847D5F80032002B2B
:107E1000BCD005EB0313AB420BD100241427D5F8DB
:107E20000002A04221D9284B002198464FEA041CA9
:107E300008E013F8062C03F8047C3A44D7B2103B50
:107E4000E9E701311E689E466EB1DEF8040055F880
:107E50000C2014331040B042F3D107FB0182936829
:107E60000BB1E0B298470134D9E7003818BF0120C0
:107E70008DE7012173680846984721460120B368C1
:107E8000984703210120B36898473C46DFF82C80CF
:107E900001210020736898470028AAD1D5F8002254
:107EA000E1B2531E01345B1AA24288F8081088F828
:107EB000093008F11008EBD260E700BF90150020F0
:107EC00030190020647B01083C7B010873B51A4C13
:107ED000050104EB0010436801918B4226D0224635
:107EE00000234FF0FF36D4F80002984202F110024E
:107EF0001ED12C44114D0320AB68616004219847CA
:107F000000202B69E27A0E499847207B2B69B0FA52
:107F100080F0A27A01A94009984701202B690849FD
:107F2000227B984702210120AB68984702B070BDC0
:107F300042F80C6C0133D8E790150020301900206E
:107F4000647B01082DE9F04707468A46184C194D15
:107F50000321012098464FEA0719A36805EB07178C
:107F600016469847002023693A7A13499847787A49
:107F7000BAF1000F13D0B0FA80F1434632465046B2
:107F8000E7684909B8474D44236901206A7A0A49DC
:107F90009847A3680221BDE8F04701201847B0FACE
:107FA00080F042463146236940099847EBE700BF1D
:107FB0003019002090150020647B0108F7B50546B4
:107FC000FDF722FD012704464FF480612046FDF7AE
:107FD00000FB01280346267801D1042E0AD04FF475
:107FE0008062214628460097FDF710F8462EEBD117
:107FF00003B0F0BD4FF0FF30FAE72DE9F0411C4629
:1080000090F8E4300546164690B0E3B14B1E012BC4
:1080100019D8002711E0A4EB0708B8F1400F28BFDA
:108020004FF04008324643466946284600F03FFF7D
:10803000414668460AF098F84037BC42EBD82046E3
:1080400010B0BDE8F081234632460448FDF7FAFB44
:10805000286810B0BDE8F041B0E700BF1B5E010822
:1080600070B51026002586B00446FF23084600960A
:1080700003AA05A9CDE903550595FDF79EFC38B97E
:1080800042F20F73A0744FF0FF30238206B070BD30
:108090000598258203782C2B13D1FF23009604AA80
:1080A00005A90130FDF789FC58B1049B2382059B8B
:1080B0001A782C2A05D15B78A3F14302534253412D
:1080C000A3740398E2E7F0B5D1E902234E68204992
:1080D0005208042B054631F8124089B003F101071C
:1080E00011D802A93B46324600F0E1FE194902A828
:1080F0000CF084FDE8B924B114F4806F0CBF0220A9
:108100000120013010E0162B13D802A93B4632465D
:1081100000F0CDFE104902A80CF070FD48B92CB952
:108120006FF000400D4B1C7009B0F0BD4FF0FF30F8
:10813000FAE74FF4D2733A46314609480093234692
:10814000FDF780FB2868FFF739FF431CD9D1EBE727
:10815000707B0108335E0108375E01089417002028
:108160004D5E01084B6810B5591E022904460AD914
:108170006FF00042934206D00448FDF763FB20688D
:10818000BDE810401AE7002010BD00BF6A5E01087C
:10819000F8B50B465E68D3E902156FF000439E42C6
:1081A000044610D10E4E0F4F3278C2F10504AC4296
:1081B00028BF2C463A44234600F09EFE3378281B05
:1081C00023443370F8BD0A462B460748711EFDF75D
:1081D00039FB2068FFF7F2FE0028A8BF281AF1E754
:1081E000941700207C7B0108765E010838B56FF09B
:1081F00000434D689D4209D0CC688A682346691EB9
:10820000FFF7FBFE002800DB201A38BD4FF0FF30DF
:10821000FBE708B501230A681946FFF7EEFE0020C8
:1082200008BD70B50E68054634462146284600F064
:108230006DFF18B1284600F017FE18B1A41B03D536
:10824000002070BD0134F0E7234632460121284664
:10825000FFF7D3FE201A18BF4FF0FF30F1E710B53B
:108260000446496803480139FDF7ECFA2068BDE887
:108270001040A3E68D5E010838B56FF00043054657
:10828000D1E90104984208D1042C0B4B02D81C7090
:10829000002038BD05221A70FAE7411E002322464D
:1082A0000648FDF7CFFA2868FFF788FE201A18BFA6
:1082B0004FF0FF30EDE700BF941700209A5E0108F1
:1082C00013B50B698A68013300930446CB680548EF
:1082D00049680132FDF7B6FA206802B0BDE81040E7
:1082E0006CE600BFB15E010810B504468A68044818
:1082F00049680132FDF7A6FA2068BDE810405DE646
:10830000D15E010810B504468A6804484968013204
:10831000FDF798FA2068BDE810404FE6E55E0108D9
:108320006FF0004310B549680446994290B01ED0E2
:108330004022C36D013943F00043C3650368DA602E
:10834000C3F808D0836E0C481A68FDF77BFA2068E2
:10835000FFF734FEE36D079A23F00043E365089BC3
:1083600010431BBA05D143EAE37010B010BD0520DD
:10837000FBE74FF0FF30F8E7F95E010830B5CB6D51
:1083800085B043F00043CB650B6801AA9A600C22CC
:108390000D46DA608B6E0022196804460D48FDF721
:1083A00051FA2868FFF70AFEEB6D23F00043EB65F6
:1083B00030B1094B0FCB84E80F00204605B030BD2B
:1083C000029B1ABA039B19BA019BC4E900121BBA9B
:1083D000A360F2E7095F0108887B01081FB5014629
:1083E0006846FFF7CBFFDDE900320298411C05D15A
:1083F000B2F1FF3F08BFB3F1FF3F0FD042F210725E
:10840000B3FBF2F3642202FB0030064B1A6882428F
:1084100088BF18601B68C01A20F0004005B05DF8E6
:1084200004FB00BF7C1000201FB501466846FFF723
:10843000A5FF029805B05DF804FB37B504460D684A
:108440000AF01EF80023009001936A46082329468B
:10845000204600F051FD404203B030BD3F2313B52C
:108460008DF80730C36D026843F00043C3650DF11A
:108470000703936001230446D360826E00211268D3
:108480000948FDF7DFF92068FFF798FD012818BFBC
:108490004FF0FF30E36D08BF9DF8070023F0004365
:1084A000E36502B010BD00BF765E010838B5094D26
:1084B0000446A942134608D1074900F06BFE204646
:1084C000012100F082FD002038BD0A46034900F07A
:1084D00061FEF4E726000200235F01082E5F010819
:1084E0002DE9F04100F17C070E4604463846D1F8EC
:1084F00004800CF09BFBB368451CAB4203D24FF0E9
:10850000FF30BDE8F0812B463A464146204600F058
:10851000F3FC0028F3D131682A462046043100F0EC
:10852000D1FD4042EDE71E2807D890B1094B013834
:1085300080B2C34003F0010070475B2808D042F2CC
:108540000F73984204D0A0F1580358425841704725
:10855000012070471BB1FD3C08B50968102300F1EC
:10856000D00200F0C9FC404208BD7FB50A46104D5C
:108570000C7A06466968286801AB03C3A97A288982
:1085800099701880230941338DF80830D36841343D
:108590000A2B51688DF8094007D90B23304601AAF0
:1085A00000F0AAFC404204B070BD4FF0FF30FAE783
:1085B0004B5F0108013A302A50D8DFE802F01C1E58
:1085C000242622203846282A4F324B2E2C3436308F
:1085D0003A4F44494F3D4F4F4F4F4F4F4F414F4FF1
:1085E0004F4F4F4F4F4F4F4F4F4F4F4F4F4D190022
:1085F0004FF47A707047FFF766BDFFF7B3BDFFF722
:10860000C7BDFFF7F3BDFFF704BEFFF70ABEFFF7D4
:1086100026BEFFF731BEFFF753BEFFF765BEFFF77B
:1086200071BEFFF77DBEFFF7D9BEFFF7FDBEFFF7B6
:1086300015BF0368188A704700220968FFF736BF24
:108640008A684968FAE7FFF74BBF8888FFF76BBF76
:10865000FFF782BFFFF789BFFFF7EFBE4FF0FF3094
:10866000704770B50D4600211646036886B0044673
:108670001022997402A80CF077F9182D019605D0F4
:1086800010233246204602A900F011FC2A4620465B
:1086900001A9FFF78FFF06B070BD00BF2DE9F041C3
:1086A0004FF008089EB016460DEB080300220D4659
:1086B000CDF8008040F65A110746B04704224449DD
:1086C0000DEB08000CF040F9044698B100201EB0F4
:1086D000BDE8F0810F9B01334DE00133042B4ED1F7
:1086E0000024214658E04FF4807263E09DF80E307C
:1086F0009C42EBD8013404ABE20040F65A113846F4
:10870000CDF80080B0479DF817209DF8103043EA5F
:108710000223B3F57F4FE9D19DF815209DF816305F
:10872000120242EA03429DF813309DF814109B0098
:10873000402B28BF40230A43009340F65A110EAB4A
:108740003846B047002309939DF93F309DF83F20FC
:10875000002BBFDA9DF83D309DF83E101B0243EA26
:1087600001439DF83C10120602F0FE420B431343F6
:10877000012202FA03F3D80800239DF839200EA93C
:1087800001EB43014C7F9442A7D101211EAA02EBC9
:10879000430313F8243C99409DF81230012B04D870
:1087A000A1D19DF81130042B9DD901229DF8603094
:1087B0001B099A40CDE906218DF8244008900AACA7
:1087C00006AB0FCB84E80F0085E80F0001207EE7A1
:1087D000565F010870B51446054641F080001E46FC
:1087E00008F01BFC2846E1B208F019FC23050DD562
:1087F000C6F30741284608F012FCC6F307212846B5
:1088000008F00DFC2846F1B208F009FC0026C4F37C
:108810000224A64200D170BD0021284608F0FFFBCB
:108820000136F6E71FB5002201230C46009305210F
:108830008DF80F200DF10F03A0479DF80F0004B035
:1088400010BD2DE9F7460446924600251E46D0E9A4
:108850000073A1EB0309B54203D3012003B0BDE8C7
:10886000F086002206213846236D98473846A16CD1
:10887000FFF7D8FF10F00200F0D0226C731B934278
:1088800094BF0093009241F602013846D4F84CC0E0
:108890000AEB050305EB0902E0473846A16CFFF738
:1088A000C1FFC307F9D4236C1D44D4E770B5044657
:1088B0000568036D002228460E4606219847284683
:1088C000A16CFFF7AFFF10F002000FD0626894F8C0
:1088D00044102846236DB21A41F400619847284697
:1088E000A16CFFF79FFFC307F9D4012070BDF8B555
:1088F0000746DDE906460D46FFF76CFF2644B44205
:1089000004D12846BDE8F84008F087BB002138466E
:1089100008F085FB04F8010BF1E7F8B50746DDE93F
:1089200006460D46FFF756FF2644B44204D12846BA
:10893000BDE8F84008F071BB384614F8011B08F098
:108940006EFBF2E710B50C46FFF744FF2046BDE88A
:10895000104008F062BB2DE9FF4106460F4601209A
:10896000542190461D460BF083FC044650B32A4622
:1089700069463046FFF792FE50B94FF480534FF4EA
:108980008072CDE900232023CDF808808DF80C30CB
:10899000029B2146A360019B3046E3600B4B67605E
:1089A00063620B4B2362FF23237600F0DBF9009B0D
:1089B000A56423649DF80C3084F844300A9BE3647A
:1089C0000B9B2365204604B0BDE8F0814388000876
:1089D000AD88000873B50446C66E4FF4FA7101A85D
:1089E000FDF716FE636D20469847002206212046BB
:1089F000336D98472046B16CFFF714FF10F0020565
:108A000005D12046A36D9847284602B070BD0022CC
:108A100060212046336D98472046B16CFFF702FF76
:108A2000C30703D42046A36D9847EEE701A800F0E2
:108A3000FDF9F1E710B5044608B1036D2BB90848FC
:108A4000FCF718FF0124204610BD0648FCF712FF72
:108A5000236D2046984704460348FCF70BFFF2E7D6
:108A60005B5F0108825F0108995F0108022970B508
:108A70000546144611DD0022606811460BF040FDEA
:108A8000002206461146A0680BF03AFD3146024628
:108A90002846BDE8704000F040BC0548FCF7EAFEFF
:108AA0000448FCF7E7FE0448FCF7E4FE012070BD33
:108AB0009F5F0108CD5F010802600108012910B520
:108AC0000C4606D0BDE8104000F1E4015068FBF709
:108AD00037BE90F8E410054A054B064800290CBF44
:108AE00011461946FCF7F7FE204610BD255801082F
:108AF0001D5801085B600108F8B506460F460024C2
:108B0000064B1D680DB92046F8BD013429463A468A
:108B10002046B047D5F8E850F4E700BF981700208A
:108B200038B50446A06E00B938BD85680BF0C4FBAB
:108B3000A566F7E738B50446E36E03B938BDD86AD1
:108B4000DD6B08B10BF0B8FBE06E0BF0B5FBE56632
:108B5000F2E710B50446FFF7E3FF2046BDE81040FA
:108B6000FFF7E8BF10B53E4BB2B01B680393039B01
:108B70001BB93B4A136032B010BD039B394AD3F88E
:108B8000E83008A80193002304934FF0FF330693C5
:108B90001368309304AB13600CF022F818B3309BC9
:108BA000304A1360049B002B27D1039B1B68002BCA
:108BB00029D1039BD3F8EC30002B31D1039BD3F8A0
:108BC000E030002B34D1039B186E0BF075FB03983B
:108BD000FFF7BFFF039BDB6C002B36D103980BF034
:108BE0006BFB019BC2E7039B93F86530002BD6D04B
:108BF000039B03989B689847D1E74FF00002039BC3
:108C000083F86520D1E7039B1B681B68002BD0D03D
:108C1000039B039A1B6803991B6810689847C8E771
:108C2000039B039AD3F8F030D2F8EC009847C5E7DD
:108C3000039BD3F8E0309C68039BD3F8E0000BF073
:108C40003BFB039BC3F8E040B8E7039BDB6C1C686D
:108C5000039BD86C0BF030FB039BDC64BAE700BFCE
:108C6000981700206C11002070B504460C200D46AA
:108C700016460BF019FB58B1D4F8E0304BB11A4648
:108C80009B68002BFBD190600023C0E900658360E6
:108C900070BDC4F8E000F7E710B5F82101200BF033
:108CA000E7FA044680B10A4A13687BB11A46D3F842
:108CB000E830002BFAD1C2F8E84000232046054AEC
:108CC00005492366FFF7D0FF204610BD1060F4E78A
:108CD000981700207F600108987B010838B504468A
:108CE00000680D4610B121460368984701202560B1
:108CF00008F08EF9636843B120469847054620B9CD
:108D000008F086F92C46204638BD012384F86530EA
:108D1000F9E7074B02461868012300B970479342F0
:108D200001D1FFF7DBBFD0F8E8000133F5E700BF62
:108D30009817002070B504460C201546049E0BF0D1
:108D4000B3FA20B1A36EC0E900568360A06670BD7F
:108D5000002307B5CDE900230A46FFF7EBFF03B078
:108D60005DF804FB0B690BB9CB680B610B690860FC
:108D7000B3F5007F9EBF4FF48062B2FBF3F2534322
:108D80004B61C36ECB63C16670472DE9F04F8846D7
:108D900015460746294640461F4A85B00BF038FD68
:108DA0000446BE6EDFF8749008EB0400291BAEB9D0
:108DB000FF6EDFF86C90DFF86CA008EB040B291B4A
:108DC000AFB95846184A0BF023FD013D20448542B7
:108DD00094BF0020012005B0BDE8F08F73684A46BB
:108DE000009333680BF014FDB6680444DCE7BB68FD
:108DF0004A4600937B68584603910BF009FD03999E
:108E00000646FB68091A524658440BF001FD064419
:108E1000FF6B3444D1E700BF86600108936001080E
:108E2000C7600108FC6001083161010810B5044603
:108E3000FDF7F9FB48B10548FCF71CFD2046BDE8ED
:108E400010404FF4FA71FDF7E3BB10BD76760108D0
:108E5000836810B5044603B19847002008F0D8F89D
:108E6000002384F8653010BD10B1C36803B1184702
:108E700000207047F7B5C76D0446002F0D46089EC9
:108E800009DB05690DB10096A847204603B0BDE88F
:108E9000F040FFF7E9BF03682846DA689968B242F4
:108EA00028BF32460BF0B4FE002003B0F0BD07B57A
:108EB00000930023FFF7DEFF03B05DF804FB73B5FA
:108EC000C56D0446DDE90616002D0ADB456915B1BE
:108ED000CDE90016A847204602B0BDE87040FFF774
:108EE000C3BF0368DA689868B24228BF32460BF005
:108EF0008FFE002002B070BD07B5CDE900230A4601
:108F00000023FFF7DCFF03B05DF804FB08B538B1C0
:108F1000806F28B103490BF0A8FD003818BF01206D
:108F200008BD00BF3F61010810B4846A14B1A446B3
:108F300010BC6047204610BC704710B4C46A14B11E
:108F4000A44610BC6047204610BC7047036A2DE958
:108F5000F04105460E467BB1BDE8F04118471B1BAA
:108F6000321928464F1CFFF7DFFF39460444AB692E
:108F7000A342F4D8BDE8F08119461C46F7E7436ADE
:108F80002DE9F04105460E467BB1BDE8F04118479A
:108F90001B1B321928464F1CFFF7CFFF39460444EC
:108FA000AB69A342F4D8BDE8F08119461C46F7E747
:108FB000036B03B118477047836B03B118477047C1
:108FC000C36B03B1184718467047036C03B11847C9
:108FD000704701327C300BF01BBE30B1C0F8D83086
:108FE000C0E93412009BC0F8DC3070472DE9F04135
:108FF00006461C460F46154688B0202200216846CA
:109000000BF0B2FC736CCDE902548DF804702BB9EF
:109010004FF00108404608B0BDE8F081694630468F
:10902000984780460028F5D120200BF03DF90746EF
:109030000028EDD005466C460FCC0FC594E80F0014
:1090400085E80F00F36CF7643B60E3E7F8B506468C
:109050000027C46C1CB94FF0FF352846F8BD2079B5
:10906000884205D1A068904202D1E068984202D0BF
:1090700027462468EEE7B36C73B121463046984723
:1090800005460028E9D1236827B9F36420460BF090
:1090900013F9E2E73B60F9E70125DEE780697047F5
:1090A000C36903B1184718467047002307B50193F9
:1090B00004230A460DEB0301FFF7F9FE019803B004
:1090C0005DF804FB042307B501920DEB0302FFF7E3
:1090D00013FF03B05DF804FB002307B50A46ADF8A3
:1090E00006300DF106010223FFF7E1FEBDF8060090
:1090F00003B05DF804FB07B50223ADF806200DF1BF
:109100000602FFF7F9FE03B05DF804FB002307B584
:109110000A468DF807300DF107010123FFF7C7FE5E
:109120009DF8070003B05DF804FB07B501238DF837
:1091300007200DF10702FFF7DFFE03B05DF804FB27
:109140002DE9F047054688461646D0F8E04014B9A8
:109150004FF0FF301AE06768D7F80090B9F1000FC0
:1091600001D1A468F3E7D6F800A050460BF05EFDED
:109170004946024650460BF03BFC48B93246414650
:1091800028467B68984780F00100C0B2BDE8F087B0
:109190000C37E1E70EB403B5006848B1436804AA90
:1091A000039901929847054B1B6898680BF05AFA8F
:1091B00002B05DF804EB03B0704700BF1811002047
:1091C0002DE9F0410646D0F8E0500D4FDFF834802D
:1091D0000DB9BDE8F081394630462A68FFF7DAFF5D
:1091E0006C680C3454F80C2C0C340AB9AD68EFE7F9
:1091F0004146304654F8103CFFF7CCFFF2E700BF81
:1092000045610108B755010890F8663010B504466D
:109210004BB9436D13B1984710B910BDFFF7C8FEA5
:10922000012384F866300120F7E738B5437E044611
:109230007BB1836A5BB198470546E06A18B10BF0D1
:109240003BF80023E36200236376284638BD0125FE
:10925000F3E70125F9E738B5437E04468B420D4616
:1092600001D1012038BD4BB9E3696576002BF8D0F8
:10927000204698470028F4D1607603E0FFF7D5FF39
:109280000028F1D10020EDE7C36A2DE9F04704463C
:10929000002B34D0036B013331D0436B5A1C2ED0DA
:1092A000826B93422BD20221FFF7D5FF0546A0B176
:1092B0004FF000082669636B76421E40D4E90B73B9
:1092C000A6EB030AA36BA3EB0609C14508D84FF030
:1092D000FF33C4E90C330023A3632846BDE8F087BD
:1092E0000AEB0802236906EB08012046D4F824C0E3
:1092F0003A44E04723692840C5B29844E5E7012590
:10930000EBE7C06E00B9704743688B4203D88268B0
:1093100013448B42F7D8C06BF4E72DE9F84F814630
:109320000D461646FFF770FF074610B90020BDE84E
:10933000F88F29464846FFF7E4FF83460028F5D01A
:109340003EB93C46DA465046FFF76FFF0440E0B2B4
:10935000EDE729464846FFF7D4FF82460028E5D0CE
:10936000834526D05846FFF760FF0446DAF80C30F4
:109370000121C3F1000B0BEA050B504603EB0B0870
:10938000FFF769FF0028D1D059465046DAF820305F
:10939000DAF80C209847044014F0FF04D3D0A8EB6F
:1093A0000505B54298BF761BD346454688BFB61B18
:1093B000C6E73C46DAE710B5044640690AF074FF98
:1093C000E06230B14FF0FF33C4E90C3300230120D9
:1093D000A36310BD2DE9F04F85B00D4691469A4626
:1093E0000190FFF711FF074620B90027384605B066
:1093F000BDE8F08F4FF0000B019BDC6E002C3FD1DD
:10940000BBF1000FF1D0002FEFD0BAF1000FEDD07B
:1094100029460198FFF775FF04460028E5D08345EB
:1094200045D05846FFF730FF06465846FFF7FDFE89
:109430000640F6B2E36A23B92046FFF7BCFF30408E
:10944000C6B2002ED1D005EB0A030093D4E9013255
:1094500003EB0208009BCA46984528BF9846A8EB34
:1094600005039B460293BBF1000F22D1002EBCD016
:10947000029BA3469944009B4546A3EB080AC4E718
:109480006368AB4203D8A2681344AB420DD8E36AC9
:109490004BB12046FFF7F8FE06462046FFF7C5FE13
:1094A00006403E40F7B2E46BA8E7A346FBE73E4622
:1094B000C0E76269216B52422A408A4203920BD074
:1094C0002046FFF7E1FE039A3040C6B22263217EB8
:1094D0006269E06A0BF048FA6269E06AB5FBF2FC87
:1094E00002FB1C5CA2EB0C025A4528BF5A465146AF
:1094F000604403920BF08CFB616B039AA94294BF0A
:1095000061636563A16B1544A9422CBFA163A56388
:109510009244ABEB020BA6E7F8B50446F0B190F825
:1095200066505DB1C66E5EB994F8663033B1A36D16
:10953000204683B19847002384F866302846F8BD5A
:109540003046FFF7A1FE07463046FFF76EFE0740A4
:10955000F66B3D40E7E7FFF72BFDECE70546EDE74F
:1095600000207047002070470020704770470000BF
:1095700010B444691346A4460A4610BC0021604753
:1095800002292DE9F74F04461746D0F8EC802FDD6D
:1095900092464FF0000902EB81060025DFF8A0B0EB
:1095A0005BF8040B48B1DAF800100BF027FB01233D
:1095B00018B903FA05F249EA020901350B2DEFD17A
:1095C0000AF1040AB245E8D178680DF10701FBF70A
:1095D000B7F880B19DF80730D8F8182063B342EA95
:1095E000090220461749C8F81820FFF76BFD02E072
:1095F0001549FFF7CFFD20461449FFF7CBFD0025A5
:1096000001270F4EDFF8489056F8042B4AB1D8F8DE
:10961000180007FA05F3034203D049462046FFF736
:10962000B9FD01350B2DEFD120460A49FFF7B2FDF8
:10963000012003B0BDE8F08F22EA0902D1E700BFA4
:10964000C87B0108FCED00E0EE6101084262010800
:10965000556201089656010810B50A79D0F8EC4019
:10966000012A0B6911D0023A022A4FF0010218D8E0
:10967000617B9A4021EA0202627300220A4901EBEF
:109680000311FFF71FFD002010BD217B9A4021EA46
:10969000020203F1605101F60201227389000022E7
:1096A000EFE71046F0E700BF281000E02DE9F74F84
:1096B0008946D0F8EC1007464D8965B11448154924
:1096C000AD00002B0CBF82468A46BC6E09EB020639
:1096D000C5F1000B14B903B0BDE8F08FD4E9002345
:1096E0001344B34228BF334691452CBF0BEA090807
:1096F0000BEA0208984501D3A468EBE742465146BD
:1097000038460193A844FFF7DDFC019BF2E700BF58
:1097100068EF00E070EF00E010B5044604490F2246
:10972000FFF7D0FC2046BDE810400249FFF7BDBC62
:10973000F4ED00E0F8ED00E0002300B5B1B00293D5
:10974000022304930D4B01901A6806A82E9202AAD8
:109750001A600BF045FA58B1084B2E9A1A60029B1A
:109760001BB107490198FFF715FD31B05DF804FB07
:10977000044A05490198FFF7A5FCEDE76C110020AC
:109780005962010803005FA0F0ED00E0F8B51C4B42
:10979000D0F8EC700D1E1B4E08BF1E463B7C0446E5
:1097A000AB4205D0184946F00202FFF78BFC3D742E
:1097B0007B7CB3B12046FFF7AFFF0146054620464C
:1097C000FFF78AFC00F47F40B0F53E4F09D10F4906
:1097D000AA1C2046FFF776FC20460D4A0D49FFF7EC
:1097E00071FC3B8923B1002220460B49FFF76AFC3C
:1097F00032462046BDE8F8400349FFF763BC00BF8E
:1098000001005FA00D005FA0F0ED00E0F8ED00E0CA
:109810000F000100F4ED00E050EF00E000222DE920
:10982000F041F4B0049210924FF0FF3212927F4A4E
:10983000D0F8EC30039111680190029314A810AB9A
:109840003C9113600BF0CCF920B979490198FFF7EE
:109850002CFC04903C9A754B109C1A601CB1012C96
:1098600006D0022C02D0049B9E0307D4002002E005
:10987000FFF778F9204674B0BDE8F0816D4D01988E
:109880002946FFF712FC0446024629460198FFF7D5
:1098900019FC250759D5DFF8A08101984146FFF74B
:1098A00004FC664F054639460198FFF7FEFB064665
:1098B0002A4641460198FFF705FC05F080453246EF
:1098C00039460198FFF7FEFB35433ED001983FA98A
:1098D000FFF73CFB20234D9D019815F0040614BFB3
:1098E000519A509A0DEB0301FFF7E1FA0198FFF747
:1098F000BBFA002829D10D9B15F010054D930E9B46
:109900000F9A4E9314BF20236823940548BF043355
:10991000BEB1529A42F080625292519A13445193CE
:109920004C931DB9529B43F000735293444A4549EE
:109930000198FFF7C7FB01983FA9FFF720FB06201E
:1099400099E7509A13445093EAE704F00205002D7A
:1099500014BF01230023029A537430D00198FFF7FB
:10996000DBFE01460198FFF7B7FB4BF6AB6398426D
:1099700025D100240423214605AA01980594FFF768
:10998000D3FA0423012106AA01980694FFF7CCFA22
:10999000DDE905120198FEF764FE042307902146D5
:1099A000019807AAFFF7C9FA019B1B689B7C002B53
:1099B00038D1029B0198197CFFF707FB56E7600737
:1099C00028D5039B0BB9052055E70024019B1E4EAB
:1099D000D3F8EC50AB7B9C420CD26B7BE340D907B5
:1099E00001D40134F6E7019806EB0411FFF75DFBA3
:1099F000C201F6D5AB7B9C4201D1002007E004F107
:109A0000606101F5817101980901FFF74EFB039B2D
:109A10001860D8E745B9E30706D5029B187C0230E9
:109A2000C0B228E7022026E7042024E76C110020BA
:109A3000F0ED00E030ED00E02CED00E028ED00E07E
:109A40000200FA050CED00E0281000E037B50446EE
:109A50001C49FFF72AFBE06D10F0010508D1012039
:109A600007F0C0F9284607F0BDF90A2008F0CEFC3F
:109A700020461449FFF719FB820104D42046124AFC
:109A80001249FFF71FFB636B0BB1204698474FF459
:109A90007A7101A8FCF7BCFD0A4D29462046FFF764
:109AA00004FB830104D501A8FCF7BDFD0028F4D018
:109AB0000A2008F0ABFC1F2220460549FFF702FBF5
:109AC00003B030BDF0ED00E00400FA050CED00E05D
:109AD00030ED00E02DE9F04114460746DDF818802E
